{"contracts/Auction.sol":{"Auction":{"abi":[{"inputs":[{"internalType":"address","name":"_eventImplementation","type":"address"}],"stateMutability":"nonpayable","type":"constructor"},{"inputs":[],"name":"Auction__BidTooLow","type":"error"},{"inputs":[{"internalType":"uint256","name":"idsLength","type":"uint256"},{"internalType":"uint256","name":"suppliesLength","type":"uint256"}],"name":"Auction__TokenIdsDoNotMatchTokenSupplies","type":"error"},{"anonymous":false,"inputs":[{"indexed":true,"internalType":"address","name":"eventAddress","type":"address"},{"indexed":true,"internalType":"string","name":"baseMetaDataURI","type":"string"},{"components":[{"internalType":"string","name":"name","type":"string"},{"internalType":"address","name":"organizer","type":"address"},{"internalType":"string","name":"baseMetadataURI","type":"string"},{"internalType":"uint256[]","name":"tokenIds","type":"uint256[]"},{"internalType":"uint256[]","name":"tokenSupplies","type":"uint256[]"},{"internalType":"uint256[]","name":"tokenStatus","type":"uint256[]"},{"internalType":"uint256[]","name":"minBids","type":"uint256[]"}],"indexed":false,"internalType":"struct Auction.Event","name":"event0","type":"tuple"}],"name":"EventListed","type":"event"},{"inputs":[{"internalType":"string","name":"_name","type":"string"},{"internalType":"string","name":"_baseMetadataURI","type":"string"},{"internalType":"uint256[]","name":"_tokenIds","type":"uint256[]"},{"internalType":"uint256[]","name":"_tokenSupplies","type":"uint256[]"},{"internalType":"uint256[]","name":"_tokenStatus","type":"uint256[]"},{"internalType":"uint256[]","name":"_minBids","type":"uint256[]"}],"name":"createEvent","outputs":[],"stateMutability":"nonpayable","type":"function"},{"inputs":[{"internalType":"address","name":"_eventAddress","type":"address"},{"internalType":"uint256","name":"_tokenId","type":"uint256"},{"internalType":"uint256","name":"_amount","type":"uint256"}],"name":"placeBid","outputs":[],"stateMutability":"nonpayable","type":"function"},{"inputs":[{"internalType":"address","name":"_eventAddress","type":"address"},{"internalType":"uint256","name":"_tokenId","type":"uint256"},{"internalType":"uint256","name":"_newBid","type":"uint256"}],"name":"updateMinBid","outputs":[],"stateMutability":"nonpayable","type":"function"}],"evm":{"bytecode":{"linkReferences":{},"object":"60a06040523480156200001157600080fd5b506040516200109a3803806200109a8339818101604052810190620000379190620000dc565b8073ffffffffffffffffffffffffffffffffffffffff1660808173ffffffffffffffffffffffffffffffffffffffff1681525050506200010e565b600080fd5b600073ffffffffffffffffffffffffffffffffffffffff82169050919050565b6000620000a48262000077565b9050919050565b620000b68162000097565b8114620000c257600080fd5b50565b600081519050620000d681620000ab565b92915050565b600060208284031215620000f557620000f462000072565b5b60006200010584828501620000c5565b91505092915050565b608051610f706200012a600039600061017f0152610f706000f3fe608060405234801561001057600080fd5b50600436106100415760003560e01c806304717aca146100465780637df0bf9514610062578063f6ac93611461007e575b600080fd5b610060600480360381019061005b91906106e6565b61009a565b005b61007c600480360381019061007791906106e6565b610129565b005b61009860048036038101906100939190610947565b61012e565b005b600260008473ffffffffffffffffffffffffffffffffffffffff1673ffffffffffffffffffffffffffffffffffffffff168152602001908152602001600020600083815260200190815260200160002054811015610124576040517f95b79dad00000000000000000000000000000000000000000000000000000000815260040160405180910390fd5b505050565b505050565b825184511461017857835183516040517f604cd06900000000000000000000000000000000000000000000000000000000815260040161016f929190610a8b565b60405180910390fd5b60006101a37f0000000000000000000000000000000000000000000000000000000000000000610493565b90508073ffffffffffffffffffffffffffffffffffffffff1663f399e22e30886040518363ffffffff1660e01b81526004016101e0929190610b4b565b600060405180830381600087803b1580156101fa57600080fd5b505af115801561020e573d6000803e3d6000fd5b5050505060006040518060e001604052808981526020013073ffffffffffffffffffffffffffffffffffffffff168152602001888152602001878152602001868152602001858152602001848152509050806000808473ffffffffffffffffffffffffffffffffffffffff1673ffffffffffffffffffffffffffffffffffffffff16815260200190815260200160002060008201518160000190805190602001906102ba92919061054e565b5060208201518160010160006101000a81548173ffffffffffffffffffffffffffffffffffffffff021916908373ffffffffffffffffffffffffffffffffffffffff160217905550604082015181600201908051906020019061031e92919061054e565b50606082015181600301908051906020019061033b9291906105d4565b5060808201518160040190805190602001906103589291906105d4565b5060a08201518160050190805190602001906103759291906105d4565b5060c08201518160060190805190602001906103929291906105d4565b5090505060005b8651811015610424578381815181106103b5576103b4610b7b565b5b6020026020010151600260008573ffffffffffffffffffffffffffffffffffffffff1673ffffffffffffffffffffffffffffffffffffffff168152602001908152602001600020600083815260200190815260200160002081905550808061041c90610bd9565b915050610399565b50866040516104339190610c5e565b60405180910390208273ffffffffffffffffffffffffffffffffffffffff167f453e81195773858555ccc0789dabe88873f10681c642e18bac04a531667ef5a8836040516104819190610e4b565b60405180910390a35050505050505050565b6000763d602d80600a3d3981f3363d3d373d3d3d363d730000008260601b60e81c176000526e5af43d82803e903d91602b57fd5bf38260781b17602052603760096000f09050600073ffffffffffffffffffffffffffffffffffffffff168173ffffffffffffffffffffffffffffffffffffffff161415610549576040517f08c379a000000000000000000000000000000000000000000000000000000000815260040161054090610eb9565b60405180910390fd5b919050565b82805461055a90610f08565b90600052602060002090601f01602090048101928261057c57600085556105c3565b82601f1061059557805160ff19168380011785556105c3565b828001600101855582156105c3579182015b828111156105c25782518255916020019190600101906105a7565b5b5090506105d09190610621565b5090565b828054828255906000526020600020908101928215610610579160200282015b8281111561060f5782518255916020019190600101906105f4565b5b50905061061d9190610621565b5090565b5b8082111561063a576000816000905550600101610622565b5090565b6000604051905090565b600080fd5b600080fd5b600073ffffffffffffffffffffffffffffffffffffffff82169050919050565b600061067d82610652565b9050919050565b61068d81610672565b811461069857600080fd5b50565b6000813590506106aa81610684565b92915050565b6000819050919050565b6106c3816106b0565b81146106ce57600080fd5b50565b6000813590506106e0816106ba565b92915050565b6000806000606084860312156106ff576106fe610648565b5b600061070d8682870161069b565b935050602061071e868287016106d1565b925050604061072f868287016106d1565b9150509250925092565b600080fd5b600080fd5b6000601f19601f8301169050919050565b7f4e487b7100000000000000000000000000000000000000000000000000000000600052604160045260246000fd5b61078c82610743565b810181811067ffffffffffffffff821117156107ab576107aa610754565b5b80604052505050565b60006107be61063e565b90506107ca8282610783565b919050565b600067ffffffffffffffff8211156107ea576107e9610754565b5b6107f382610743565b9050602081019050919050565b82818337600083830152505050565b600061082261081d846107cf565b6107b4565b90508281526020810184848401111561083e5761083d61073e565b5b610849848285610800565b509392505050565b600082601f83011261086657610865610739565b5b813561087684826020860161080f565b91505092915050565b600067ffffffffffffffff82111561089a57610899610754565b5b602082029050602081019050919050565b600080fd5b60006108c36108be8461087f565b6107b4565b905080838252602082019050602084028301858111156108e6576108e56108ab565b5b835b8181101561090f57806108fb88826106d1565b8452602084019350506020810190506108e8565b5050509392505050565b600082601f83011261092e5761092d610739565b5b813561093e8482602086016108b0565b91505092915050565b60008060008060008060c0878903121561096457610963610648565b5b600087013567ffffffffffffffff8111156109825761098161064d565b5b61098e89828a01610851565b965050602087013567ffffffffffffffff8111156109af576109ae61064d565b5b6109bb89828a01610851565b955050604087013567ffffffffffffffff8111156109dc576109db61064d565b5b6109e889828a01610919565b945050606087013567ffffffffffffffff811115610a0957610a0861064d565b5b610a1589828a01610919565b935050608087013567ffffffffffffffff811115610a3657610a3561064d565b5b610a4289828a01610919565b92505060a087013567ffffffffffffffff811115610a6357610a6261064d565b5b610a6f89828a01610919565b9150509295509295509295565b610a85816106b0565b82525050565b6000604082019050610aa06000830185610a7c565b610aad6020830184610a7c565b9392505050565b610abd81610672565b82525050565b600081519050919050565b600082825260208201905092915050565b60005b83811015610afd578082015181840152602081019050610ae2565b83811115610b0c576000848401525b50505050565b6000610b1d82610ac3565b610b278185610ace565b9350610b37818560208601610adf565b610b4081610743565b840191505092915050565b6000604082019050610b606000830185610ab4565b8181036020830152610b728184610b12565b90509392505050565b7f4e487b7100000000000000000000000000000000000000000000000000000000600052603260045260246000fd5b7f4e487b7100000000000000000000000000000000000000000000000000000000600052601160045260246000fd5b6000610be4826106b0565b91507fffffffffffffffffffffffffffffffffffffffffffffffffffffffffffffffff821415610c1757610c16610baa565b5b600182019050919050565b600081905092915050565b6000610c3882610ac3565b610c428185610c22565b9350610c52818560208601610adf565b80840191505092915050565b6000610c6a8284610c2d565b915081905092915050565b600082825260208201905092915050565b6000610c9182610ac3565b610c9b8185610c75565b9350610cab818560208601610adf565b610cb481610743565b840191505092915050565b610cc881610672565b82525050565b600081519050919050565b600082825260208201905092915050565b6000819050602082019050919050565b610d03816106b0565b82525050565b6000610d158383610cfa565b60208301905092915050565b6000602082019050919050565b6000610d3982610cce565b610d438185610cd9565b9350610d4e83610cea565b8060005b83811015610d7f578151610d668882610d09565b9750610d7183610d21565b925050600181019050610d52565b5085935050505092915050565b600060e0830160008301518482036000860152610da98282610c86565b9150506020830151610dbe6020860182610cbf565b5060408301518482036040860152610dd68282610c86565b91505060608301518482036060860152610df08282610d2e565b91505060808301518482036080860152610e0a8282610d2e565b91505060a083015184820360a0860152610e248282610d2e565b91505060c083015184820360c0860152610e3e8282610d2e565b9150508091505092915050565b60006020820190508181036000830152610e658184610d8c565b905092915050565b7f455243313136373a20637265617465206661696c656400000000000000000000600082015250565b6000610ea3601683610ace565b9150610eae82610e6d565b602082019050919050565b60006020820190508181036000830152610ed281610e96565b9050919050565b7f4e487b7100000000000000000000000000000000000000000000000000000000600052602260045260246000fd5b60006002820490506001821680610f2057607f821691505b60208210811415610f3457610f33610ed9565b5b5091905056fea2646970667358221220f6616c4fde4367144a168e8d6b94c9c006f5486834e0d66b40914eb7c394bb2264736f6c63430008090033","opcodes":"PUSH1 0xA0 PUSH1 0x40 MSTORE CALLVALUE DUP1 ISZERO PUSH3 0x11 JUMPI PUSH1 0x0 DUP1 REVERT JUMPDEST POP PUSH1 0x40 MLOAD PUSH3 0x109A CODESIZE SUB DUP1 PUSH3 0x109A DUP4 CODECOPY DUP2 DUP2 ADD PUSH1 0x40 MSTORE DUP2 ADD SWAP1 PUSH3 0x37 SWAP2 SWAP1 PUSH3 0xDC JUMP JUMPDEST DUP1 PUSH20 0xFFFFFFFFFFFFFFFFFFFFFFFFFFFFFFFFFFFFFFFF AND PUSH1 0x80 DUP2 PUSH20 0xFFFFFFFFFFFFFFFFFFFFFFFFFFFFFFFFFFFFFFFF AND DUP2 MSTORE POP POP POP PUSH3 0x10E JUMP JUMPDEST PUSH1 0x0 DUP1 REVERT JUMPDEST PUSH1 0x0 PUSH20 0xFFFFFFFFFFFFFFFFFFFFFFFFFFFFFFFFFFFFFFFF DUP3 AND SWAP1 POP SWAP2 SWAP1 POP JUMP JUMPDEST PUSH1 0x0 PUSH3 0xA4 DUP3 PUSH3 0x77 JUMP JUMPDEST SWAP1 POP SWAP2 SWAP1 POP JUMP JUMPDEST PUSH3 0xB6 DUP2 PUSH3 0x97 JUMP JUMPDEST DUP2 EQ PUSH3 0xC2 JUMPI PUSH1 0x0 DUP1 REVERT JUMPDEST POP JUMP JUMPDEST PUSH1 0x0 DUP2 MLOAD SWAP1 POP PUSH3 0xD6 DUP2 PUSH3 0xAB JUMP JUMPDEST SWAP3 SWAP2 POP POP JUMP JUMPDEST PUSH1 0x0 PUSH1 0x20 DUP3 DUP5 SUB SLT ISZERO PUSH3 0xF5 JUMPI PUSH3 0xF4 PUSH3 0x72 JUMP JUMPDEST JUMPDEST PUSH1 0x0 PUSH3 0x105 DUP5 DUP3 DUP6 ADD PUSH3 0xC5 JUMP JUMPDEST SWAP2 POP POP SWAP3 SWAP2 POP POP JUMP JUMPDEST PUSH1 0x80 MLOAD PUSH2 0xF70 PUSH3 0x12A PUSH1 0x0 CODECOPY PUSH1 0x0 PUSH2 0x17F ADD MSTORE PUSH2 0xF70 PUSH1 0x0 RETURN INVALID PUSH1 0x80 PUSH1 0x40 MSTORE CALLVALUE DUP1 ISZERO PUSH2 0x10 JUMPI PUSH1 0x0 DUP1 REVERT JUMPDEST POP PUSH1 0x4 CALLDATASIZE LT PUSH2 0x41 JUMPI PUSH1 0x0 CALLDATALOAD PUSH1 0xE0 SHR DUP1 PUSH4 0x4717ACA EQ PUSH2 0x46 JUMPI DUP1 PUSH4 0x7DF0BF95 EQ PUSH2 0x62 JUMPI DUP1 PUSH4 0xF6AC9361 EQ PUSH2 0x7E JUMPI JUMPDEST PUSH1 0x0 DUP1 REVERT JUMPDEST PUSH2 0x60 PUSH1 0x4 DUP1 CALLDATASIZE SUB DUP2 ADD SWAP1 PUSH2 0x5B SWAP2 SWAP1 PUSH2 0x6E6 JUMP JUMPDEST PUSH2 0x9A JUMP JUMPDEST STOP JUMPDEST PUSH2 0x7C PUSH1 0x4 DUP1 CALLDATASIZE SUB DUP2 ADD SWAP1 PUSH2 0x77 SWAP2 SWAP1 PUSH2 0x6E6 JUMP JUMPDEST PUSH2 0x129 JUMP JUMPDEST STOP JUMPDEST PUSH2 0x98 PUSH1 0x4 DUP1 CALLDATASIZE SUB DUP2 ADD SWAP1 PUSH2 0x93 SWAP2 SWAP1 PUSH2 0x947 JUMP JUMPDEST PUSH2 0x12E JUMP JUMPDEST STOP JUMPDEST PUSH1 0x2 PUSH1 0x0 DUP5 PUSH20 0xFFFFFFFFFFFFFFFFFFFFFFFFFFFFFFFFFFFFFFFF AND PUSH20 0xFFFFFFFFFFFFFFFFFFFFFFFFFFFFFFFFFFFFFFFF AND DUP2 MSTORE PUSH1 0x20 ADD SWAP1 DUP2 MSTORE PUSH1 0x20 ADD PUSH1 0x0 KECCAK256 PUSH1 0x0 DUP4 DUP2 MSTORE PUSH1 0x20 ADD SWAP1 DUP2 MSTORE PUSH1 0x20 ADD PUSH1 0x0 KECCAK256 SLOAD DUP2 LT ISZERO PUSH2 0x124 JUMPI PUSH1 0x40 MLOAD PUSH32 0x95B79DAD00000000000000000000000000000000000000000000000000000000 DUP2 MSTORE PUSH1 0x4 ADD PUSH1 0x40 MLOAD DUP1 SWAP2 SUB SWAP1 REVERT JUMPDEST POP POP POP JUMP JUMPDEST POP POP POP JUMP JUMPDEST DUP3 MLOAD DUP5 MLOAD EQ PUSH2 0x178 JUMPI DUP4 MLOAD DUP4 MLOAD PUSH1 0x40 MLOAD PUSH32 0x604CD06900000000000000000000000000000000000000000000000000000000 DUP2 MSTORE PUSH1 0x4 ADD PUSH2 0x16F SWAP3 SWAP2 SWAP1 PUSH2 0xA8B JUMP JUMPDEST PUSH1 0x40 MLOAD DUP1 SWAP2 SUB SWAP1 REVERT JUMPDEST PUSH1 0x0 PUSH2 0x1A3 PUSH32 0x0 PUSH2 0x493 JUMP JUMPDEST SWAP1 POP DUP1 PUSH20 0xFFFFFFFFFFFFFFFFFFFFFFFFFFFFFFFFFFFFFFFF AND PUSH4 0xF399E22E ADDRESS DUP9 PUSH1 0x40 MLOAD DUP4 PUSH4 0xFFFFFFFF AND PUSH1 0xE0 SHL DUP2 MSTORE PUSH1 0x4 ADD PUSH2 0x1E0 SWAP3 SWAP2 SWAP1 PUSH2 0xB4B JUMP JUMPDEST PUSH1 0x0 PUSH1 0x40 MLOAD DUP1 DUP4 SUB DUP2 PUSH1 0x0 DUP8 DUP1 EXTCODESIZE ISZERO DUP1 ISZERO PUSH2 0x1FA JUMPI PUSH1 0x0 DUP1 REVERT JUMPDEST POP GAS CALL ISZERO DUP1 ISZERO PUSH2 0x20E JUMPI RETURNDATASIZE PUSH1 0x0 DUP1 RETURNDATACOPY RETURNDATASIZE PUSH1 0x0 REVERT JUMPDEST POP POP POP POP PUSH1 0x0 PUSH1 0x40 MLOAD DUP1 PUSH1 0xE0 ADD PUSH1 0x40 MSTORE DUP1 DUP10 DUP2 MSTORE PUSH1 0x20 ADD ADDRESS PUSH20 0xFFFFFFFFFFFFFFFFFFFFFFFFFFFFFFFFFFFFFFFF AND DUP2 MSTORE PUSH1 0x20 ADD DUP9 DUP2 MSTORE PUSH1 0x20 ADD DUP8 DUP2 MSTORE PUSH1 0x20 ADD DUP7 DUP2 MSTORE PUSH1 0x20 ADD DUP6 DUP2 MSTORE PUSH1 0x20 ADD DUP5 DUP2 MSTORE POP SWAP1 POP DUP1 PUSH1 0x0 DUP1 DUP5 PUSH20 0xFFFFFFFFFFFFFFFFFFFFFFFFFFFFFFFFFFFFFFFF AND PUSH20 0xFFFFFFFFFFFFFFFFFFFFFFFFFFFFFFFFFFFFFFFF AND DUP2 MSTORE PUSH1 0x20 ADD SWAP1 DUP2 MSTORE PUSH1 0x20 ADD PUSH1 0x0 KECCAK256 PUSH1 0x0 DUP3 ADD MLOAD DUP2 PUSH1 0x0 ADD SWAP1 DUP1 MLOAD SWAP1 PUSH1 0x20 ADD SWAP1 PUSH2 0x2BA SWAP3 SWAP2 SWAP1 PUSH2 0x54E JUMP JUMPDEST POP PUSH1 0x20 DUP3 ADD MLOAD DUP2 PUSH1 0x1 ADD PUSH1 0x0 PUSH2 0x100 EXP DUP2 SLOAD DUP2 PUSH20 0xFFFFFFFFFFFFFFFFFFFFFFFFFFFFFFFFFFFFFFFF MUL NOT AND SWAP1 DUP4 PUSH20 0xFFFFFFFFFFFFFFFFFFFFFFFFFFFFFFFFFFFFFFFF AND MUL OR SWAP1 SSTORE POP PUSH1 0x40 DUP3 ADD MLOAD DUP2 PUSH1 0x2 ADD SWAP1 DUP1 MLOAD SWAP1 PUSH1 0x20 ADD SWAP1 PUSH2 0x31E SWAP3 SWAP2 SWAP1 PUSH2 0x54E JUMP JUMPDEST POP PUSH1 0x60 DUP3 ADD MLOAD DUP2 PUSH1 0x3 ADD SWAP1 DUP1 MLOAD SWAP1 PUSH1 0x20 ADD SWAP1 PUSH2 0x33B SWAP3 SWAP2 SWAP1 PUSH2 0x5D4 JUMP JUMPDEST POP PUSH1 0x80 DUP3 ADD MLOAD DUP2 PUSH1 0x4 ADD SWAP1 DUP1 MLOAD SWAP1 PUSH1 0x20 ADD SWAP1 PUSH2 0x358 SWAP3 SWAP2 SWAP1 PUSH2 0x5D4 JUMP JUMPDEST POP PUSH1 0xA0 DUP3 ADD MLOAD DUP2 PUSH1 0x5 ADD SWAP1 DUP1 MLOAD SWAP1 PUSH1 0x20 ADD SWAP1 PUSH2 0x375 SWAP3 SWAP2 SWAP1 PUSH2 0x5D4 JUMP JUMPDEST POP PUSH1 0xC0 DUP3 ADD MLOAD DUP2 PUSH1 0x6 ADD SWAP1 DUP1 MLOAD SWAP1 PUSH1 0x20 ADD SWAP1 PUSH2 0x392 SWAP3 SWAP2 SWAP1 PUSH2 0x5D4 JUMP JUMPDEST POP SWAP1 POP POP PUSH1 0x0 JUMPDEST DUP7 MLOAD DUP2 LT ISZERO PUSH2 0x424 JUMPI DUP4 DUP2 DUP2 MLOAD DUP2 LT PUSH2 0x3B5 JUMPI PUSH2 0x3B4 PUSH2 0xB7B JUMP JUMPDEST JUMPDEST PUSH1 0x20 MUL PUSH1 0x20 ADD ADD MLOAD PUSH1 0x2 PUSH1 0x0 DUP6 PUSH20 0xFFFFFFFFFFFFFFFFFFFFFFFFFFFFFFFFFFFFFFFF AND PUSH20 0xFFFFFFFFFFFFFFFFFFFFFFFFFFFFFFFFFFFFFFFF AND DUP2 MSTORE PUSH1 0x20 ADD SWAP1 DUP2 MSTORE PUSH1 0x20 ADD PUSH1 0x0 KECCAK256 PUSH1 0x0 DUP4 DUP2 MSTORE PUSH1 0x20 ADD SWAP1 DUP2 MSTORE PUSH1 0x20 ADD PUSH1 0x0 KECCAK256 DUP2 SWAP1 SSTORE POP DUP1 DUP1 PUSH2 0x41C SWAP1 PUSH2 0xBD9 JUMP JUMPDEST SWAP2 POP POP PUSH2 0x399 JUMP JUMPDEST POP DUP7 PUSH1 0x40 MLOAD PUSH2 0x433 SWAP2 SWAP1 PUSH2 0xC5E JUMP JUMPDEST PUSH1 0x40 MLOAD DUP1 SWAP2 SUB SWAP1 KECCAK256 DUP3 PUSH20 0xFFFFFFFFFFFFFFFFFFFFFFFFFFFFFFFFFFFFFFFF AND PUSH32 0x453E81195773858555CCC0789DABE88873F10681C642E18BAC04A531667EF5A8 DUP4 PUSH1 0x40 MLOAD PUSH2 0x481 SWAP2 SWAP1 PUSH2 0xE4B JUMP JUMPDEST PUSH1 0x40 MLOAD DUP1 SWAP2 SUB SWAP1 LOG3 POP POP POP POP POP POP POP POP JUMP JUMPDEST PUSH1 0x0 PUSH23 0x3D602D80600A3D3981F3363D3D373D3D3D363D73000000 DUP3 PUSH1 0x60 SHL PUSH1 0xE8 SHR OR PUSH1 0x0 MSTORE PUSH15 0x5AF43D82803E903D91602B57FD5BF3 DUP3 PUSH1 0x78 SHL OR PUSH1 0x20 MSTORE PUSH1 0x37 PUSH1 0x9 PUSH1 0x0 CREATE SWAP1 POP PUSH1 0x0 PUSH20 0xFFFFFFFFFFFFFFFFFFFFFFFFFFFFFFFFFFFFFFFF AND DUP2 PUSH20 0xFFFFFFFFFFFFFFFFFFFFFFFFFFFFFFFFFFFFFFFF AND EQ ISZERO PUSH2 0x549 JUMPI PUSH1 0x40 MLOAD PUSH32 0x8C379A000000000000000000000000000000000000000000000000000000000 DUP2 MSTORE PUSH1 0x4 ADD PUSH2 0x540 SWAP1 PUSH2 0xEB9 JUMP JUMPDEST PUSH1 0x40 MLOAD DUP1 SWAP2 SUB SWAP1 REVERT JUMPDEST SWAP2 SWAP1 POP JUMP JUMPDEST DUP3 DUP1 SLOAD PUSH2 0x55A SWAP1 PUSH2 0xF08 JUMP JUMPDEST SWAP1 PUSH1 0x0 MSTORE PUSH1 0x20 PUSH1 0x0 KECCAK256 SWAP1 PUSH1 0x1F ADD PUSH1 0x20 SWAP1 DIV DUP2 ADD SWAP3 DUP3 PUSH2 0x57C JUMPI PUSH1 0x0 DUP6 SSTORE PUSH2 0x5C3 JUMP JUMPDEST DUP3 PUSH1 0x1F LT PUSH2 0x595 JUMPI DUP1 MLOAD PUSH1 0xFF NOT AND DUP4 DUP1 ADD OR DUP6 SSTORE PUSH2 0x5C3 JUMP JUMPDEST DUP3 DUP1 ADD PUSH1 0x1 ADD DUP6 SSTORE DUP3 ISZERO PUSH2 0x5C3 JUMPI SWAP2 DUP3 ADD JUMPDEST DUP3 DUP2 GT ISZERO PUSH2 0x5C2 JUMPI DUP3 MLOAD DUP3 SSTORE SWAP2 PUSH1 0x20 ADD SWAP2 SWAP1 PUSH1 0x1 ADD SWAP1 PUSH2 0x5A7 JUMP JUMPDEST JUMPDEST POP SWAP1 POP PUSH2 0x5D0 SWAP2 SWAP1 PUSH2 0x621 JUMP JUMPDEST POP SWAP1 JUMP JUMPDEST DUP3 DUP1 SLOAD DUP3 DUP3 SSTORE SWAP1 PUSH1 0x0 MSTORE PUSH1 0x20 PUSH1 0x0 KECCAK256 SWAP1 DUP2 ADD SWAP3 DUP3 ISZERO PUSH2 0x610 JUMPI SWAP2 PUSH1 0x20 MUL DUP3 ADD JUMPDEST DUP3 DUP2 GT ISZERO PUSH2 0x60F JUMPI DUP3 MLOAD DUP3 SSTORE SWAP2 PUSH1 0x20 ADD SWAP2 SWAP1 PUSH1 0x1 ADD SWAP1 PUSH2 0x5F4 JUMP JUMPDEST JUMPDEST POP SWAP1 POP PUSH2 0x61D SWAP2 SWAP1 PUSH2 0x621 JUMP JUMPDEST POP SWAP1 JUMP JUMPDEST JUMPDEST DUP1 DUP3 GT ISZERO PUSH2 0x63A JUMPI PUSH1 0x0 DUP2 PUSH1 0x0 SWAP1 SSTORE POP PUSH1 0x1 ADD PUSH2 0x622 JUMP JUMPDEST POP SWAP1 JUMP JUMPDEST PUSH1 0x0 PUSH1 0x40 MLOAD SWAP1 POP SWAP1 JUMP JUMPDEST PUSH1 0x0 DUP1 REVERT JUMPDEST PUSH1 0x0 DUP1 REVERT JUMPDEST PUSH1 0x0 PUSH20 0xFFFFFFFFFFFFFFFFFFFFFFFFFFFFFFFFFFFFFFFF DUP3 AND SWAP1 POP SWAP2 SWAP1 POP JUMP JUMPDEST PUSH1 0x0 PUSH2 0x67D DUP3 PUSH2 0x652 JUMP JUMPDEST SWAP1 POP SWAP2 SWAP1 POP JUMP JUMPDEST PUSH2 0x68D DUP2 PUSH2 0x672 JUMP JUMPDEST DUP2 EQ PUSH2 0x698 JUMPI PUSH1 0x0 DUP1 REVERT JUMPDEST POP JUMP JUMPDEST PUSH1 0x0 DUP2 CALLDATALOAD SWAP1 POP PUSH2 0x6AA DUP2 PUSH2 0x684 JUMP JUMPDEST SWAP3 SWAP2 POP POP JUMP JUMPDEST PUSH1 0x0 DUP2 SWAP1 POP SWAP2 SWAP1 POP JUMP JUMPDEST PUSH2 0x6C3 DUP2 PUSH2 0x6B0 JUMP JUMPDEST DUP2 EQ PUSH2 0x6CE JUMPI PUSH1 0x0 DUP1 REVERT JUMPDEST POP JUMP JUMPDEST PUSH1 0x0 DUP2 CALLDATALOAD SWAP1 POP PUSH2 0x6E0 DUP2 PUSH2 0x6BA JUMP JUMPDEST SWAP3 SWAP2 POP POP JUMP JUMPDEST PUSH1 0x0 DUP1 PUSH1 0x0 PUSH1 0x60 DUP5 DUP7 SUB SLT ISZERO PUSH2 0x6FF JUMPI PUSH2 0x6FE PUSH2 0x648 JUMP JUMPDEST JUMPDEST PUSH1 0x0 PUSH2 0x70D DUP7 DUP3 DUP8 ADD PUSH2 0x69B JUMP JUMPDEST SWAP4 POP POP PUSH1 0x20 PUSH2 0x71E DUP7 DUP3 DUP8 ADD PUSH2 0x6D1 JUMP JUMPDEST SWAP3 POP POP PUSH1 0x40 PUSH2 0x72F DUP7 DUP3 DUP8 ADD PUSH2 0x6D1 JUMP JUMPDEST SWAP2 POP POP SWAP3 POP SWAP3 POP SWAP3 JUMP JUMPDEST PUSH1 0x0 DUP1 REVERT JUMPDEST PUSH1 0x0 DUP1 REVERT JUMPDEST PUSH1 0x0 PUSH1 0x1F NOT PUSH1 0x1F DUP4 ADD AND SWAP1 POP SWAP2 SWAP1 POP JUMP JUMPDEST PUSH32 0x4E487B7100000000000000000000000000000000000000000000000000000000 PUSH1 0x0 MSTORE PUSH1 0x41 PUSH1 0x4 MSTORE PUSH1 0x24 PUSH1 0x0 REVERT JUMPDEST PUSH2 0x78C DUP3 PUSH2 0x743 JUMP JUMPDEST DUP2 ADD DUP2 DUP2 LT PUSH8 0xFFFFFFFFFFFFFFFF DUP3 GT OR ISZERO PUSH2 0x7AB JUMPI PUSH2 0x7AA PUSH2 0x754 JUMP JUMPDEST JUMPDEST DUP1 PUSH1 0x40 MSTORE POP POP POP JUMP JUMPDEST PUSH1 0x0 PUSH2 0x7BE PUSH2 0x63E JUMP JUMPDEST SWAP1 POP PUSH2 0x7CA DUP3 DUP3 PUSH2 0x783 JUMP JUMPDEST SWAP2 SWAP1 POP JUMP JUMPDEST PUSH1 0x0 PUSH8 0xFFFFFFFFFFFFFFFF DUP3 GT ISZERO PUSH2 0x7EA JUMPI PUSH2 0x7E9 PUSH2 0x754 JUMP JUMPDEST JUMPDEST PUSH2 0x7F3 DUP3 PUSH2 0x743 JUMP JUMPDEST SWAP1 POP PUSH1 0x20 DUP2 ADD SWAP1 POP SWAP2 SWAP1 POP JUMP JUMPDEST DUP3 DUP2 DUP4 CALLDATACOPY PUSH1 0x0 DUP4 DUP4 ADD MSTORE POP POP POP JUMP JUMPDEST PUSH1 0x0 PUSH2 0x822 PUSH2 0x81D DUP5 PUSH2 0x7CF JUMP JUMPDEST PUSH2 0x7B4 JUMP JUMPDEST SWAP1 POP DUP3 DUP2 MSTORE PUSH1 0x20 DUP2 ADD DUP5 DUP5 DUP5 ADD GT ISZERO PUSH2 0x83E JUMPI PUSH2 0x83D PUSH2 0x73E JUMP JUMPDEST JUMPDEST PUSH2 0x849 DUP5 DUP3 DUP6 PUSH2 0x800 JUMP JUMPDEST POP SWAP4 SWAP3 POP POP POP JUMP JUMPDEST PUSH1 0x0 DUP3 PUSH1 0x1F DUP4 ADD SLT PUSH2 0x866 JUMPI PUSH2 0x865 PUSH2 0x739 JUMP JUMPDEST JUMPDEST DUP2 CALLDATALOAD PUSH2 0x876 DUP5 DUP3 PUSH1 0x20 DUP7 ADD PUSH2 0x80F JUMP JUMPDEST SWAP2 POP POP SWAP3 SWAP2 POP POP JUMP JUMPDEST PUSH1 0x0 PUSH8 0xFFFFFFFFFFFFFFFF DUP3 GT ISZERO PUSH2 0x89A JUMPI PUSH2 0x899 PUSH2 0x754 JUMP JUMPDEST JUMPDEST PUSH1 0x20 DUP3 MUL SWAP1 POP PUSH1 0x20 DUP2 ADD SWAP1 POP SWAP2 SWAP1 POP JUMP JUMPDEST PUSH1 0x0 DUP1 REVERT JUMPDEST PUSH1 0x0 PUSH2 0x8C3 PUSH2 0x8BE DUP5 PUSH2 0x87F JUMP JUMPDEST PUSH2 0x7B4 JUMP JUMPDEST SWAP1 POP DUP1 DUP4 DUP3 MSTORE PUSH1 0x20 DUP3 ADD SWAP1 POP PUSH1 0x20 DUP5 MUL DUP4 ADD DUP6 DUP2 GT ISZERO PUSH2 0x8E6 JUMPI PUSH2 0x8E5 PUSH2 0x8AB JUMP JUMPDEST JUMPDEST DUP4 JUMPDEST DUP2 DUP2 LT ISZERO PUSH2 0x90F JUMPI DUP1 PUSH2 0x8FB DUP9 DUP3 PUSH2 0x6D1 JUMP JUMPDEST DUP5 MSTORE PUSH1 0x20 DUP5 ADD SWAP4 POP POP PUSH1 0x20 DUP2 ADD SWAP1 POP PUSH2 0x8E8 JUMP JUMPDEST POP POP POP SWAP4 SWAP3 POP POP POP JUMP JUMPDEST PUSH1 0x0 DUP3 PUSH1 0x1F DUP4 ADD SLT PUSH2 0x92E JUMPI PUSH2 0x92D PUSH2 0x739 JUMP JUMPDEST JUMPDEST DUP2 CALLDATALOAD PUSH2 0x93E DUP5 DUP3 PUSH1 0x20 DUP7 ADD PUSH2 0x8B0 JUMP JUMPDEST SWAP2 POP POP SWAP3 SWAP2 POP POP JUMP JUMPDEST PUSH1 0x0 DUP1 PUSH1 0x0 DUP1 PUSH1 0x0 DUP1 PUSH1 0xC0 DUP8 DUP10 SUB SLT ISZERO PUSH2 0x964 JUMPI PUSH2 0x963 PUSH2 0x648 JUMP JUMPDEST JUMPDEST PUSH1 0x0 DUP8 ADD CALLDATALOAD PUSH8 0xFFFFFFFFFFFFFFFF DUP2 GT ISZERO PUSH2 0x982 JUMPI PUSH2 0x981 PUSH2 0x64D JUMP JUMPDEST JUMPDEST PUSH2 0x98E DUP10 DUP3 DUP11 ADD PUSH2 0x851 JUMP JUMPDEST SWAP7 POP POP PUSH1 0x20 DUP8 ADD CALLDATALOAD PUSH8 0xFFFFFFFFFFFFFFFF DUP2 GT ISZERO PUSH2 0x9AF JUMPI PUSH2 0x9AE PUSH2 0x64D JUMP JUMPDEST JUMPDEST PUSH2 0x9BB DUP10 DUP3 DUP11 ADD PUSH2 0x851 JUMP JUMPDEST SWAP6 POP POP PUSH1 0x40 DUP8 ADD CALLDATALOAD PUSH8 0xFFFFFFFFFFFFFFFF DUP2 GT ISZERO PUSH2 0x9DC JUMPI PUSH2 0x9DB PUSH2 0x64D JUMP JUMPDEST JUMPDEST PUSH2 0x9E8 DUP10 DUP3 DUP11 ADD PUSH2 0x919 JUMP JUMPDEST SWAP5 POP POP PUSH1 0x60 DUP8 ADD CALLDATALOAD PUSH8 0xFFFFFFFFFFFFFFFF DUP2 GT ISZERO PUSH2 0xA09 JUMPI PUSH2 0xA08 PUSH2 0x64D JUMP JUMPDEST JUMPDEST PUSH2 0xA15 DUP10 DUP3 DUP11 ADD PUSH2 0x919 JUMP JUMPDEST SWAP4 POP POP PUSH1 0x80 DUP8 ADD CALLDATALOAD PUSH8 0xFFFFFFFFFFFFFFFF DUP2 GT ISZERO PUSH2 0xA36 JUMPI PUSH2 0xA35 PUSH2 0x64D JUMP JUMPDEST JUMPDEST PUSH2 0xA42 DUP10 DUP3 DUP11 ADD PUSH2 0x919 JUMP JUMPDEST SWAP3 POP POP PUSH1 0xA0 DUP8 ADD CALLDATALOAD PUSH8 0xFFFFFFFFFFFFFFFF DUP2 GT ISZERO PUSH2 0xA63 JUMPI PUSH2 0xA62 PUSH2 0x64D JUMP JUMPDEST JUMPDEST PUSH2 0xA6F DUP10 DUP3 DUP11 ADD PUSH2 0x919 JUMP JUMPDEST SWAP2 POP POP SWAP3 SWAP6 POP SWAP3 SWAP6 POP SWAP3 SWAP6 JUMP JUMPDEST PUSH2 0xA85 DUP2 PUSH2 0x6B0 JUMP JUMPDEST DUP3 MSTORE POP POP JUMP JUMPDEST PUSH1 0x0 PUSH1 0x40 DUP3 ADD SWAP1 POP PUSH2 0xAA0 PUSH1 0x0 DUP4 ADD DUP6 PUSH2 0xA7C JUMP JUMPDEST PUSH2 0xAAD PUSH1 0x20 DUP4 ADD DUP5 PUSH2 0xA7C JUMP JUMPDEST SWAP4 SWAP3 POP POP POP JUMP JUMPDEST PUSH2 0xABD DUP2 PUSH2 0x672 JUMP JUMPDEST DUP3 MSTORE POP POP JUMP JUMPDEST PUSH1 0x0 DUP2 MLOAD SWAP1 POP SWAP2 SWAP1 POP JUMP JUMPDEST PUSH1 0x0 DUP3 DUP3 MSTORE PUSH1 0x20 DUP3 ADD SWAP1 POP SWAP3 SWAP2 POP POP JUMP JUMPDEST PUSH1 0x0 JUMPDEST DUP4 DUP2 LT ISZERO PUSH2 0xAFD JUMPI DUP1 DUP3 ADD MLOAD DUP2 DUP5 ADD MSTORE PUSH1 0x20 DUP2 ADD SWAP1 POP PUSH2 0xAE2 JUMP JUMPDEST DUP4 DUP2 GT ISZERO PUSH2 0xB0C JUMPI PUSH1 0x0 DUP5 DUP5 ADD MSTORE JUMPDEST POP POP POP POP JUMP JUMPDEST PUSH1 0x0 PUSH2 0xB1D DUP3 PUSH2 0xAC3 JUMP JUMPDEST PUSH2 0xB27 DUP2 DUP6 PUSH2 0xACE JUMP JUMPDEST SWAP4 POP PUSH2 0xB37 DUP2 DUP6 PUSH1 0x20 DUP7 ADD PUSH2 0xADF JUMP JUMPDEST PUSH2 0xB40 DUP2 PUSH2 0x743 JUMP JUMPDEST DUP5 ADD SWAP2 POP POP SWAP3 SWAP2 POP POP JUMP JUMPDEST PUSH1 0x0 PUSH1 0x40 DUP3 ADD SWAP1 POP PUSH2 0xB60 PUSH1 0x0 DUP4 ADD DUP6 PUSH2 0xAB4 JUMP JUMPDEST DUP2 DUP2 SUB PUSH1 0x20 DUP4 ADD MSTORE PUSH2 0xB72 DUP2 DUP5 PUSH2 0xB12 JUMP JUMPDEST SWAP1 POP SWAP4 SWAP3 POP POP POP JUMP JUMPDEST PUSH32 0x4E487B7100000000000000000000000000000000000000000000000000000000 PUSH1 0x0 MSTORE PUSH1 0x32 PUSH1 0x4 MSTORE PUSH1 0x24 PUSH1 0x0 REVERT JUMPDEST PUSH32 0x4E487B7100000000000000000000000000000000000000000000000000000000 PUSH1 0x0 MSTORE PUSH1 0x11 PUSH1 0x4 MSTORE PUSH1 0x24 PUSH1 0x0 REVERT JUMPDEST PUSH1 0x0 PUSH2 0xBE4 DUP3 PUSH2 0x6B0 JUMP JUMPDEST SWAP2 POP PUSH32 0xFFFFFFFFFFFFFFFFFFFFFFFFFFFFFFFFFFFFFFFFFFFFFFFFFFFFFFFFFFFFFFFF DUP3 EQ ISZERO PUSH2 0xC17 JUMPI PUSH2 0xC16 PUSH2 0xBAA JUMP JUMPDEST JUMPDEST PUSH1 0x1 DUP3 ADD SWAP1 POP SWAP2 SWAP1 POP JUMP JUMPDEST PUSH1 0x0 DUP2 SWAP1 POP SWAP3 SWAP2 POP POP JUMP JUMPDEST PUSH1 0x0 PUSH2 0xC38 DUP3 PUSH2 0xAC3 JUMP JUMPDEST PUSH2 0xC42 DUP2 DUP6 PUSH2 0xC22 JUMP JUMPDEST SWAP4 POP PUSH2 0xC52 DUP2 DUP6 PUSH1 0x20 DUP7 ADD PUSH2 0xADF JUMP JUMPDEST DUP1 DUP5 ADD SWAP2 POP POP SWAP3 SWAP2 POP POP JUMP JUMPDEST PUSH1 0x0 PUSH2 0xC6A DUP3 DUP5 PUSH2 0xC2D JUMP JUMPDEST SWAP2 POP DUP2 SWAP1 POP SWAP3 SWAP2 POP POP JUMP JUMPDEST PUSH1 0x0 DUP3 DUP3 MSTORE PUSH1 0x20 DUP3 ADD SWAP1 POP SWAP3 SWAP2 POP POP JUMP JUMPDEST PUSH1 0x0 PUSH2 0xC91 DUP3 PUSH2 0xAC3 JUMP JUMPDEST PUSH2 0xC9B DUP2 DUP6 PUSH2 0xC75 JUMP JUMPDEST SWAP4 POP PUSH2 0xCAB DUP2 DUP6 PUSH1 0x20 DUP7 ADD PUSH2 0xADF JUMP JUMPDEST PUSH2 0xCB4 DUP2 PUSH2 0x743 JUMP JUMPDEST DUP5 ADD SWAP2 POP POP SWAP3 SWAP2 POP POP JUMP JUMPDEST PUSH2 0xCC8 DUP2 PUSH2 0x672 JUMP JUMPDEST DUP3 MSTORE POP POP JUMP JUMPDEST PUSH1 0x0 DUP2 MLOAD SWAP1 POP SWAP2 SWAP1 POP JUMP JUMPDEST PUSH1 0x0 DUP3 DUP3 MSTORE PUSH1 0x20 DUP3 ADD SWAP1 POP SWAP3 SWAP2 POP POP JUMP JUMPDEST PUSH1 0x0 DUP2 SWAP1 POP PUSH1 0x20 DUP3 ADD SWAP1 POP SWAP2 SWAP1 POP JUMP JUMPDEST PUSH2 0xD03 DUP2 PUSH2 0x6B0 JUMP JUMPDEST DUP3 MSTORE POP POP JUMP JUMPDEST PUSH1 0x0 PUSH2 0xD15 DUP4 DUP4 PUSH2 0xCFA JUMP JUMPDEST PUSH1 0x20 DUP4 ADD SWAP1 POP SWAP3 SWAP2 POP POP JUMP JUMPDEST PUSH1 0x0 PUSH1 0x20 DUP3 ADD SWAP1 POP SWAP2 SWAP1 POP JUMP JUMPDEST PUSH1 0x0 PUSH2 0xD39 DUP3 PUSH2 0xCCE JUMP JUMPDEST PUSH2 0xD43 DUP2 DUP6 PUSH2 0xCD9 JUMP JUMPDEST SWAP4 POP PUSH2 0xD4E DUP4 PUSH2 0xCEA JUMP JUMPDEST DUP1 PUSH1 0x0 JUMPDEST DUP4 DUP2 LT ISZERO PUSH2 0xD7F JUMPI DUP2 MLOAD PUSH2 0xD66 DUP9 DUP3 PUSH2 0xD09 JUMP JUMPDEST SWAP8 POP PUSH2 0xD71 DUP4 PUSH2 0xD21 JUMP JUMPDEST SWAP3 POP POP PUSH1 0x1 DUP2 ADD SWAP1 POP PUSH2 0xD52 JUMP JUMPDEST POP DUP6 SWAP4 POP POP POP POP SWAP3 SWAP2 POP POP JUMP JUMPDEST PUSH1 0x0 PUSH1 0xE0 DUP4 ADD PUSH1 0x0 DUP4 ADD MLOAD DUP5 DUP3 SUB PUSH1 0x0 DUP7 ADD MSTORE PUSH2 0xDA9 DUP3 DUP3 PUSH2 0xC86 JUMP JUMPDEST SWAP2 POP POP PUSH1 0x20 DUP4 ADD MLOAD PUSH2 0xDBE PUSH1 0x20 DUP7 ADD DUP3 PUSH2 0xCBF JUMP JUMPDEST POP PUSH1 0x40 DUP4 ADD MLOAD DUP5 DUP3 SUB PUSH1 0x40 DUP7 ADD MSTORE PUSH2 0xDD6 DUP3 DUP3 PUSH2 0xC86 JUMP JUMPDEST SWAP2 POP POP PUSH1 0x60 DUP4 ADD MLOAD DUP5 DUP3 SUB PUSH1 0x60 DUP7 ADD MSTORE PUSH2 0xDF0 DUP3 DUP3 PUSH2 0xD2E JUMP JUMPDEST SWAP2 POP POP PUSH1 0x80 DUP4 ADD MLOAD DUP5 DUP3 SUB PUSH1 0x80 DUP7 ADD MSTORE PUSH2 0xE0A DUP3 DUP3 PUSH2 0xD2E JUMP JUMPDEST SWAP2 POP POP PUSH1 0xA0 DUP4 ADD MLOAD DUP5 DUP3 SUB PUSH1 0xA0 DUP7 ADD MSTORE PUSH2 0xE24 DUP3 DUP3 PUSH2 0xD2E JUMP JUMPDEST SWAP2 POP POP PUSH1 0xC0 DUP4 ADD MLOAD DUP5 DUP3 SUB PUSH1 0xC0 DUP7 ADD MSTORE PUSH2 0xE3E DUP3 DUP3 PUSH2 0xD2E JUMP JUMPDEST SWAP2 POP POP DUP1 SWAP2 POP POP SWAP3 SWAP2 POP POP JUMP JUMPDEST PUSH1 0x0 PUSH1 0x20 DUP3 ADD SWAP1 POP DUP2 DUP2 SUB PUSH1 0x0 DUP4 ADD MSTORE PUSH2 0xE65 DUP2 DUP5 PUSH2 0xD8C JUMP JUMPDEST SWAP1 POP SWAP3 SWAP2 POP POP JUMP JUMPDEST PUSH32 0x455243313136373A20637265617465206661696C656400000000000000000000 PUSH1 0x0 DUP3 ADD MSTORE POP JUMP JUMPDEST PUSH1 0x0 PUSH2 0xEA3 PUSH1 0x16 DUP4 PUSH2 0xACE JUMP JUMPDEST SWAP2 POP PUSH2 0xEAE DUP3 PUSH2 0xE6D JUMP JUMPDEST PUSH1 0x20 DUP3 ADD SWAP1 POP SWAP2 SWAP1 POP JUMP JUMPDEST PUSH1 0x0 PUSH1 0x20 DUP3 ADD SWAP1 POP DUP2 DUP2 SUB PUSH1 0x0 DUP4 ADD MSTORE PUSH2 0xED2 DUP2 PUSH2 0xE96 JUMP JUMPDEST SWAP1 POP SWAP2 SWAP1 POP JUMP JUMPDEST PUSH32 0x4E487B7100000000000000000000000000000000000000000000000000000000 PUSH1 0x0 MSTORE PUSH1 0x22 PUSH1 0x4 MSTORE PUSH1 0x24 PUSH1 0x0 REVERT JUMPDEST PUSH1 0x0 PUSH1 0x2 DUP3 DIV SWAP1 POP PUSH1 0x1 DUP3 AND DUP1 PUSH2 0xF20 JUMPI PUSH1 0x7F DUP3 AND SWAP2 POP JUMPDEST PUSH1 0x20 DUP3 LT DUP2 EQ ISZERO PUSH2 0xF34 JUMPI PUSH2 0xF33 PUSH2 0xED9 JUMP JUMPDEST JUMPDEST POP SWAP2 SWAP1 POP JUMP INVALID LOG2 PUSH5 0x6970667358 0x22 SLT KECCAK256 0xF6 PUSH2 0x6C4F 0xDE NUMBER PUSH8 0x144A168E8D6B94C9 0xC0 MOD CREATE2 BASEFEE PUSH9 0x34E0D66B40914EB7C3 SWAP5 0xBB 0x22 PUSH5 0x736F6C6343 STOP ADDMOD MULMOD STOP CALLER "},"methodIdentifiers":{"createEvent(string,string,uint256[],uint256[],uint256[],uint256[])":"f6ac9361","placeBid(address,uint256,uint256)":"04717aca","updateMinBid(address,uint256,uint256)":"7df0bf95"}}}}}