{"contracts/Auction.sol":{"Auction":{"abi":[{"inputs":[{"internalType":"address","name":"_eventImplementation","type":"address"}],"stateMutability":"nonpayable","type":"constructor"},{"inputs":[],"name":"Auction__BidTooLow","type":"error"},{"inputs":[],"name":"Auction__NotEnoughFunds","type":"error"},{"inputs":[{"internalType":"uint256","name":"idsLength","type":"uint256"},{"internalType":"uint256","name":"suppliesLength","type":"uint256"}],"name":"Auction__TokenIdsDoNotMatchTokenSupplies","type":"error"},{"inputs":[],"name":"Auction__UnauthorizedCaller","type":"error"},{"anonymous":false,"inputs":[{"indexed":true,"internalType":"address","name":"eventAddress","type":"address"},{"indexed":true,"internalType":"string","name":"baseMetaDataURI","type":"string"},{"components":[{"internalType":"string","name":"name","type":"string"},{"internalType":"address","name":"organizer","type":"address"},{"internalType":"string","name":"baseMetadataURI","type":"string"},{"internalType":"uint256[]","name":"tokenIds","type":"uint256[]"},{"internalType":"uint256[]","name":"tokenSupplies","type":"uint256[]"},{"internalType":"uint256[]","name":"tokenStatus","type":"uint256[]"},{"internalType":"uint256[]","name":"minBids","type":"uint256[]"}],"indexed":false,"internalType":"struct Auction.Event","name":"event0","type":"tuple"}],"name":"EventListed","type":"event"},{"inputs":[{"internalType":"address","name":"_eventAddress","type":"address"},{"internalType":"uint256","name":"_tokenId","type":"uint256"},{"internalType":"uint256","name":"_amountOfTokens","type":"uint256"}],"name":"buyNow","outputs":[],"stateMutability":"nonpayable","type":"function"},{"inputs":[{"internalType":"string","name":"_name","type":"string"},{"internalType":"string","name":"_baseMetadataURI","type":"string"},{"internalType":"uint256[]","name":"_tokenIds","type":"uint256[]"},{"internalType":"uint256[]","name":"_tokenSupplies","type":"uint256[]"},{"internalType":"uint256[]","name":"_tokenStatus","type":"uint256[]"},{"internalType":"uint256[]","name":"_minBids","type":"uint256[]"}],"name":"createEvent","outputs":[],"stateMutability":"nonpayable","type":"function"},{"inputs":[],"name":"deleteAuction","outputs":[],"stateMutability":"nonpayable","type":"function"},{"inputs":[{"internalType":"address","name":"_eventAddress","type":"address"},{"internalType":"uint256","name":"_tokenId","type":"uint256"},{"internalType":"uint256","name":"_amount","type":"uint256"}],"name":"placeBid","outputs":[],"stateMutability":"nonpayable","type":"function"},{"inputs":[{"internalType":"address","name":"_eventAddress","type":"address"}],"name":"settleAuction","outputs":[],"stateMutability":"nonpayable","type":"function"},{"inputs":[],"name":"transferBalance","outputs":[],"stateMutability":"nonpayable","type":"function"},{"inputs":[{"internalType":"address","name":"_eventAddress","type":"address"},{"internalType":"uint256","name":"_tokenId","type":"uint256"},{"internalType":"uint256","name":"_newBid","type":"uint256"}],"name":"updateMinBid","outputs":[],"stateMutability":"nonpayable","type":"function"}],"evm":{"bytecode":{"linkReferences":{},"object":"60a06040523480156200001157600080fd5b5060405162001454380380620014548339818101604052810190620000379190620000dc565b8073ffffffffffffffffffffffffffffffffffffffff1660808173ffffffffffffffffffffffffffffffffffffffff1681525050506200010e565b600080fd5b600073ffffffffffffffffffffffffffffffffffffffff82169050919050565b6000620000a48262000077565b9050919050565b620000b68162000097565b8114620000c257600080fd5b50565b600081519050620000d681620000ab565b92915050565b600060208284031215620000f557620000f462000072565b5b60006200010584828501620000c5565b91505092915050565b60805161132a6200012a600039600061047e015261132a6000f3fe608060405234801561001057600080fd5b506004361061007d5760003560e01c80637df0bf951161005b5780637df0bf95146100c4578063c6eb7d4a146100e0578063df7ed279146100ea578063f6ac9361146101065761007d565b806304717aca146100825780633b4fb5471461009e57806366adeb8c146100ba575b600080fd5b61009c60048036038101906100979190610a65565b610122565b005b6100b860048036038101906100b39190610ab8565b610303565b005b6100c26103ca565b005b6100de60048036038101906100d99190610a65565b6103cc565b005b6100e8610426565b005b61010460048036038101906100ff9190610a65565b610428565b005b610120600480360381019061011b9190610cf3565b61042d565b005b600360008473ffffffffffffffffffffffffffffffffffffffff1673ffffffffffffffffffffffffffffffffffffffff1681526020019081526020016000206000838152602001908152602001600020548110156101ac576040517f95b79dad00000000000000000000000000000000000000000000000000000000815260040160405180910390fd5b600360008473ffffffffffffffffffffffffffffffffffffffff1673ffffffffffffffffffffffffffffffffffffffff1681526020019081526020016000206000838152602001908152602001600020543373ffffffffffffffffffffffffffffffffffffffff1631101561024d576040517fe315224600000000000000000000000000000000000000000000000000000000815260040160405180910390fd5b600260008473ffffffffffffffffffffffffffffffffffffffff1673ffffffffffffffffffffffffffffffffffffffff1681526020019081526020016000206000838152602001908152602001600020339080600181540180825580915050600190039060005260206000200160009091909190916101000a81548173ffffffffffffffffffffffffffffffffffffffff021916908373ffffffffffffffffffffffffffffffffffffffff160217905550505050565b600160008273ffffffffffffffffffffffffffffffffffffffff1673ffffffffffffffffffffffffffffffffffffffff16815260200190815260200160002060009054906101000a900473ffffffffffffffffffffffffffffffffffffffff1673ffffffffffffffffffffffffffffffffffffffff163373ffffffffffffffffffffffffffffffffffffffff16146103c7576040517f1e37ef0200000000000000000000000000000000000000000000000000000000815260040160405180910390fd5b50565b565b80600360008573ffffffffffffffffffffffffffffffffffffffff1673ffffffffffffffffffffffffffffffffffffffff168152602001908152602001600020600084815260200190815260200160002081905550505050565b565b505050565b825184511461047757835183516040517f604cd06900000000000000000000000000000000000000000000000000000000815260040161046e929190610e37565b60405180910390fd5b60006104a27f0000000000000000000000000000000000000000000000000000000000000000610812565b90508073ffffffffffffffffffffffffffffffffffffffff16634571e3a63330896040518463ffffffff1660e01b81526004016104e193929190610ef7565b600060405180830381600087803b1580156104fb57600080fd5b505af115801561050f573d6000803e3d6000fd5b5050505060006040518060e001604052808981526020013073ffffffffffffffffffffffffffffffffffffffff168152602001888152602001878152602001868152602001858152602001848152509050806000808473ffffffffffffffffffffffffffffffffffffffff1673ffffffffffffffffffffffffffffffffffffffff16815260200190815260200160002060008201518160000190805190602001906105bb9291906108cd565b5060208201518160010160006101000a81548173ffffffffffffffffffffffffffffffffffffffff021916908373ffffffffffffffffffffffffffffffffffffffff160217905550604082015181600201908051906020019061061f9291906108cd565b50606082015181600301908051906020019061063c929190610953565b506080820151816004019080519060200190610659929190610953565b5060a0820151816005019080519060200190610676929190610953565b5060c0820151816006019080519060200190610693929190610953565b5090505033600160008473ffffffffffffffffffffffffffffffffffffffff1673ffffffffffffffffffffffffffffffffffffffff16815260200190815260200160002060006101000a81548173ffffffffffffffffffffffffffffffffffffffff021916908373ffffffffffffffffffffffffffffffffffffffff16021790555060005b86518110156107a35783818151811061073457610733610f35565b5b6020026020010151600360008573ffffffffffffffffffffffffffffffffffffffff1673ffffffffffffffffffffffffffffffffffffffff168152602001908152602001600020600083815260200190815260200160002081905550808061079b90610f93565b915050610718565b50866040516107b29190611018565b60405180910390208273ffffffffffffffffffffffffffffffffffffffff167f453e81195773858555ccc0789dabe88873f10681c642e18bac04a531667ef5a8836040516108009190611205565b60405180910390a35050505050505050565b6000763d602d80600a3d3981f3363d3d373d3d3d363d730000008260601b60e81c176000526e5af43d82803e903d91602b57fd5bf38260781b17602052603760096000f09050600073ffffffffffffffffffffffffffffffffffffffff168173ffffffffffffffffffffffffffffffffffffffff1614156108c8576040517f08c379a00000000000000000000000000000000000000000000000000000000081526004016108bf90611273565b60405180910390fd5b919050565b8280546108d9906112c2565b90600052602060002090601f0160209004810192826108fb5760008555610942565b82601f1061091457805160ff1916838001178555610942565b82800160010185558215610942579182015b82811115610941578251825591602001919060010190610926565b5b50905061094f91906109a0565b5090565b82805482825590600052602060002090810192821561098f579160200282015b8281111561098e578251825591602001919060010190610973565b5b50905061099c91906109a0565b5090565b5b808211156109b95760008160009055506001016109a1565b5090565b6000604051905090565b600080fd5b600080fd5b600073ffffffffffffffffffffffffffffffffffffffff82169050919050565b60006109fc826109d1565b9050919050565b610a0c816109f1565b8114610a1757600080fd5b50565b600081359050610a2981610a03565b92915050565b6000819050919050565b610a4281610a2f565b8114610a4d57600080fd5b50565b600081359050610a5f81610a39565b92915050565b600080600060608486031215610a7e57610a7d6109c7565b5b6000610a8c86828701610a1a565b9350506020610a9d86828701610a50565b9250506040610aae86828701610a50565b9150509250925092565b600060208284031215610ace57610acd6109c7565b5b6000610adc84828501610a1a565b91505092915050565b600080fd5b600080fd5b6000601f19601f8301169050919050565b7f4e487b7100000000000000000000000000000000000000000000000000000000600052604160045260246000fd5b610b3882610aef565b810181811067ffffffffffffffff82111715610b5757610b56610b00565b5b80604052505050565b6000610b6a6109bd565b9050610b768282610b2f565b919050565b600067ffffffffffffffff821115610b9657610b95610b00565b5b610b9f82610aef565b9050602081019050919050565b82818337600083830152505050565b6000610bce610bc984610b7b565b610b60565b905082815260208101848484011115610bea57610be9610aea565b5b610bf5848285610bac565b509392505050565b600082601f830112610c1257610c11610ae5565b5b8135610c22848260208601610bbb565b91505092915050565b600067ffffffffffffffff821115610c4657610c45610b00565b5b602082029050602081019050919050565b600080fd5b6000610c6f610c6a84610c2b565b610b60565b90508083825260208201905060208402830185811115610c9257610c91610c57565b5b835b81811015610cbb5780610ca78882610a50565b845260208401935050602081019050610c94565b5050509392505050565b600082601f830112610cda57610cd9610ae5565b5b8135610cea848260208601610c5c565b91505092915050565b60008060008060008060c08789031215610d1057610d0f6109c7565b5b600087013567ffffffffffffffff811115610d2e57610d2d6109cc565b5b610d3a89828a01610bfd565b965050602087013567ffffffffffffffff811115610d5b57610d5a6109cc565b5b610d6789828a01610bfd565b955050604087013567ffffffffffffffff811115610d8857610d876109cc565b5b610d9489828a01610cc5565b945050606087013567ffffffffffffffff811115610db557610db46109cc565b5b610dc189828a01610cc5565b935050608087013567ffffffffffffffff811115610de257610de16109cc565b5b610dee89828a01610cc5565b92505060a087013567ffffffffffffffff811115610e0f57610e0e6109cc565b5b610e1b89828a01610cc5565b9150509295509295509295565b610e3181610a2f565b82525050565b6000604082019050610e4c6000830185610e28565b610e596020830184610e28565b9392505050565b610e69816109f1565b82525050565b600081519050919050565b600082825260208201905092915050565b60005b83811015610ea9578082015181840152602081019050610e8e565b83811115610eb8576000848401525b50505050565b6000610ec982610e6f565b610ed38185610e7a565b9350610ee3818560208601610e8b565b610eec81610aef565b840191505092915050565b6000606082019050610f0c6000830186610e60565b610f196020830185610e60565b8181036040830152610f2b8184610ebe565b9050949350505050565b7f4e487b7100000000000000000000000000000000000000000000000000000000600052603260045260246000fd5b7f4e487b7100000000000000000000000000000000000000000000000000000000600052601160045260246000fd5b6000610f9e82610a2f565b91507fffffffffffffffffffffffffffffffffffffffffffffffffffffffffffffffff821415610fd157610fd0610f64565b5b600182019050919050565b600081905092915050565b6000610ff282610e6f565b610ffc8185610fdc565b935061100c818560208601610e8b565b80840191505092915050565b60006110248284610fe7565b915081905092915050565b600082825260208201905092915050565b600061104b82610e6f565b611055818561102f565b9350611065818560208601610e8b565b61106e81610aef565b840191505092915050565b611082816109f1565b82525050565b600081519050919050565b600082825260208201905092915050565b6000819050602082019050919050565b6110bd81610a2f565b82525050565b60006110cf83836110b4565b60208301905092915050565b6000602082019050919050565b60006110f382611088565b6110fd8185611093565b9350611108836110a4565b8060005b8381101561113957815161112088826110c3565b975061112b836110db565b92505060018101905061110c565b5085935050505092915050565b600060e08301600083015184820360008601526111638282611040565b91505060208301516111786020860182611079565b50604083015184820360408601526111908282611040565b915050606083015184820360608601526111aa82826110e8565b915050608083015184820360808601526111c482826110e8565b91505060a083015184820360a08601526111de82826110e8565b91505060c083015184820360c08601526111f882826110e8565b9150508091505092915050565b6000602082019050818103600083015261121f8184611146565b905092915050565b7f455243313136373a20637265617465206661696c656400000000000000000000600082015250565b600061125d601683610e7a565b915061126882611227565b602082019050919050565b6000602082019050818103600083015261128c81611250565b9050919050565b7f4e487b7100000000000000000000000000000000000000000000000000000000600052602260045260246000fd5b600060028204905060018216806112da57607f821691505b602082108114156112ee576112ed611293565b5b5091905056fea2646970667358221220cf0c72e06d3d6f12f06a1f0a84d6a31f02d91529d4bf393c6ac74998ef10887664736f6c63430008090033","opcodes":"PUSH1 0xA0 PUSH1 0x40 MSTORE CALLVALUE DUP1 ISZERO PUSH3 0x11 JUMPI PUSH1 0x0 DUP1 REVERT JUMPDEST POP PUSH1 0x40 MLOAD PUSH3 0x1454 CODESIZE SUB DUP1 PUSH3 0x1454 DUP4 CODECOPY DUP2 DUP2 ADD PUSH1 0x40 MSTORE DUP2 ADD SWAP1 PUSH3 0x37 SWAP2 SWAP1 PUSH3 0xDC JUMP JUMPDEST DUP1 PUSH20 0xFFFFFFFFFFFFFFFFFFFFFFFFFFFFFFFFFFFFFFFF AND PUSH1 0x80 DUP2 PUSH20 0xFFFFFFFFFFFFFFFFFFFFFFFFFFFFFFFFFFFFFFFF AND DUP2 MSTORE POP POP POP PUSH3 0x10E JUMP JUMPDEST PUSH1 0x0 DUP1 REVERT JUMPDEST PUSH1 0x0 PUSH20 0xFFFFFFFFFFFFFFFFFFFFFFFFFFFFFFFFFFFFFFFF DUP3 AND SWAP1 POP SWAP2 SWAP1 POP JUMP JUMPDEST PUSH1 0x0 PUSH3 0xA4 DUP3 PUSH3 0x77 JUMP JUMPDEST SWAP1 POP SWAP2 SWAP1 POP JUMP JUMPDEST PUSH3 0xB6 DUP2 PUSH3 0x97 JUMP JUMPDEST DUP2 EQ PUSH3 0xC2 JUMPI PUSH1 0x0 DUP1 REVERT JUMPDEST POP JUMP JUMPDEST PUSH1 0x0 DUP2 MLOAD SWAP1 POP PUSH3 0xD6 DUP2 PUSH3 0xAB JUMP JUMPDEST SWAP3 SWAP2 POP POP JUMP JUMPDEST PUSH1 0x0 PUSH1 0x20 DUP3 DUP5 SUB SLT ISZERO PUSH3 0xF5 JUMPI PUSH3 0xF4 PUSH3 0x72 JUMP JUMPDEST JUMPDEST PUSH1 0x0 PUSH3 0x105 DUP5 DUP3 DUP6 ADD PUSH3 0xC5 JUMP JUMPDEST SWAP2 POP POP SWAP3 SWAP2 POP POP JUMP JUMPDEST PUSH1 0x80 MLOAD PUSH2 0x132A PUSH3 0x12A PUSH1 0x0 CODECOPY PUSH1 0x0 PUSH2 0x47E ADD MSTORE PUSH2 0x132A PUSH1 0x0 RETURN INVALID PUSH1 0x80 PUSH1 0x40 MSTORE CALLVALUE DUP1 ISZERO PUSH2 0x10 JUMPI PUSH1 0x0 DUP1 REVERT JUMPDEST POP PUSH1 0x4 CALLDATASIZE LT PUSH2 0x7D JUMPI PUSH1 0x0 CALLDATALOAD PUSH1 0xE0 SHR DUP1 PUSH4 0x7DF0BF95 GT PUSH2 0x5B JUMPI DUP1 PUSH4 0x7DF0BF95 EQ PUSH2 0xC4 JUMPI DUP1 PUSH4 0xC6EB7D4A EQ PUSH2 0xE0 JUMPI DUP1 PUSH4 0xDF7ED279 EQ PUSH2 0xEA JUMPI DUP1 PUSH4 0xF6AC9361 EQ PUSH2 0x106 JUMPI PUSH2 0x7D JUMP JUMPDEST DUP1 PUSH4 0x4717ACA EQ PUSH2 0x82 JUMPI DUP1 PUSH4 0x3B4FB547 EQ PUSH2 0x9E JUMPI DUP1 PUSH4 0x66ADEB8C EQ PUSH2 0xBA JUMPI JUMPDEST PUSH1 0x0 DUP1 REVERT JUMPDEST PUSH2 0x9C PUSH1 0x4 DUP1 CALLDATASIZE SUB DUP2 ADD SWAP1 PUSH2 0x97 SWAP2 SWAP1 PUSH2 0xA65 JUMP JUMPDEST PUSH2 0x122 JUMP JUMPDEST STOP JUMPDEST PUSH2 0xB8 PUSH1 0x4 DUP1 CALLDATASIZE SUB DUP2 ADD SWAP1 PUSH2 0xB3 SWAP2 SWAP1 PUSH2 0xAB8 JUMP JUMPDEST PUSH2 0x303 JUMP JUMPDEST STOP JUMPDEST PUSH2 0xC2 PUSH2 0x3CA JUMP JUMPDEST STOP JUMPDEST PUSH2 0xDE PUSH1 0x4 DUP1 CALLDATASIZE SUB DUP2 ADD SWAP1 PUSH2 0xD9 SWAP2 SWAP1 PUSH2 0xA65 JUMP JUMPDEST PUSH2 0x3CC JUMP JUMPDEST STOP JUMPDEST PUSH2 0xE8 PUSH2 0x426 JUMP JUMPDEST STOP JUMPDEST PUSH2 0x104 PUSH1 0x4 DUP1 CALLDATASIZE SUB DUP2 ADD SWAP1 PUSH2 0xFF SWAP2 SWAP1 PUSH2 0xA65 JUMP JUMPDEST PUSH2 0x428 JUMP JUMPDEST STOP JUMPDEST PUSH2 0x120 PUSH1 0x4 DUP1 CALLDATASIZE SUB DUP2 ADD SWAP1 PUSH2 0x11B SWAP2 SWAP1 PUSH2 0xCF3 JUMP JUMPDEST PUSH2 0x42D JUMP JUMPDEST STOP JUMPDEST PUSH1 0x3 PUSH1 0x0 DUP5 PUSH20 0xFFFFFFFFFFFFFFFFFFFFFFFFFFFFFFFFFFFFFFFF AND PUSH20 0xFFFFFFFFFFFFFFFFFFFFFFFFFFFFFFFFFFFFFFFF AND DUP2 MSTORE PUSH1 0x20 ADD SWAP1 DUP2 MSTORE PUSH1 0x20 ADD PUSH1 0x0 KECCAK256 PUSH1 0x0 DUP4 DUP2 MSTORE PUSH1 0x20 ADD SWAP1 DUP2 MSTORE PUSH1 0x20 ADD PUSH1 0x0 KECCAK256 SLOAD DUP2 LT ISZERO PUSH2 0x1AC JUMPI PUSH1 0x40 MLOAD PUSH32 0x95B79DAD00000000000000000000000000000000000000000000000000000000 DUP2 MSTORE PUSH1 0x4 ADD PUSH1 0x40 MLOAD DUP1 SWAP2 SUB SWAP1 REVERT JUMPDEST PUSH1 0x3 PUSH1 0x0 DUP5 PUSH20 0xFFFFFFFFFFFFFFFFFFFFFFFFFFFFFFFFFFFFFFFF AND PUSH20 0xFFFFFFFFFFFFFFFFFFFFFFFFFFFFFFFFFFFFFFFF AND DUP2 MSTORE PUSH1 0x20 ADD SWAP1 DUP2 MSTORE PUSH1 0x20 ADD PUSH1 0x0 KECCAK256 PUSH1 0x0 DUP4 DUP2 MSTORE PUSH1 0x20 ADD SWAP1 DUP2 MSTORE PUSH1 0x20 ADD PUSH1 0x0 KECCAK256 SLOAD CALLER PUSH20 0xFFFFFFFFFFFFFFFFFFFFFFFFFFFFFFFFFFFFFFFF AND BALANCE LT ISZERO PUSH2 0x24D JUMPI PUSH1 0x40 MLOAD PUSH32 0xE315224600000000000000000000000000000000000000000000000000000000 DUP2 MSTORE PUSH1 0x4 ADD PUSH1 0x40 MLOAD DUP1 SWAP2 SUB SWAP1 REVERT JUMPDEST PUSH1 0x2 PUSH1 0x0 DUP5 PUSH20 0xFFFFFFFFFFFFFFFFFFFFFFFFFFFFFFFFFFFFFFFF AND PUSH20 0xFFFFFFFFFFFFFFFFFFFFFFFFFFFFFFFFFFFFFFFF AND DUP2 MSTORE PUSH1 0x20 ADD SWAP1 DUP2 MSTORE PUSH1 0x20 ADD PUSH1 0x0 KECCAK256 PUSH1 0x0 DUP4 DUP2 MSTORE PUSH1 0x20 ADD SWAP1 DUP2 MSTORE PUSH1 0x20 ADD PUSH1 0x0 KECCAK256 CALLER SWAP1 DUP1 PUSH1 0x1 DUP2 SLOAD ADD DUP1 DUP3 SSTORE DUP1 SWAP2 POP POP PUSH1 0x1 SWAP1 SUB SWAP1 PUSH1 0x0 MSTORE PUSH1 0x20 PUSH1 0x0 KECCAK256 ADD PUSH1 0x0 SWAP1 SWAP2 SWAP1 SWAP2 SWAP1 SWAP2 PUSH2 0x100 EXP DUP2 SLOAD DUP2 PUSH20 0xFFFFFFFFFFFFFFFFFFFFFFFFFFFFFFFFFFFFFFFF MUL NOT AND SWAP1 DUP4 PUSH20 0xFFFFFFFFFFFFFFFFFFFFFFFFFFFFFFFFFFFFFFFF AND MUL OR SWAP1 SSTORE POP POP POP POP JUMP JUMPDEST PUSH1 0x1 PUSH1 0x0 DUP3 PUSH20 0xFFFFFFFFFFFFFFFFFFFFFFFFFFFFFFFFFFFFFFFF AND PUSH20 0xFFFFFFFFFFFFFFFFFFFFFFFFFFFFFFFFFFFFFFFF AND DUP2 MSTORE PUSH1 0x20 ADD SWAP1 DUP2 MSTORE PUSH1 0x20 ADD PUSH1 0x0 KECCAK256 PUSH1 0x0 SWAP1 SLOAD SWAP1 PUSH2 0x100 EXP SWAP1 DIV PUSH20 0xFFFFFFFFFFFFFFFFFFFFFFFFFFFFFFFFFFFFFFFF AND PUSH20 0xFFFFFFFFFFFFFFFFFFFFFFFFFFFFFFFFFFFFFFFF AND CALLER PUSH20 0xFFFFFFFFFFFFFFFFFFFFFFFFFFFFFFFFFFFFFFFF AND EQ PUSH2 0x3C7 JUMPI PUSH1 0x40 MLOAD PUSH32 0x1E37EF0200000000000000000000000000000000000000000000000000000000 DUP2 MSTORE PUSH1 0x4 ADD PUSH1 0x40 MLOAD DUP1 SWAP2 SUB SWAP1 REVERT JUMPDEST POP JUMP JUMPDEST JUMP JUMPDEST DUP1 PUSH1 0x3 PUSH1 0x0 DUP6 PUSH20 0xFFFFFFFFFFFFFFFFFFFFFFFFFFFFFFFFFFFFFFFF AND PUSH20 0xFFFFFFFFFFFFFFFFFFFFFFFFFFFFFFFFFFFFFFFF AND DUP2 MSTORE PUSH1 0x20 ADD SWAP1 DUP2 MSTORE PUSH1 0x20 ADD PUSH1 0x0 KECCAK256 PUSH1 0x0 DUP5 DUP2 MSTORE PUSH1 0x20 ADD SWAP1 DUP2 MSTORE PUSH1 0x20 ADD PUSH1 0x0 KECCAK256 DUP2 SWAP1 SSTORE POP POP POP POP JUMP JUMPDEST JUMP JUMPDEST POP POP POP JUMP JUMPDEST DUP3 MLOAD DUP5 MLOAD EQ PUSH2 0x477 JUMPI DUP4 MLOAD DUP4 MLOAD PUSH1 0x40 MLOAD PUSH32 0x604CD06900000000000000000000000000000000000000000000000000000000 DUP2 MSTORE PUSH1 0x4 ADD PUSH2 0x46E SWAP3 SWAP2 SWAP1 PUSH2 0xE37 JUMP JUMPDEST PUSH1 0x40 MLOAD DUP1 SWAP2 SUB SWAP1 REVERT JUMPDEST PUSH1 0x0 PUSH2 0x4A2 PUSH32 0x0 PUSH2 0x812 JUMP JUMPDEST SWAP1 POP DUP1 PUSH20 0xFFFFFFFFFFFFFFFFFFFFFFFFFFFFFFFFFFFFFFFF AND PUSH4 0x4571E3A6 CALLER ADDRESS DUP10 PUSH1 0x40 MLOAD DUP5 PUSH4 0xFFFFFFFF AND PUSH1 0xE0 SHL DUP2 MSTORE PUSH1 0x4 ADD PUSH2 0x4E1 SWAP4 SWAP3 SWAP2 SWAP1 PUSH2 0xEF7 JUMP JUMPDEST PUSH1 0x0 PUSH1 0x40 MLOAD DUP1 DUP4 SUB DUP2 PUSH1 0x0 DUP8 DUP1 EXTCODESIZE ISZERO DUP1 ISZERO PUSH2 0x4FB JUMPI PUSH1 0x0 DUP1 REVERT JUMPDEST POP GAS CALL ISZERO DUP1 ISZERO PUSH2 0x50F JUMPI RETURNDATASIZE PUSH1 0x0 DUP1 RETURNDATACOPY RETURNDATASIZE PUSH1 0x0 REVERT JUMPDEST POP POP POP POP PUSH1 0x0 PUSH1 0x40 MLOAD DUP1 PUSH1 0xE0 ADD PUSH1 0x40 MSTORE DUP1 DUP10 DUP2 MSTORE PUSH1 0x20 ADD ADDRESS PUSH20 0xFFFFFFFFFFFFFFFFFFFFFFFFFFFFFFFFFFFFFFFF AND DUP2 MSTORE PUSH1 0x20 ADD DUP9 DUP2 MSTORE PUSH1 0x20 ADD DUP8 DUP2 MSTORE PUSH1 0x20 ADD DUP7 DUP2 MSTORE PUSH1 0x20 ADD DUP6 DUP2 MSTORE PUSH1 0x20 ADD DUP5 DUP2 MSTORE POP SWAP1 POP DUP1 PUSH1 0x0 DUP1 DUP5 PUSH20 0xFFFFFFFFFFFFFFFFFFFFFFFFFFFFFFFFFFFFFFFF AND PUSH20 0xFFFFFFFFFFFFFFFFFFFFFFFFFFFFFFFFFFFFFFFF AND DUP2 MSTORE PUSH1 0x20 ADD SWAP1 DUP2 MSTORE PUSH1 0x20 ADD PUSH1 0x0 KECCAK256 PUSH1 0x0 DUP3 ADD MLOAD DUP2 PUSH1 0x0 ADD SWAP1 DUP1 MLOAD SWAP1 PUSH1 0x20 ADD SWAP1 PUSH2 0x5BB SWAP3 SWAP2 SWAP1 PUSH2 0x8CD JUMP JUMPDEST POP PUSH1 0x20 DUP3 ADD MLOAD DUP2 PUSH1 0x1 ADD PUSH1 0x0 PUSH2 0x100 EXP DUP2 SLOAD DUP2 PUSH20 0xFFFFFFFFFFFFFFFFFFFFFFFFFFFFFFFFFFFFFFFF MUL NOT AND SWAP1 DUP4 PUSH20 0xFFFFFFFFFFFFFFFFFFFFFFFFFFFFFFFFFFFFFFFF AND MUL OR SWAP1 SSTORE POP PUSH1 0x40 DUP3 ADD MLOAD DUP2 PUSH1 0x2 ADD SWAP1 DUP1 MLOAD SWAP1 PUSH1 0x20 ADD SWAP1 PUSH2 0x61F SWAP3 SWAP2 SWAP1 PUSH2 0x8CD JUMP JUMPDEST POP PUSH1 0x60 DUP3 ADD MLOAD DUP2 PUSH1 0x3 ADD SWAP1 DUP1 MLOAD SWAP1 PUSH1 0x20 ADD SWAP1 PUSH2 0x63C SWAP3 SWAP2 SWAP1 PUSH2 0x953 JUMP JUMPDEST POP PUSH1 0x80 DUP3 ADD MLOAD DUP2 PUSH1 0x4 ADD SWAP1 DUP1 MLOAD SWAP1 PUSH1 0x20 ADD SWAP1 PUSH2 0x659 SWAP3 SWAP2 SWAP1 PUSH2 0x953 JUMP JUMPDEST POP PUSH1 0xA0 DUP3 ADD MLOAD DUP2 PUSH1 0x5 ADD SWAP1 DUP1 MLOAD SWAP1 PUSH1 0x20 ADD SWAP1 PUSH2 0x676 SWAP3 SWAP2 SWAP1 PUSH2 0x953 JUMP JUMPDEST POP PUSH1 0xC0 DUP3 ADD MLOAD DUP2 PUSH1 0x6 ADD SWAP1 DUP1 MLOAD SWAP1 PUSH1 0x20 ADD SWAP1 PUSH2 0x693 SWAP3 SWAP2 SWAP1 PUSH2 0x953 JUMP JUMPDEST POP SWAP1 POP POP CALLER PUSH1 0x1 PUSH1 0x0 DUP5 PUSH20 0xFFFFFFFFFFFFFFFFFFFFFFFFFFFFFFFFFFFFFFFF AND PUSH20 0xFFFFFFFFFFFFFFFFFFFFFFFFFFFFFFFFFFFFFFFF AND DUP2 MSTORE PUSH1 0x20 ADD SWAP1 DUP2 MSTORE PUSH1 0x20 ADD PUSH1 0x0 KECCAK256 PUSH1 0x0 PUSH2 0x100 EXP DUP2 SLOAD DUP2 PUSH20 0xFFFFFFFFFFFFFFFFFFFFFFFFFFFFFFFFFFFFFFFF MUL NOT AND SWAP1 DUP4 PUSH20 0xFFFFFFFFFFFFFFFFFFFFFFFFFFFFFFFFFFFFFFFF AND MUL OR SWAP1 SSTORE POP PUSH1 0x0 JUMPDEST DUP7 MLOAD DUP2 LT ISZERO PUSH2 0x7A3 JUMPI DUP4 DUP2 DUP2 MLOAD DUP2 LT PUSH2 0x734 JUMPI PUSH2 0x733 PUSH2 0xF35 JUMP JUMPDEST JUMPDEST PUSH1 0x20 MUL PUSH1 0x20 ADD ADD MLOAD PUSH1 0x3 PUSH1 0x0 DUP6 PUSH20 0xFFFFFFFFFFFFFFFFFFFFFFFFFFFFFFFFFFFFFFFF AND PUSH20 0xFFFFFFFFFFFFFFFFFFFFFFFFFFFFFFFFFFFFFFFF AND DUP2 MSTORE PUSH1 0x20 ADD SWAP1 DUP2 MSTORE PUSH1 0x20 ADD PUSH1 0x0 KECCAK256 PUSH1 0x0 DUP4 DUP2 MSTORE PUSH1 0x20 ADD SWAP1 DUP2 MSTORE PUSH1 0x20 ADD PUSH1 0x0 KECCAK256 DUP2 SWAP1 SSTORE POP DUP1 DUP1 PUSH2 0x79B SWAP1 PUSH2 0xF93 JUMP JUMPDEST SWAP2 POP POP PUSH2 0x718 JUMP JUMPDEST POP DUP7 PUSH1 0x40 MLOAD PUSH2 0x7B2 SWAP2 SWAP1 PUSH2 0x1018 JUMP JUMPDEST PUSH1 0x40 MLOAD DUP1 SWAP2 SUB SWAP1 KECCAK256 DUP3 PUSH20 0xFFFFFFFFFFFFFFFFFFFFFFFFFFFFFFFFFFFFFFFF AND PUSH32 0x453E81195773858555CCC0789DABE88873F10681C642E18BAC04A531667EF5A8 DUP4 PUSH1 0x40 MLOAD PUSH2 0x800 SWAP2 SWAP1 PUSH2 0x1205 JUMP JUMPDEST PUSH1 0x40 MLOAD DUP1 SWAP2 SUB SWAP1 LOG3 POP POP POP POP POP POP POP POP JUMP JUMPDEST PUSH1 0x0 PUSH23 0x3D602D80600A3D3981F3363D3D373D3D3D363D73000000 DUP3 PUSH1 0x60 SHL PUSH1 0xE8 SHR OR PUSH1 0x0 MSTORE PUSH15 0x5AF43D82803E903D91602B57FD5BF3 DUP3 PUSH1 0x78 SHL OR PUSH1 0x20 MSTORE PUSH1 0x37 PUSH1 0x9 PUSH1 0x0 CREATE SWAP1 POP PUSH1 0x0 PUSH20 0xFFFFFFFFFFFFFFFFFFFFFFFFFFFFFFFFFFFFFFFF AND DUP2 PUSH20 0xFFFFFFFFFFFFFFFFFFFFFFFFFFFFFFFFFFFFFFFF AND EQ ISZERO PUSH2 0x8C8 JUMPI PUSH1 0x40 MLOAD PUSH32 0x8C379A000000000000000000000000000000000000000000000000000000000 DUP2 MSTORE PUSH1 0x4 ADD PUSH2 0x8BF SWAP1 PUSH2 0x1273 JUMP JUMPDEST PUSH1 0x40 MLOAD DUP1 SWAP2 SUB SWAP1 REVERT JUMPDEST SWAP2 SWAP1 POP JUMP JUMPDEST DUP3 DUP1 SLOAD PUSH2 0x8D9 SWAP1 PUSH2 0x12C2 JUMP JUMPDEST SWAP1 PUSH1 0x0 MSTORE PUSH1 0x20 PUSH1 0x0 KECCAK256 SWAP1 PUSH1 0x1F ADD PUSH1 0x20 SWAP1 DIV DUP2 ADD SWAP3 DUP3 PUSH2 0x8FB JUMPI PUSH1 0x0 DUP6 SSTORE PUSH2 0x942 JUMP JUMPDEST DUP3 PUSH1 0x1F LT PUSH2 0x914 JUMPI DUP1 MLOAD PUSH1 0xFF NOT AND DUP4 DUP1 ADD OR DUP6 SSTORE PUSH2 0x942 JUMP JUMPDEST DUP3 DUP1 ADD PUSH1 0x1 ADD DUP6 SSTORE DUP3 ISZERO PUSH2 0x942 JUMPI SWAP2 DUP3 ADD JUMPDEST DUP3 DUP2 GT ISZERO PUSH2 0x941 JUMPI DUP3 MLOAD DUP3 SSTORE SWAP2 PUSH1 0x20 ADD SWAP2 SWAP1 PUSH1 0x1 ADD SWAP1 PUSH2 0x926 JUMP JUMPDEST JUMPDEST POP SWAP1 POP PUSH2 0x94F SWAP2 SWAP1 PUSH2 0x9A0 JUMP JUMPDEST POP SWAP1 JUMP JUMPDEST DUP3 DUP1 SLOAD DUP3 DUP3 SSTORE SWAP1 PUSH1 0x0 MSTORE PUSH1 0x20 PUSH1 0x0 KECCAK256 SWAP1 DUP2 ADD SWAP3 DUP3 ISZERO PUSH2 0x98F JUMPI SWAP2 PUSH1 0x20 MUL DUP3 ADD JUMPDEST DUP3 DUP2 GT ISZERO PUSH2 0x98E JUMPI DUP3 MLOAD DUP3 SSTORE SWAP2 PUSH1 0x20 ADD SWAP2 SWAP1 PUSH1 0x1 ADD SWAP1 PUSH2 0x973 JUMP JUMPDEST JUMPDEST POP SWAP1 POP PUSH2 0x99C SWAP2 SWAP1 PUSH2 0x9A0 JUMP JUMPDEST POP SWAP1 JUMP JUMPDEST JUMPDEST DUP1 DUP3 GT ISZERO PUSH2 0x9B9 JUMPI PUSH1 0x0 DUP2 PUSH1 0x0 SWAP1 SSTORE POP PUSH1 0x1 ADD PUSH2 0x9A1 JUMP JUMPDEST POP SWAP1 JUMP JUMPDEST PUSH1 0x0 PUSH1 0x40 MLOAD SWAP1 POP SWAP1 JUMP JUMPDEST PUSH1 0x0 DUP1 REVERT JUMPDEST PUSH1 0x0 DUP1 REVERT JUMPDEST PUSH1 0x0 PUSH20 0xFFFFFFFFFFFFFFFFFFFFFFFFFFFFFFFFFFFFFFFF DUP3 AND SWAP1 POP SWAP2 SWAP1 POP JUMP JUMPDEST PUSH1 0x0 PUSH2 0x9FC DUP3 PUSH2 0x9D1 JUMP JUMPDEST SWAP1 POP SWAP2 SWAP1 POP JUMP JUMPDEST PUSH2 0xA0C DUP2 PUSH2 0x9F1 JUMP JUMPDEST DUP2 EQ PUSH2 0xA17 JUMPI PUSH1 0x0 DUP1 REVERT JUMPDEST POP JUMP JUMPDEST PUSH1 0x0 DUP2 CALLDATALOAD SWAP1 POP PUSH2 0xA29 DUP2 PUSH2 0xA03 JUMP JUMPDEST SWAP3 SWAP2 POP POP JUMP JUMPDEST PUSH1 0x0 DUP2 SWAP1 POP SWAP2 SWAP1 POP JUMP JUMPDEST PUSH2 0xA42 DUP2 PUSH2 0xA2F JUMP JUMPDEST DUP2 EQ PUSH2 0xA4D JUMPI PUSH1 0x0 DUP1 REVERT JUMPDEST POP JUMP JUMPDEST PUSH1 0x0 DUP2 CALLDATALOAD SWAP1 POP PUSH2 0xA5F DUP2 PUSH2 0xA39 JUMP JUMPDEST SWAP3 SWAP2 POP POP JUMP JUMPDEST PUSH1 0x0 DUP1 PUSH1 0x0 PUSH1 0x60 DUP5 DUP7 SUB SLT ISZERO PUSH2 0xA7E JUMPI PUSH2 0xA7D PUSH2 0x9C7 JUMP JUMPDEST JUMPDEST PUSH1 0x0 PUSH2 0xA8C DUP7 DUP3 DUP8 ADD PUSH2 0xA1A JUMP JUMPDEST SWAP4 POP POP PUSH1 0x20 PUSH2 0xA9D DUP7 DUP3 DUP8 ADD PUSH2 0xA50 JUMP JUMPDEST SWAP3 POP POP PUSH1 0x40 PUSH2 0xAAE DUP7 DUP3 DUP8 ADD PUSH2 0xA50 JUMP JUMPDEST SWAP2 POP POP SWAP3 POP SWAP3 POP SWAP3 JUMP JUMPDEST PUSH1 0x0 PUSH1 0x20 DUP3 DUP5 SUB SLT ISZERO PUSH2 0xACE JUMPI PUSH2 0xACD PUSH2 0x9C7 JUMP JUMPDEST JUMPDEST PUSH1 0x0 PUSH2 0xADC DUP5 DUP3 DUP6 ADD PUSH2 0xA1A JUMP JUMPDEST SWAP2 POP POP SWAP3 SWAP2 POP POP JUMP JUMPDEST PUSH1 0x0 DUP1 REVERT JUMPDEST PUSH1 0x0 DUP1 REVERT JUMPDEST PUSH1 0x0 PUSH1 0x1F NOT PUSH1 0x1F DUP4 ADD AND SWAP1 POP SWAP2 SWAP1 POP JUMP JUMPDEST PUSH32 0x4E487B7100000000000000000000000000000000000000000000000000000000 PUSH1 0x0 MSTORE PUSH1 0x41 PUSH1 0x4 MSTORE PUSH1 0x24 PUSH1 0x0 REVERT JUMPDEST PUSH2 0xB38 DUP3 PUSH2 0xAEF JUMP JUMPDEST DUP2 ADD DUP2 DUP2 LT PUSH8 0xFFFFFFFFFFFFFFFF DUP3 GT OR ISZERO PUSH2 0xB57 JUMPI PUSH2 0xB56 PUSH2 0xB00 JUMP JUMPDEST JUMPDEST DUP1 PUSH1 0x40 MSTORE POP POP POP JUMP JUMPDEST PUSH1 0x0 PUSH2 0xB6A PUSH2 0x9BD JUMP JUMPDEST SWAP1 POP PUSH2 0xB76 DUP3 DUP3 PUSH2 0xB2F JUMP JUMPDEST SWAP2 SWAP1 POP JUMP JUMPDEST PUSH1 0x0 PUSH8 0xFFFFFFFFFFFFFFFF DUP3 GT ISZERO PUSH2 0xB96 JUMPI PUSH2 0xB95 PUSH2 0xB00 JUMP JUMPDEST JUMPDEST PUSH2 0xB9F DUP3 PUSH2 0xAEF JUMP JUMPDEST SWAP1 POP PUSH1 0x20 DUP2 ADD SWAP1 POP SWAP2 SWAP1 POP JUMP JUMPDEST DUP3 DUP2 DUP4 CALLDATACOPY PUSH1 0x0 DUP4 DUP4 ADD MSTORE POP POP POP JUMP JUMPDEST PUSH1 0x0 PUSH2 0xBCE PUSH2 0xBC9 DUP5 PUSH2 0xB7B JUMP JUMPDEST PUSH2 0xB60 JUMP JUMPDEST SWAP1 POP DUP3 DUP2 MSTORE PUSH1 0x20 DUP2 ADD DUP5 DUP5 DUP5 ADD GT ISZERO PUSH2 0xBEA JUMPI PUSH2 0xBE9 PUSH2 0xAEA JUMP JUMPDEST JUMPDEST PUSH2 0xBF5 DUP5 DUP3 DUP6 PUSH2 0xBAC JUMP JUMPDEST POP SWAP4 SWAP3 POP POP POP JUMP JUMPDEST PUSH1 0x0 DUP3 PUSH1 0x1F DUP4 ADD SLT PUSH2 0xC12 JUMPI PUSH2 0xC11 PUSH2 0xAE5 JUMP JUMPDEST JUMPDEST DUP2 CALLDATALOAD PUSH2 0xC22 DUP5 DUP3 PUSH1 0x20 DUP7 ADD PUSH2 0xBBB JUMP JUMPDEST SWAP2 POP POP SWAP3 SWAP2 POP POP JUMP JUMPDEST PUSH1 0x0 PUSH8 0xFFFFFFFFFFFFFFFF DUP3 GT ISZERO PUSH2 0xC46 JUMPI PUSH2 0xC45 PUSH2 0xB00 JUMP JUMPDEST JUMPDEST PUSH1 0x20 DUP3 MUL SWAP1 POP PUSH1 0x20 DUP2 ADD SWAP1 POP SWAP2 SWAP1 POP JUMP JUMPDEST PUSH1 0x0 DUP1 REVERT JUMPDEST PUSH1 0x0 PUSH2 0xC6F PUSH2 0xC6A DUP5 PUSH2 0xC2B JUMP JUMPDEST PUSH2 0xB60 JUMP JUMPDEST SWAP1 POP DUP1 DUP4 DUP3 MSTORE PUSH1 0x20 DUP3 ADD SWAP1 POP PUSH1 0x20 DUP5 MUL DUP4 ADD DUP6 DUP2 GT ISZERO PUSH2 0xC92 JUMPI PUSH2 0xC91 PUSH2 0xC57 JUMP JUMPDEST JUMPDEST DUP4 JUMPDEST DUP2 DUP2 LT ISZERO PUSH2 0xCBB JUMPI DUP1 PUSH2 0xCA7 DUP9 DUP3 PUSH2 0xA50 JUMP JUMPDEST DUP5 MSTORE PUSH1 0x20 DUP5 ADD SWAP4 POP POP PUSH1 0x20 DUP2 ADD SWAP1 POP PUSH2 0xC94 JUMP JUMPDEST POP POP POP SWAP4 SWAP3 POP POP POP JUMP JUMPDEST PUSH1 0x0 DUP3 PUSH1 0x1F DUP4 ADD SLT PUSH2 0xCDA JUMPI PUSH2 0xCD9 PUSH2 0xAE5 JUMP JUMPDEST JUMPDEST DUP2 CALLDATALOAD PUSH2 0xCEA DUP5 DUP3 PUSH1 0x20 DUP7 ADD PUSH2 0xC5C JUMP JUMPDEST SWAP2 POP POP SWAP3 SWAP2 POP POP JUMP JUMPDEST PUSH1 0x0 DUP1 PUSH1 0x0 DUP1 PUSH1 0x0 DUP1 PUSH1 0xC0 DUP8 DUP10 SUB SLT ISZERO PUSH2 0xD10 JUMPI PUSH2 0xD0F PUSH2 0x9C7 JUMP JUMPDEST JUMPDEST PUSH1 0x0 DUP8 ADD CALLDATALOAD PUSH8 0xFFFFFFFFFFFFFFFF DUP2 GT ISZERO PUSH2 0xD2E JUMPI PUSH2 0xD2D PUSH2 0x9CC JUMP JUMPDEST JUMPDEST PUSH2 0xD3A DUP10 DUP3 DUP11 ADD PUSH2 0xBFD JUMP JUMPDEST SWAP7 POP POP PUSH1 0x20 DUP8 ADD CALLDATALOAD PUSH8 0xFFFFFFFFFFFFFFFF DUP2 GT ISZERO PUSH2 0xD5B JUMPI PUSH2 0xD5A PUSH2 0x9CC JUMP JUMPDEST JUMPDEST PUSH2 0xD67 DUP10 DUP3 DUP11 ADD PUSH2 0xBFD JUMP JUMPDEST SWAP6 POP POP PUSH1 0x40 DUP8 ADD CALLDATALOAD PUSH8 0xFFFFFFFFFFFFFFFF DUP2 GT ISZERO PUSH2 0xD88 JUMPI PUSH2 0xD87 PUSH2 0x9CC JUMP JUMPDEST JUMPDEST PUSH2 0xD94 DUP10 DUP3 DUP11 ADD PUSH2 0xCC5 JUMP JUMPDEST SWAP5 POP POP PUSH1 0x60 DUP8 ADD CALLDATALOAD PUSH8 0xFFFFFFFFFFFFFFFF DUP2 GT ISZERO PUSH2 0xDB5 JUMPI PUSH2 0xDB4 PUSH2 0x9CC JUMP JUMPDEST JUMPDEST PUSH2 0xDC1 DUP10 DUP3 DUP11 ADD PUSH2 0xCC5 JUMP JUMPDEST SWAP4 POP POP PUSH1 0x80 DUP8 ADD CALLDATALOAD PUSH8 0xFFFFFFFFFFFFFFFF DUP2 GT ISZERO PUSH2 0xDE2 JUMPI PUSH2 0xDE1 PUSH2 0x9CC JUMP JUMPDEST JUMPDEST PUSH2 0xDEE DUP10 DUP3 DUP11 ADD PUSH2 0xCC5 JUMP JUMPDEST SWAP3 POP POP PUSH1 0xA0 DUP8 ADD CALLDATALOAD PUSH8 0xFFFFFFFFFFFFFFFF DUP2 GT ISZERO PUSH2 0xE0F JUMPI PUSH2 0xE0E PUSH2 0x9CC JUMP JUMPDEST JUMPDEST PUSH2 0xE1B DUP10 DUP3 DUP11 ADD PUSH2 0xCC5 JUMP JUMPDEST SWAP2 POP POP SWAP3 SWAP6 POP SWAP3 SWAP6 POP SWAP3 SWAP6 JUMP JUMPDEST PUSH2 0xE31 DUP2 PUSH2 0xA2F JUMP JUMPDEST DUP3 MSTORE POP POP JUMP JUMPDEST PUSH1 0x0 PUSH1 0x40 DUP3 ADD SWAP1 POP PUSH2 0xE4C PUSH1 0x0 DUP4 ADD DUP6 PUSH2 0xE28 JUMP JUMPDEST PUSH2 0xE59 PUSH1 0x20 DUP4 ADD DUP5 PUSH2 0xE28 JUMP JUMPDEST SWAP4 SWAP3 POP POP POP JUMP JUMPDEST PUSH2 0xE69 DUP2 PUSH2 0x9F1 JUMP JUMPDEST DUP3 MSTORE POP POP JUMP JUMPDEST PUSH1 0x0 DUP2 MLOAD SWAP1 POP SWAP2 SWAP1 POP JUMP JUMPDEST PUSH1 0x0 DUP3 DUP3 MSTORE PUSH1 0x20 DUP3 ADD SWAP1 POP SWAP3 SWAP2 POP POP JUMP JUMPDEST PUSH1 0x0 JUMPDEST DUP4 DUP2 LT ISZERO PUSH2 0xEA9 JUMPI DUP1 DUP3 ADD MLOAD DUP2 DUP5 ADD MSTORE PUSH1 0x20 DUP2 ADD SWAP1 POP PUSH2 0xE8E JUMP JUMPDEST DUP4 DUP2 GT ISZERO PUSH2 0xEB8 JUMPI PUSH1 0x0 DUP5 DUP5 ADD MSTORE JUMPDEST POP POP POP POP JUMP JUMPDEST PUSH1 0x0 PUSH2 0xEC9 DUP3 PUSH2 0xE6F JUMP JUMPDEST PUSH2 0xED3 DUP2 DUP6 PUSH2 0xE7A JUMP JUMPDEST SWAP4 POP PUSH2 0xEE3 DUP2 DUP6 PUSH1 0x20 DUP7 ADD PUSH2 0xE8B JUMP JUMPDEST PUSH2 0xEEC DUP2 PUSH2 0xAEF JUMP JUMPDEST DUP5 ADD SWAP2 POP POP SWAP3 SWAP2 POP POP JUMP JUMPDEST PUSH1 0x0 PUSH1 0x60 DUP3 ADD SWAP1 POP PUSH2 0xF0C PUSH1 0x0 DUP4 ADD DUP7 PUSH2 0xE60 JUMP JUMPDEST PUSH2 0xF19 PUSH1 0x20 DUP4 ADD DUP6 PUSH2 0xE60 JUMP JUMPDEST DUP2 DUP2 SUB PUSH1 0x40 DUP4 ADD MSTORE PUSH2 0xF2B DUP2 DUP5 PUSH2 0xEBE JUMP JUMPDEST SWAP1 POP SWAP5 SWAP4 POP POP POP POP JUMP JUMPDEST PUSH32 0x4E487B7100000000000000000000000000000000000000000000000000000000 PUSH1 0x0 MSTORE PUSH1 0x32 PUSH1 0x4 MSTORE PUSH1 0x24 PUSH1 0x0 REVERT JUMPDEST PUSH32 0x4E487B7100000000000000000000000000000000000000000000000000000000 PUSH1 0x0 MSTORE PUSH1 0x11 PUSH1 0x4 MSTORE PUSH1 0x24 PUSH1 0x0 REVERT JUMPDEST PUSH1 0x0 PUSH2 0xF9E DUP3 PUSH2 0xA2F JUMP JUMPDEST SWAP2 POP PUSH32 0xFFFFFFFFFFFFFFFFFFFFFFFFFFFFFFFFFFFFFFFFFFFFFFFFFFFFFFFFFFFFFFFF DUP3 EQ ISZERO PUSH2 0xFD1 JUMPI PUSH2 0xFD0 PUSH2 0xF64 JUMP JUMPDEST JUMPDEST PUSH1 0x1 DUP3 ADD SWAP1 POP SWAP2 SWAP1 POP JUMP JUMPDEST PUSH1 0x0 DUP2 SWAP1 POP SWAP3 SWAP2 POP POP JUMP JUMPDEST PUSH1 0x0 PUSH2 0xFF2 DUP3 PUSH2 0xE6F JUMP JUMPDEST PUSH2 0xFFC DUP2 DUP6 PUSH2 0xFDC JUMP JUMPDEST SWAP4 POP PUSH2 0x100C DUP2 DUP6 PUSH1 0x20 DUP7 ADD PUSH2 0xE8B JUMP JUMPDEST DUP1 DUP5 ADD SWAP2 POP POP SWAP3 SWAP2 POP POP JUMP JUMPDEST PUSH1 0x0 PUSH2 0x1024 DUP3 DUP5 PUSH2 0xFE7 JUMP JUMPDEST SWAP2 POP DUP2 SWAP1 POP SWAP3 SWAP2 POP POP JUMP JUMPDEST PUSH1 0x0 DUP3 DUP3 MSTORE PUSH1 0x20 DUP3 ADD SWAP1 POP SWAP3 SWAP2 POP POP JUMP JUMPDEST PUSH1 0x0 PUSH2 0x104B DUP3 PUSH2 0xE6F JUMP JUMPDEST PUSH2 0x1055 DUP2 DUP6 PUSH2 0x102F JUMP JUMPDEST SWAP4 POP PUSH2 0x1065 DUP2 DUP6 PUSH1 0x20 DUP7 ADD PUSH2 0xE8B JUMP JUMPDEST PUSH2 0x106E DUP2 PUSH2 0xAEF JUMP JUMPDEST DUP5 ADD SWAP2 POP POP SWAP3 SWAP2 POP POP JUMP JUMPDEST PUSH2 0x1082 DUP2 PUSH2 0x9F1 JUMP JUMPDEST DUP3 MSTORE POP POP JUMP JUMPDEST PUSH1 0x0 DUP2 MLOAD SWAP1 POP SWAP2 SWAP1 POP JUMP JUMPDEST PUSH1 0x0 DUP3 DUP3 MSTORE PUSH1 0x20 DUP3 ADD SWAP1 POP SWAP3 SWAP2 POP POP JUMP JUMPDEST PUSH1 0x0 DUP2 SWAP1 POP PUSH1 0x20 DUP3 ADD SWAP1 POP SWAP2 SWAP1 POP JUMP JUMPDEST PUSH2 0x10BD DUP2 PUSH2 0xA2F JUMP JUMPDEST DUP3 MSTORE POP POP JUMP JUMPDEST PUSH1 0x0 PUSH2 0x10CF DUP4 DUP4 PUSH2 0x10B4 JUMP JUMPDEST PUSH1 0x20 DUP4 ADD SWAP1 POP SWAP3 SWAP2 POP POP JUMP JUMPDEST PUSH1 0x0 PUSH1 0x20 DUP3 ADD SWAP1 POP SWAP2 SWAP1 POP JUMP JUMPDEST PUSH1 0x0 PUSH2 0x10F3 DUP3 PUSH2 0x1088 JUMP JUMPDEST PUSH2 0x10FD DUP2 DUP6 PUSH2 0x1093 JUMP JUMPDEST SWAP4 POP PUSH2 0x1108 DUP4 PUSH2 0x10A4 JUMP JUMPDEST DUP1 PUSH1 0x0 JUMPDEST DUP4 DUP2 LT ISZERO PUSH2 0x1139 JUMPI DUP2 MLOAD PUSH2 0x1120 DUP9 DUP3 PUSH2 0x10C3 JUMP JUMPDEST SWAP8 POP PUSH2 0x112B DUP4 PUSH2 0x10DB JUMP JUMPDEST SWAP3 POP POP PUSH1 0x1 DUP2 ADD SWAP1 POP PUSH2 0x110C JUMP JUMPDEST POP DUP6 SWAP4 POP POP POP POP SWAP3 SWAP2 POP POP JUMP JUMPDEST PUSH1 0x0 PUSH1 0xE0 DUP4 ADD PUSH1 0x0 DUP4 ADD MLOAD DUP5 DUP3 SUB PUSH1 0x0 DUP7 ADD MSTORE PUSH2 0x1163 DUP3 DUP3 PUSH2 0x1040 JUMP JUMPDEST SWAP2 POP POP PUSH1 0x20 DUP4 ADD MLOAD PUSH2 0x1178 PUSH1 0x20 DUP7 ADD DUP3 PUSH2 0x1079 JUMP JUMPDEST POP PUSH1 0x40 DUP4 ADD MLOAD DUP5 DUP3 SUB PUSH1 0x40 DUP7 ADD MSTORE PUSH2 0x1190 DUP3 DUP3 PUSH2 0x1040 JUMP JUMPDEST SWAP2 POP POP PUSH1 0x60 DUP4 ADD MLOAD DUP5 DUP3 SUB PUSH1 0x60 DUP7 ADD MSTORE PUSH2 0x11AA DUP3 DUP3 PUSH2 0x10E8 JUMP JUMPDEST SWAP2 POP POP PUSH1 0x80 DUP4 ADD MLOAD DUP5 DUP3 SUB PUSH1 0x80 DUP7 ADD MSTORE PUSH2 0x11C4 DUP3 DUP3 PUSH2 0x10E8 JUMP JUMPDEST SWAP2 POP POP PUSH1 0xA0 DUP4 ADD MLOAD DUP5 DUP3 SUB PUSH1 0xA0 DUP7 ADD MSTORE PUSH2 0x11DE DUP3 DUP3 PUSH2 0x10E8 JUMP JUMPDEST SWAP2 POP POP PUSH1 0xC0 DUP4 ADD MLOAD DUP5 DUP3 SUB PUSH1 0xC0 DUP7 ADD MSTORE PUSH2 0x11F8 DUP3 DUP3 PUSH2 0x10E8 JUMP JUMPDEST SWAP2 POP POP DUP1 SWAP2 POP POP SWAP3 SWAP2 POP POP JUMP JUMPDEST PUSH1 0x0 PUSH1 0x20 DUP3 ADD SWAP1 POP DUP2 DUP2 SUB PUSH1 0x0 DUP4 ADD MSTORE PUSH2 0x121F DUP2 DUP5 PUSH2 0x1146 JUMP JUMPDEST SWAP1 POP SWAP3 SWAP2 POP POP JUMP JUMPDEST PUSH32 0x455243313136373A20637265617465206661696C656400000000000000000000 PUSH1 0x0 DUP3 ADD MSTORE POP JUMP JUMPDEST PUSH1 0x0 PUSH2 0x125D PUSH1 0x16 DUP4 PUSH2 0xE7A JUMP JUMPDEST SWAP2 POP PUSH2 0x1268 DUP3 PUSH2 0x1227 JUMP JUMPDEST PUSH1 0x20 DUP3 ADD SWAP1 POP SWAP2 SWAP1 POP JUMP JUMPDEST PUSH1 0x0 PUSH1 0x20 DUP3 ADD SWAP1 POP DUP2 DUP2 SUB PUSH1 0x0 DUP4 ADD MSTORE PUSH2 0x128C DUP2 PUSH2 0x1250 JUMP JUMPDEST SWAP1 POP SWAP2 SWAP1 POP JUMP JUMPDEST PUSH32 0x4E487B7100000000000000000000000000000000000000000000000000000000 PUSH1 0x0 MSTORE PUSH1 0x22 PUSH1 0x4 MSTORE PUSH1 0x24 PUSH1 0x0 REVERT JUMPDEST PUSH1 0x0 PUSH1 0x2 DUP3 DIV SWAP1 POP PUSH1 0x1 DUP3 AND DUP1 PUSH2 0x12DA JUMPI PUSH1 0x7F DUP3 AND SWAP2 POP JUMPDEST PUSH1 0x20 DUP3 LT DUP2 EQ ISZERO PUSH2 0x12EE JUMPI PUSH2 0x12ED PUSH2 0x1293 JUMP JUMPDEST JUMPDEST POP SWAP2 SWAP1 POP JUMP INVALID LOG2 PUSH5 0x6970667358 0x22 SLT KECCAK256 0xCF 0xC PUSH19 0xE06D3D6F12F06A1F0A84D6A31F02D91529D4BF CODECOPY EXTCODECOPY PUSH11 0xC74998EF10887664736F6C PUSH4 0x43000809 STOP CALLER "},"methodIdentifiers":{"buyNow(address,uint256,uint256)":"df7ed279","createEvent(string,string,uint256[],uint256[],uint256[],uint256[])":"f6ac9361","deleteAuction()":"c6eb7d4a","placeBid(address,uint256,uint256)":"04717aca","settleAuction(address)":"3b4fb547","transferBalance()":"66adeb8c","updateMinBid(address,uint256,uint256)":"7df0bf95"}}}}}