{
  "_format": "hh-sol-artifact-1",
  "contractName": "Auction",
  "sourceName": "contracts/Auction.sol",
  "abi": [
    {
      "inputs": [
        {
          "internalType": "address",
          "name": "_eventImplementation",
          "type": "address"
        }
      ],
      "stateMutability": "nonpayable",
      "type": "constructor"
    },
    {
      "inputs": [],
      "name": "Auction__BidTooLow",
      "type": "error"
    },
    {
      "inputs": [],
      "name": "Auction__NotEnoughFunds",
      "type": "error"
    },
    {
      "inputs": [
        {
          "internalType": "uint256",
          "name": "idsLength",
          "type": "uint256"
        },
        {
          "internalType": "uint256",
          "name": "suppliesLength",
          "type": "uint256"
        }
      ],
      "name": "Auction__TokenIdsDoNotMatchTokenSupplies",
      "type": "error"
    },
    {
      "inputs": [],
      "name": "Auction__UnauthorizedCaller",
      "type": "error"
    },
    {
      "anonymous": false,
      "inputs": [
        {
          "indexed": true,
          "internalType": "address",
          "name": "eventAddress",
          "type": "address"
        },
        {
          "indexed": true,
          "internalType": "string",
          "name": "baseMetaDataURI",
          "type": "string"
        },
        {
          "components": [
            {
              "internalType": "string",
              "name": "name",
              "type": "string"
            },
            {
              "internalType": "address",
              "name": "organizer",
              "type": "address"
            },
            {
              "internalType": "string",
              "name": "baseMetadataURI",
              "type": "string"
            },
            {
              "internalType": "uint256[]",
              "name": "tokenIds",
              "type": "uint256[]"
            },
            {
              "internalType": "uint256[]",
              "name": "tokenSupplies",
              "type": "uint256[]"
            },
            {
              "internalType": "uint256[]",
              "name": "tokenStatus",
              "type": "uint256[]"
            },
            {
              "internalType": "uint256[]",
              "name": "minBids",
              "type": "uint256[]"
            }
          ],
          "indexed": false,
          "internalType": "struct Auction.Event",
          "name": "event0",
          "type": "tuple"
        }
      ],
      "name": "EventListed",
      "type": "event"
    },
    {
      "inputs": [
        {
          "internalType": "address",
          "name": "_eventAddress",
          "type": "address"
        },
        {
          "internalType": "uint256",
          "name": "_tokenId",
          "type": "uint256"
        },
        {
          "internalType": "uint256",
          "name": "_amountOfTokens",
          "type": "uint256"
        }
      ],
      "name": "buyNow",
      "outputs": [],
      "stateMutability": "nonpayable",
      "type": "function"
    },
    {
      "inputs": [
        {
          "internalType": "string",
          "name": "_name",
          "type": "string"
        },
        {
          "internalType": "string",
          "name": "_baseMetadataURI",
          "type": "string"
        },
        {
          "internalType": "uint256[]",
          "name": "_tokenIds",
          "type": "uint256[]"
        },
        {
          "internalType": "uint256[]",
          "name": "_tokenSupplies",
          "type": "uint256[]"
        },
        {
          "internalType": "uint256[]",
          "name": "_tokenStatus",
          "type": "uint256[]"
        },
        {
          "internalType": "uint256[]",
          "name": "_minBids",
          "type": "uint256[]"
        }
      ],
      "name": "createEvent",
      "outputs": [],
      "stateMutability": "nonpayable",
      "type": "function"
    },
    {
      "inputs": [],
      "name": "deleteAuction",
      "outputs": [],
      "stateMutability": "nonpayable",
      "type": "function"
    },
    {
      "inputs": [
        {
          "internalType": "address",
          "name": "_eventAddress",
          "type": "address"
        },
        {
          "internalType": "uint256",
          "name": "_tokenId",
          "type": "uint256"
        },
        {
          "internalType": "uint256",
          "name": "_amount",
          "type": "uint256"
        }
      ],
      "name": "placeBid",
      "outputs": [],
      "stateMutability": "nonpayable",
      "type": "function"
    },
    {
      "inputs": [
        {
          "internalType": "address",
          "name": "_eventAddress",
          "type": "address"
        }
      ],
      "name": "settleAuction",
      "outputs": [],
      "stateMutability": "nonpayable",
      "type": "function"
    },
    {
      "inputs": [],
      "name": "transferBalance",
      "outputs": [],
      "stateMutability": "nonpayable",
      "type": "function"
    },
    {
      "inputs": [
        {
          "internalType": "address",
          "name": "_eventAddress",
          "type": "address"
        },
        {
          "internalType": "uint256",
          "name": "_tokenId",
          "type": "uint256"
        },
        {
          "internalType": "uint256",
          "name": "_newBid",
          "type": "uint256"
        }
      ],
      "name": "updateMinBid",
      "outputs": [],
      "stateMutability": "nonpayable",
      "type": "function"
    }
  ],
  "bytecode": "0x60a06040523480156200001157600080fd5b5060405162001454380380620014548339818101604052810190620000379190620000dc565b8073ffffffffffffffffffffffffffffffffffffffff1660808173ffffffffffffffffffffffffffffffffffffffff1681525050506200010e565b600080fd5b600073ffffffffffffffffffffffffffffffffffffffff82169050919050565b6000620000a48262000077565b9050919050565b620000b68162000097565b8114620000c257600080fd5b50565b600081519050620000d681620000ab565b92915050565b600060208284031215620000f557620000f462000072565b5b60006200010584828501620000c5565b91505092915050565b60805161132a6200012a600039600061047e015261132a6000f3fe608060405234801561001057600080fd5b506004361061007d5760003560e01c80637df0bf951161005b5780637df0bf95146100c4578063c6eb7d4a146100e0578063df7ed279146100ea578063f6ac9361146101065761007d565b806304717aca146100825780633b4fb5471461009e57806366adeb8c146100ba575b600080fd5b61009c60048036038101906100979190610a65565b610122565b005b6100b860048036038101906100b39190610ab8565b610303565b005b6100c26103ca565b005b6100de60048036038101906100d99190610a65565b6103cc565b005b6100e8610426565b005b61010460048036038101906100ff9190610a65565b610428565b005b610120600480360381019061011b9190610cf3565b61042d565b005b600360008473ffffffffffffffffffffffffffffffffffffffff1673ffffffffffffffffffffffffffffffffffffffff1681526020019081526020016000206000838152602001908152602001600020548110156101ac576040517f95b79dad00000000000000000000000000000000000000000000000000000000815260040160405180910390fd5b600360008473ffffffffffffffffffffffffffffffffffffffff1673ffffffffffffffffffffffffffffffffffffffff1681526020019081526020016000206000838152602001908152602001600020543373ffffffffffffffffffffffffffffffffffffffff1631101561024d576040517fe315224600000000000000000000000000000000000000000000000000000000815260040160405180910390fd5b600260008473ffffffffffffffffffffffffffffffffffffffff1673ffffffffffffffffffffffffffffffffffffffff1681526020019081526020016000206000838152602001908152602001600020339080600181540180825580915050600190039060005260206000200160009091909190916101000a81548173ffffffffffffffffffffffffffffffffffffffff021916908373ffffffffffffffffffffffffffffffffffffffff160217905550505050565b600160008273ffffffffffffffffffffffffffffffffffffffff1673ffffffffffffffffffffffffffffffffffffffff16815260200190815260200160002060009054906101000a900473ffffffffffffffffffffffffffffffffffffffff1673ffffffffffffffffffffffffffffffffffffffff163373ffffffffffffffffffffffffffffffffffffffff16146103c7576040517f1e37ef0200000000000000000000000000000000000000000000000000000000815260040160405180910390fd5b50565b565b80600360008573ffffffffffffffffffffffffffffffffffffffff1673ffffffffffffffffffffffffffffffffffffffff168152602001908152602001600020600084815260200190815260200160002081905550505050565b565b505050565b825184511461047757835183516040517f604cd06900000000000000000000000000000000000000000000000000000000815260040161046e929190610e37565b60405180910390fd5b60006104a27f0000000000000000000000000000000000000000000000000000000000000000610812565b90508073ffffffffffffffffffffffffffffffffffffffff16634571e3a63330896040518463ffffffff1660e01b81526004016104e193929190610ef7565b600060405180830381600087803b1580156104fb57600080fd5b505af115801561050f573d6000803e3d6000fd5b5050505060006040518060e001604052808981526020013073ffffffffffffffffffffffffffffffffffffffff168152602001888152602001878152602001868152602001858152602001848152509050806000808473ffffffffffffffffffffffffffffffffffffffff1673ffffffffffffffffffffffffffffffffffffffff16815260200190815260200160002060008201518160000190805190602001906105bb9291906108cd565b5060208201518160010160006101000a81548173ffffffffffffffffffffffffffffffffffffffff021916908373ffffffffffffffffffffffffffffffffffffffff160217905550604082015181600201908051906020019061061f9291906108cd565b50606082015181600301908051906020019061063c929190610953565b506080820151816004019080519060200190610659929190610953565b5060a0820151816005019080519060200190610676929190610953565b5060c0820151816006019080519060200190610693929190610953565b5090505033600160008473ffffffffffffffffffffffffffffffffffffffff1673ffffffffffffffffffffffffffffffffffffffff16815260200190815260200160002060006101000a81548173ffffffffffffffffffffffffffffffffffffffff021916908373ffffffffffffffffffffffffffffffffffffffff16021790555060005b86518110156107a35783818151811061073457610733610f35565b5b6020026020010151600360008573ffffffffffffffffffffffffffffffffffffffff1673ffffffffffffffffffffffffffffffffffffffff168152602001908152602001600020600083815260200190815260200160002081905550808061079b90610f93565b915050610718565b50866040516107b29190611018565b60405180910390208273ffffffffffffffffffffffffffffffffffffffff167f453e81195773858555ccc0789dabe88873f10681c642e18bac04a531667ef5a8836040516108009190611205565b60405180910390a35050505050505050565b6000763d602d80600a3d3981f3363d3d373d3d3d363d730000008260601b60e81c176000526e5af43d82803e903d91602b57fd5bf38260781b17602052603760096000f09050600073ffffffffffffffffffffffffffffffffffffffff168173ffffffffffffffffffffffffffffffffffffffff1614156108c8576040517f08c379a00000000000000000000000000000000000000000000000000000000081526004016108bf90611273565b60405180910390fd5b919050565b8280546108d9906112c2565b90600052602060002090601f0160209004810192826108fb5760008555610942565b82601f1061091457805160ff1916838001178555610942565b82800160010185558215610942579182015b82811115610941578251825591602001919060010190610926565b5b50905061094f91906109a0565b5090565b82805482825590600052602060002090810192821561098f579160200282015b8281111561098e578251825591602001919060010190610973565b5b50905061099c91906109a0565b5090565b5b808211156109b95760008160009055506001016109a1565b5090565b6000604051905090565b600080fd5b600080fd5b600073ffffffffffffffffffffffffffffffffffffffff82169050919050565b60006109fc826109d1565b9050919050565b610a0c816109f1565b8114610a1757600080fd5b50565b600081359050610a2981610a03565b92915050565b6000819050919050565b610a4281610a2f565b8114610a4d57600080fd5b50565b600081359050610a5f81610a39565b92915050565b600080600060608486031215610a7e57610a7d6109c7565b5b6000610a8c86828701610a1a565b9350506020610a9d86828701610a50565b9250506040610aae86828701610a50565b9150509250925092565b600060208284031215610ace57610acd6109c7565b5b6000610adc84828501610a1a565b91505092915050565b600080fd5b600080fd5b6000601f19601f8301169050919050565b7f4e487b7100000000000000000000000000000000000000000000000000000000600052604160045260246000fd5b610b3882610aef565b810181811067ffffffffffffffff82111715610b5757610b56610b00565b5b80604052505050565b6000610b6a6109bd565b9050610b768282610b2f565b919050565b600067ffffffffffffffff821115610b9657610b95610b00565b5b610b9f82610aef565b9050602081019050919050565b82818337600083830152505050565b6000610bce610bc984610b7b565b610b60565b905082815260208101848484011115610bea57610be9610aea565b5b610bf5848285610bac565b509392505050565b600082601f830112610c1257610c11610ae5565b5b8135610c22848260208601610bbb565b91505092915050565b600067ffffffffffffffff821115610c4657610c45610b00565b5b602082029050602081019050919050565b600080fd5b6000610c6f610c6a84610c2b565b610b60565b90508083825260208201905060208402830185811115610c9257610c91610c57565b5b835b81811015610cbb5780610ca78882610a50565b845260208401935050602081019050610c94565b5050509392505050565b600082601f830112610cda57610cd9610ae5565b5b8135610cea848260208601610c5c565b91505092915050565b60008060008060008060c08789031215610d1057610d0f6109c7565b5b600087013567ffffffffffffffff811115610d2e57610d2d6109cc565b5b610d3a89828a01610bfd565b965050602087013567ffffffffffffffff811115610d5b57610d5a6109cc565b5b610d6789828a01610bfd565b955050604087013567ffffffffffffffff811115610d8857610d876109cc565b5b610d9489828a01610cc5565b945050606087013567ffffffffffffffff811115610db557610db46109cc565b5b610dc189828a01610cc5565b935050608087013567ffffffffffffffff811115610de257610de16109cc565b5b610dee89828a01610cc5565b92505060a087013567ffffffffffffffff811115610e0f57610e0e6109cc565b5b610e1b89828a01610cc5565b9150509295509295509295565b610e3181610a2f565b82525050565b6000604082019050610e4c6000830185610e28565b610e596020830184610e28565b9392505050565b610e69816109f1565b82525050565b600081519050919050565b600082825260208201905092915050565b60005b83811015610ea9578082015181840152602081019050610e8e565b83811115610eb8576000848401525b50505050565b6000610ec982610e6f565b610ed38185610e7a565b9350610ee3818560208601610e8b565b610eec81610aef565b840191505092915050565b6000606082019050610f0c6000830186610e60565b610f196020830185610e60565b8181036040830152610f2b8184610ebe565b9050949350505050565b7f4e487b7100000000000000000000000000000000000000000000000000000000600052603260045260246000fd5b7f4e487b7100000000000000000000000000000000000000000000000000000000600052601160045260246000fd5b6000610f9e82610a2f565b91507fffffffffffffffffffffffffffffffffffffffffffffffffffffffffffffffff821415610fd157610fd0610f64565b5b600182019050919050565b600081905092915050565b6000610ff282610e6f565b610ffc8185610fdc565b935061100c818560208601610e8b565b80840191505092915050565b60006110248284610fe7565b915081905092915050565b600082825260208201905092915050565b600061104b82610e6f565b611055818561102f565b9350611065818560208601610e8b565b61106e81610aef565b840191505092915050565b611082816109f1565b82525050565b600081519050919050565b600082825260208201905092915050565b6000819050602082019050919050565b6110bd81610a2f565b82525050565b60006110cf83836110b4565b60208301905092915050565b6000602082019050919050565b60006110f382611088565b6110fd8185611093565b9350611108836110a4565b8060005b8381101561113957815161112088826110c3565b975061112b836110db565b92505060018101905061110c565b5085935050505092915050565b600060e08301600083015184820360008601526111638282611040565b91505060208301516111786020860182611079565b50604083015184820360408601526111908282611040565b915050606083015184820360608601526111aa82826110e8565b915050608083015184820360808601526111c482826110e8565b91505060a083015184820360a08601526111de82826110e8565b91505060c083015184820360c08601526111f882826110e8565b9150508091505092915050565b6000602082019050818103600083015261121f8184611146565b905092915050565b7f455243313136373a20637265617465206661696c656400000000000000000000600082015250565b600061125d601683610e7a565b915061126882611227565b602082019050919050565b6000602082019050818103600083015261128c81611250565b9050919050565b7f4e487b7100000000000000000000000000000000000000000000000000000000600052602260045260246000fd5b600060028204905060018216806112da57607f821691505b602082108114156112ee576112ed611293565b5b5091905056fea2646970667358221220cf0c72e06d3d6f12f06a1f0a84d6a31f02d91529d4bf393c6ac74998ef10887664736f6c63430008090033",
  "linkReferences": {},
  "deployedLinkReferences": {}
}