{
  "_format": "hh-sol-artifact-1",
  "contractName": "Auction",
  "sourceName": "contracts/Auction.sol",
  "abi": [
    {
      "inputs": [
        {
          "internalType": "address",
          "name": "_eventImplementation",
          "type": "address"
        }
      ],
      "stateMutability": "nonpayable",
      "type": "constructor"
    },
    {
      "inputs": [],
      "name": "Auction__BidTooLow",
      "type": "error"
    },
    {
      "inputs": [
        {
          "internalType": "uint256",
          "name": "idsLength",
          "type": "uint256"
        },
        {
          "internalType": "uint256",
          "name": "suppliesLength",
          "type": "uint256"
        }
      ],
      "name": "Auction__TokenIdsDoNotMatchTokenSupplies",
      "type": "error"
    },
    {
      "anonymous": false,
      "inputs": [
        {
          "indexed": true,
          "internalType": "address",
          "name": "eventAddress",
          "type": "address"
        },
        {
          "indexed": true,
          "internalType": "string",
          "name": "baseMetaDataURI",
          "type": "string"
        },
        {
          "components": [
            {
              "internalType": "string",
              "name": "name",
              "type": "string"
            },
            {
              "internalType": "address",
              "name": "organizer",
              "type": "address"
            },
            {
              "internalType": "string",
              "name": "baseMetadataURI",
              "type": "string"
            },
            {
              "internalType": "uint256[]",
              "name": "tokenIds",
              "type": "uint256[]"
            },
            {
              "internalType": "uint256[]",
              "name": "tokenSupplies",
              "type": "uint256[]"
            },
            {
              "internalType": "uint256[]",
              "name": "tokenStatus",
              "type": "uint256[]"
            },
            {
              "internalType": "uint256[]",
              "name": "minBids",
              "type": "uint256[]"
            }
          ],
          "indexed": false,
          "internalType": "struct Auction.Event",
          "name": "event0",
          "type": "tuple"
        }
      ],
      "name": "EventListed",
      "type": "event"
    },
    {
      "inputs": [
        {
          "internalType": "string",
          "name": "_name",
          "type": "string"
        },
        {
          "internalType": "string",
          "name": "_baseMetadataURI",
          "type": "string"
        },
        {
          "internalType": "uint256[]",
          "name": "_tokenIds",
          "type": "uint256[]"
        },
        {
          "internalType": "uint256[]",
          "name": "_tokenSupplies",
          "type": "uint256[]"
        },
        {
          "internalType": "uint256[]",
          "name": "_tokenStatus",
          "type": "uint256[]"
        },
        {
          "internalType": "uint256[]",
          "name": "_minBids",
          "type": "uint256[]"
        }
      ],
      "name": "createEvent",
      "outputs": [],
      "stateMutability": "nonpayable",
      "type": "function"
    },
    {
      "inputs": [
        {
          "internalType": "address",
          "name": "_eventAddress",
          "type": "address"
        },
        {
          "internalType": "uint256",
          "name": "_tokenId",
          "type": "uint256"
        },
        {
          "internalType": "uint256",
          "name": "_amount",
          "type": "uint256"
        }
      ],
      "name": "placeBid",
      "outputs": [],
      "stateMutability": "nonpayable",
      "type": "function"
    },
    {
      "inputs": [
        {
          "internalType": "address",
          "name": "_eventAddress",
          "type": "address"
        },
        {
          "internalType": "uint256",
          "name": "_tokenId",
          "type": "uint256"
        },
        {
          "internalType": "uint256",
          "name": "_newBid",
          "type": "uint256"
        }
      ],
      "name": "updateMinBid",
      "outputs": [],
      "stateMutability": "nonpayable",
      "type": "function"
    }
  ],
  "bytecode": "0x60a06040523480156200001157600080fd5b506040516200109a3803806200109a8339818101604052810190620000379190620000dc565b8073ffffffffffffffffffffffffffffffffffffffff1660808173ffffffffffffffffffffffffffffffffffffffff1681525050506200010e565b600080fd5b600073ffffffffffffffffffffffffffffffffffffffff82169050919050565b6000620000a48262000077565b9050919050565b620000b68162000097565b8114620000c257600080fd5b50565b600081519050620000d681620000ab565b92915050565b600060208284031215620000f557620000f462000072565b5b60006200010584828501620000c5565b91505092915050565b608051610f706200012a600039600061017f0152610f706000f3fe608060405234801561001057600080fd5b50600436106100415760003560e01c806304717aca146100465780637df0bf9514610062578063f6ac93611461007e575b600080fd5b610060600480360381019061005b91906106e6565b61009a565b005b61007c600480360381019061007791906106e6565b610129565b005b61009860048036038101906100939190610947565b61012e565b005b600260008473ffffffffffffffffffffffffffffffffffffffff1673ffffffffffffffffffffffffffffffffffffffff168152602001908152602001600020600083815260200190815260200160002054811015610124576040517f95b79dad00000000000000000000000000000000000000000000000000000000815260040160405180910390fd5b505050565b505050565b825184511461017857835183516040517f604cd06900000000000000000000000000000000000000000000000000000000815260040161016f929190610a8b565b60405180910390fd5b60006101a37f0000000000000000000000000000000000000000000000000000000000000000610493565b90508073ffffffffffffffffffffffffffffffffffffffff1663f399e22e30886040518363ffffffff1660e01b81526004016101e0929190610b4b565b600060405180830381600087803b1580156101fa57600080fd5b505af115801561020e573d6000803e3d6000fd5b5050505060006040518060e001604052808981526020013073ffffffffffffffffffffffffffffffffffffffff168152602001888152602001878152602001868152602001858152602001848152509050806000808473ffffffffffffffffffffffffffffffffffffffff1673ffffffffffffffffffffffffffffffffffffffff16815260200190815260200160002060008201518160000190805190602001906102ba92919061054e565b5060208201518160010160006101000a81548173ffffffffffffffffffffffffffffffffffffffff021916908373ffffffffffffffffffffffffffffffffffffffff160217905550604082015181600201908051906020019061031e92919061054e565b50606082015181600301908051906020019061033b9291906105d4565b5060808201518160040190805190602001906103589291906105d4565b5060a08201518160050190805190602001906103759291906105d4565b5060c08201518160060190805190602001906103929291906105d4565b5090505060005b8651811015610424578381815181106103b5576103b4610b7b565b5b6020026020010151600260008573ffffffffffffffffffffffffffffffffffffffff1673ffffffffffffffffffffffffffffffffffffffff168152602001908152602001600020600083815260200190815260200160002081905550808061041c90610bd9565b915050610399565b50866040516104339190610c5e565b60405180910390208273ffffffffffffffffffffffffffffffffffffffff167f453e81195773858555ccc0789dabe88873f10681c642e18bac04a531667ef5a8836040516104819190610e4b565b60405180910390a35050505050505050565b6000763d602d80600a3d3981f3363d3d373d3d3d363d730000008260601b60e81c176000526e5af43d82803e903d91602b57fd5bf38260781b17602052603760096000f09050600073ffffffffffffffffffffffffffffffffffffffff168173ffffffffffffffffffffffffffffffffffffffff161415610549576040517f08c379a000000000000000000000000000000000000000000000000000000000815260040161054090610eb9565b60405180910390fd5b919050565b82805461055a90610f08565b90600052602060002090601f01602090048101928261057c57600085556105c3565b82601f1061059557805160ff19168380011785556105c3565b828001600101855582156105c3579182015b828111156105c25782518255916020019190600101906105a7565b5b5090506105d09190610621565b5090565b828054828255906000526020600020908101928215610610579160200282015b8281111561060f5782518255916020019190600101906105f4565b5b50905061061d9190610621565b5090565b5b8082111561063a576000816000905550600101610622565b5090565b6000604051905090565b600080fd5b600080fd5b600073ffffffffffffffffffffffffffffffffffffffff82169050919050565b600061067d82610652565b9050919050565b61068d81610672565b811461069857600080fd5b50565b6000813590506106aa81610684565b92915050565b6000819050919050565b6106c3816106b0565b81146106ce57600080fd5b50565b6000813590506106e0816106ba565b92915050565b6000806000606084860312156106ff576106fe610648565b5b600061070d8682870161069b565b935050602061071e868287016106d1565b925050604061072f868287016106d1565b9150509250925092565b600080fd5b600080fd5b6000601f19601f8301169050919050565b7f4e487b7100000000000000000000000000000000000000000000000000000000600052604160045260246000fd5b61078c82610743565b810181811067ffffffffffffffff821117156107ab576107aa610754565b5b80604052505050565b60006107be61063e565b90506107ca8282610783565b919050565b600067ffffffffffffffff8211156107ea576107e9610754565b5b6107f382610743565b9050602081019050919050565b82818337600083830152505050565b600061082261081d846107cf565b6107b4565b90508281526020810184848401111561083e5761083d61073e565b5b610849848285610800565b509392505050565b600082601f83011261086657610865610739565b5b813561087684826020860161080f565b91505092915050565b600067ffffffffffffffff82111561089a57610899610754565b5b602082029050602081019050919050565b600080fd5b60006108c36108be8461087f565b6107b4565b905080838252602082019050602084028301858111156108e6576108e56108ab565b5b835b8181101561090f57806108fb88826106d1565b8452602084019350506020810190506108e8565b5050509392505050565b600082601f83011261092e5761092d610739565b5b813561093e8482602086016108b0565b91505092915050565b60008060008060008060c0878903121561096457610963610648565b5b600087013567ffffffffffffffff8111156109825761098161064d565b5b61098e89828a01610851565b965050602087013567ffffffffffffffff8111156109af576109ae61064d565b5b6109bb89828a01610851565b955050604087013567ffffffffffffffff8111156109dc576109db61064d565b5b6109e889828a01610919565b945050606087013567ffffffffffffffff811115610a0957610a0861064d565b5b610a1589828a01610919565b935050608087013567ffffffffffffffff811115610a3657610a3561064d565b5b610a4289828a01610919565b92505060a087013567ffffffffffffffff811115610a6357610a6261064d565b5b610a6f89828a01610919565b9150509295509295509295565b610a85816106b0565b82525050565b6000604082019050610aa06000830185610a7c565b610aad6020830184610a7c565b9392505050565b610abd81610672565b82525050565b600081519050919050565b600082825260208201905092915050565b60005b83811015610afd578082015181840152602081019050610ae2565b83811115610b0c576000848401525b50505050565b6000610b1d82610ac3565b610b278185610ace565b9350610b37818560208601610adf565b610b4081610743565b840191505092915050565b6000604082019050610b606000830185610ab4565b8181036020830152610b728184610b12565b90509392505050565b7f4e487b7100000000000000000000000000000000000000000000000000000000600052603260045260246000fd5b7f4e487b7100000000000000000000000000000000000000000000000000000000600052601160045260246000fd5b6000610be4826106b0565b91507fffffffffffffffffffffffffffffffffffffffffffffffffffffffffffffffff821415610c1757610c16610baa565b5b600182019050919050565b600081905092915050565b6000610c3882610ac3565b610c428185610c22565b9350610c52818560208601610adf565b80840191505092915050565b6000610c6a8284610c2d565b915081905092915050565b600082825260208201905092915050565b6000610c9182610ac3565b610c9b8185610c75565b9350610cab818560208601610adf565b610cb481610743565b840191505092915050565b610cc881610672565b82525050565b600081519050919050565b600082825260208201905092915050565b6000819050602082019050919050565b610d03816106b0565b82525050565b6000610d158383610cfa565b60208301905092915050565b6000602082019050919050565b6000610d3982610cce565b610d438185610cd9565b9350610d4e83610cea565b8060005b83811015610d7f578151610d668882610d09565b9750610d7183610d21565b925050600181019050610d52565b5085935050505092915050565b600060e0830160008301518482036000860152610da98282610c86565b9150506020830151610dbe6020860182610cbf565b5060408301518482036040860152610dd68282610c86565b91505060608301518482036060860152610df08282610d2e565b91505060808301518482036080860152610e0a8282610d2e565b91505060a083015184820360a0860152610e248282610d2e565b91505060c083015184820360c0860152610e3e8282610d2e565b9150508091505092915050565b60006020820190508181036000830152610e658184610d8c565b905092915050565b7f455243313136373a20637265617465206661696c656400000000000000000000600082015250565b6000610ea3601683610ace565b9150610eae82610e6d565b602082019050919050565b60006020820190508181036000830152610ed281610e96565b9050919050565b7f4e487b7100000000000000000000000000000000000000000000000000000000600052602260045260246000fd5b60006002820490506001821680610f2057607f821691505b60208210811415610f3457610f33610ed9565b5b5091905056fea2646970667358221220f6616c4fde4367144a168e8d6b94c9c006f5486834e0d66b40914eb7c394bb2264736f6c63430008090033",
  "linkReferences": {},
  "deployedLinkReferences": {}
}