{
  "_format": "hh-sol-artifact-1",
  "contractName": "EventImplementation",
  "sourceName": "contracts/EventImplementation.sol",
  "abi": [
    {
      "inputs": [],
      "name": "CollectionImplementation__AlreadyInitialized",
      "type": "error"
    },
    {
      "inputs": [
        {
          "internalType": "address",
          "name": "caller",
          "type": "address"
        }
      ],
      "name": "Collection__OnlyCallableThroughAuctionContract",
      "type": "error"
    },
    {
      "anonymous": false,
      "inputs": [
        {
          "indexed": true,
          "internalType": "address",
          "name": "account",
          "type": "address"
        },
        {
          "indexed": true,
          "internalType": "address",
          "name": "operator",
          "type": "address"
        },
        {
          "indexed": false,
          "internalType": "bool",
          "name": "approved",
          "type": "bool"
        }
      ],
      "name": "ApprovalForAll",
      "type": "event"
    },
    {
      "anonymous": false,
      "inputs": [
        {
          "indexed": false,
          "internalType": "uint8",
          "name": "version",
          "type": "uint8"
        }
      ],
      "name": "Initialized",
      "type": "event"
    },
    {
      "anonymous": false,
      "inputs": [
        {
          "indexed": true,
          "internalType": "address",
          "name": "operator",
          "type": "address"
        },
        {
          "indexed": true,
          "internalType": "address",
          "name": "from",
          "type": "address"
        },
        {
          "indexed": true,
          "internalType": "address",
          "name": "to",
          "type": "address"
        },
        {
          "indexed": false,
          "internalType": "uint256[]",
          "name": "ids",
          "type": "uint256[]"
        },
        {
          "indexed": false,
          "internalType": "uint256[]",
          "name": "values",
          "type": "uint256[]"
        }
      ],
      "name": "TransferBatch",
      "type": "event"
    },
    {
      "anonymous": false,
      "inputs": [
        {
          "indexed": true,
          "internalType": "address",
          "name": "operator",
          "type": "address"
        },
        {
          "indexed": true,
          "internalType": "address",
          "name": "from",
          "type": "address"
        },
        {
          "indexed": true,
          "internalType": "address",
          "name": "to",
          "type": "address"
        },
        {
          "indexed": false,
          "internalType": "uint256",
          "name": "id",
          "type": "uint256"
        },
        {
          "indexed": false,
          "internalType": "uint256",
          "name": "value",
          "type": "uint256"
        }
      ],
      "name": "TransferSingle",
      "type": "event"
    },
    {
      "anonymous": false,
      "inputs": [
        {
          "indexed": false,
          "internalType": "string",
          "name": "value",
          "type": "string"
        },
        {
          "indexed": true,
          "internalType": "uint256",
          "name": "id",
          "type": "uint256"
        }
      ],
      "name": "URI",
      "type": "event"
    },
    {
      "inputs": [],
      "name": "auctionContract",
      "outputs": [
        {
          "internalType": "address",
          "name": "",
          "type": "address"
        }
      ],
      "stateMutability": "view",
      "type": "function"
    },
    {
      "inputs": [
        {
          "internalType": "address",
          "name": "account",
          "type": "address"
        },
        {
          "internalType": "uint256",
          "name": "id",
          "type": "uint256"
        }
      ],
      "name": "balanceOf",
      "outputs": [
        {
          "internalType": "uint256",
          "name": "",
          "type": "uint256"
        }
      ],
      "stateMutability": "view",
      "type": "function"
    },
    {
      "inputs": [
        {
          "internalType": "address[]",
          "name": "accounts",
          "type": "address[]"
        },
        {
          "internalType": "uint256[]",
          "name": "ids",
          "type": "uint256[]"
        }
      ],
      "name": "balanceOfBatch",
      "outputs": [
        {
          "internalType": "uint256[]",
          "name": "",
          "type": "uint256[]"
        }
      ],
      "stateMutability": "view",
      "type": "function"
    },
    {
      "inputs": [
        {
          "internalType": "address",
          "name": "_organizer",
          "type": "address"
        },
        {
          "internalType": "address",
          "name": "_auctionContract",
          "type": "address"
        },
        {
          "internalType": "string",
          "name": "_baseMetadataURI",
          "type": "string"
        }
      ],
      "name": "initialize",
      "outputs": [],
      "stateMutability": "nonpayable",
      "type": "function"
    },
    {
      "inputs": [
        {
          "internalType": "address",
          "name": "account",
          "type": "address"
        },
        {
          "internalType": "address",
          "name": "operator",
          "type": "address"
        }
      ],
      "name": "isApprovedForAll",
      "outputs": [
        {
          "internalType": "bool",
          "name": "",
          "type": "bool"
        }
      ],
      "stateMutability": "view",
      "type": "function"
    },
    {
      "inputs": [
        {
          "internalType": "address",
          "name": "_to",
          "type": "address"
        },
        {
          "internalType": "uint256",
          "name": "_tokenId",
          "type": "uint256"
        },
        {
          "internalType": "uint256",
          "name": "_amount",
          "type": "uint256"
        }
      ],
      "name": "mint",
      "outputs": [],
      "stateMutability": "nonpayable",
      "type": "function"
    },
    {
      "inputs": [],
      "name": "organizer",
      "outputs": [
        {
          "internalType": "address",
          "name": "",
          "type": "address"
        }
      ],
      "stateMutability": "view",
      "type": "function"
    },
    {
      "inputs": [
        {
          "internalType": "address",
          "name": "from",
          "type": "address"
        },
        {
          "internalType": "address",
          "name": "to",
          "type": "address"
        },
        {
          "internalType": "uint256[]",
          "name": "ids",
          "type": "uint256[]"
        },
        {
          "internalType": "uint256[]",
          "name": "amounts",
          "type": "uint256[]"
        },
        {
          "internalType": "bytes",
          "name": "data",
          "type": "bytes"
        }
      ],
      "name": "safeBatchTransferFrom",
      "outputs": [],
      "stateMutability": "nonpayable",
      "type": "function"
    },
    {
      "inputs": [
        {
          "internalType": "address",
          "name": "from",
          "type": "address"
        },
        {
          "internalType": "address",
          "name": "to",
          "type": "address"
        },
        {
          "internalType": "uint256",
          "name": "id",
          "type": "uint256"
        },
        {
          "internalType": "uint256",
          "name": "amount",
          "type": "uint256"
        },
        {
          "internalType": "bytes",
          "name": "data",
          "type": "bytes"
        }
      ],
      "name": "safeTransferFrom",
      "outputs": [],
      "stateMutability": "nonpayable",
      "type": "function"
    },
    {
      "inputs": [
        {
          "internalType": "address",
          "name": "operator",
          "type": "address"
        },
        {
          "internalType": "bool",
          "name": "approved",
          "type": "bool"
        }
      ],
      "name": "setApprovalForAll",
      "outputs": [],
      "stateMutability": "nonpayable",
      "type": "function"
    },
    {
      "inputs": [
        {
          "internalType": "bytes4",
          "name": "interfaceId",
          "type": "bytes4"
        }
      ],
      "name": "supportsInterface",
      "outputs": [
        {
          "internalType": "bool",
          "name": "",
          "type": "bool"
        }
      ],
      "stateMutability": "view",
      "type": "function"
    },
    {
      "inputs": [
        {
          "internalType": "uint256",
          "name": "",
          "type": "uint256"
        }
      ],
      "name": "uri",
      "outputs": [
        {
          "internalType": "string",
          "name": "",
          "type": "string"
        }
      ],
      "stateMutability": "view",
      "type": "function"
    }
  ],
  "bytecode": "0x608060405234801561001057600080fd5b50612da8806100206000396000f3fe608060405234801561001057600080fd5b50600436106100b35760003560e01c80634571e3a6116100715780634571e3a61461019e5780634e1273f4146101ba57806361203265146101ea578063a22cb46514610208578063e985e9c514610224578063f242432a14610254576100b3565b8062fdd58e146100b857806301ffc9a7146100e85780630ab8afac146101185780630e89341c14610136578063156e29f6146101665780632eb2c2d614610182575b600080fd5b6100d260048036038101906100cd919061198c565b610270565b6040516100df91906119db565b60405180910390f35b61010260048036038101906100fd9190611a4e565b61033a565b60405161010f9190611a96565b60405180910390f35b61012061041c565b60405161012d9190611ac0565b60405180910390f35b610150600480360381019061014b9190611adb565b610442565b60405161015d9190611ba1565b60405180910390f35b610180600480360381019061017b9190611bc3565b6104d6565b005b61019c60048036038101906101979190611e13565b610588565b005b6101b860048036038101906101b39190611f83565b610629565b005b6101d460048036038101906101cf91906120b5565b610717565b6040516101e191906121eb565b60405180910390f35b6101f2610830565b6040516101ff9190611ac0565b60405180910390f35b610222600480360381019061021d9190612239565b610856565b005b61023e60048036038101906102399190612279565b61086c565b60405161024b9190611a96565b60405180910390f35b61026e600480360381019061026991906122b9565b610900565b005b60008073ffffffffffffffffffffffffffffffffffffffff168373ffffffffffffffffffffffffffffffffffffffff1614156102e1576040517f08c379a00000000000000000000000000000000000000000000000000000000081526004016102d8906123c2565b60405180910390fd5b6065600083815260200190815260200160002060008473ffffffffffffffffffffffffffffffffffffffff1673ffffffffffffffffffffffffffffffffffffffff16815260200190815260200160002054905092915050565b60007fd9b67a26000000000000000000000000000000000000000000000000000000007bffffffffffffffffffffffffffffffffffffffffffffffffffffffff1916827bffffffffffffffffffffffffffffffffffffffffffffffffffffffff1916148061040557507f0e89341c000000000000000000000000000000000000000000000000000000007bffffffffffffffffffffffffffffffffffffffffffffffffffffffff1916827bffffffffffffffffffffffffffffffffffffffffffffffffffffffff1916145b806104155750610414826109a1565b5b9050919050565b609860009054906101000a900473ffffffffffffffffffffffffffffffffffffffff1681565b60606067805461045190612411565b80601f016020809104026020016040519081016040528092919081815260200182805461047d90612411565b80156104ca5780601f1061049f576101008083540402835291602001916104ca565b820191906000526020600020905b8154815290600101906020018083116104ad57829003601f168201915b50505050509050919050565b609860009054906101000a900473ffffffffffffffffffffffffffffffffffffffff1673ffffffffffffffffffffffffffffffffffffffff163373ffffffffffffffffffffffffffffffffffffffff161461056857336040517fee69ffd400000000000000000000000000000000000000000000000000000000815260040161055f9190611ac0565b60405180910390fd5b61058383838360405180602001604052806000815250610a0b565b505050565b610590610bbd565b73ffffffffffffffffffffffffffffffffffffffff168573ffffffffffffffffffffffffffffffffffffffff1614806105d657506105d5856105d0610bbd565b61086c565b5b610615576040517f08c379a000000000000000000000000000000000000000000000000000000000815260040161060c906124b5565b60405180910390fd5b6106228585858585610bc5565b5050505050565b600073ffffffffffffffffffffffffffffffffffffffff16609960009054906101000a900473ffffffffffffffffffffffffffffffffffffffff1673ffffffffffffffffffffffffffffffffffffffff16146106b1576040517f465250cc00000000000000000000000000000000000000000000000000000000815260040160405180910390fd5b81609860006101000a81548173ffffffffffffffffffffffffffffffffffffffff021916908373ffffffffffffffffffffffffffffffffffffffff1602179055508060979080519060200190610708929190611841565b5061071281610eea565b505050565b6060815183511461075d576040517f08c379a000000000000000000000000000000000000000000000000000000000815260040161075490612547565b60405180910390fd5b6000835167ffffffffffffffff81111561077a57610779611c1b565b5b6040519080825280602002602001820160405280156107a85781602001602082028036833780820191505090505b50905060005b8451811015610825576107f58582815181106107cd576107cc612567565b5b60200260200101518583815181106107e8576107e7612567565b5b6020026020010151610270565b82828151811061080857610807612567565b5b6020026020010181815250508061081e906125c5565b90506107ae565b508091505092915050565b609960009054906101000a900473ffffffffffffffffffffffffffffffffffffffff1681565b610868610861610bbd565b8383610f45565b5050565b6000606660008473ffffffffffffffffffffffffffffffffffffffff1673ffffffffffffffffffffffffffffffffffffffff16815260200190815260200160002060008373ffffffffffffffffffffffffffffffffffffffff1673ffffffffffffffffffffffffffffffffffffffff16815260200190815260200160002060009054906101000a900460ff16905092915050565b610908610bbd565b73ffffffffffffffffffffffffffffffffffffffff168573ffffffffffffffffffffffffffffffffffffffff16148061094e575061094d85610948610bbd565b61086c565b5b61098d576040517f08c379a0000000000000000000000000000000000000000000000000000000008152600401610984906124b5565b60405180910390fd5b61099a85858585856110b2565b5050505050565b60007f01ffc9a7000000000000000000000000000000000000000000000000000000007bffffffffffffffffffffffffffffffffffffffffffffffffffffffff1916827bffffffffffffffffffffffffffffffffffffffffffffffffffffffff1916149050919050565b600073ffffffffffffffffffffffffffffffffffffffff168473ffffffffffffffffffffffffffffffffffffffff161415610a7b576040517f08c379a0000000000000000000000000000000000000000000000000000000008152600401610a7290612680565b60405180910390fd5b6000610a85610bbd565b90506000610a9285611351565b90506000610a9f85611351565b9050610ab0836000898585896113cb565b846065600088815260200190815260200160002060008973ffffffffffffffffffffffffffffffffffffffff1673ffffffffffffffffffffffffffffffffffffffff1681526020019081526020016000206000828254610b1091906126a0565b925050819055508673ffffffffffffffffffffffffffffffffffffffff16600073ffffffffffffffffffffffffffffffffffffffff168473ffffffffffffffffffffffffffffffffffffffff167fc3d58168c5ae7397731d063d5bbf3d657854427343f4c083240f7aacaa2d0f628989604051610b8e9291906126f6565b60405180910390a4610ba5836000898585896113d3565b610bb4836000898989896113db565b50505050505050565b600033905090565b8151835114610c09576040517f08c379a0000000000000000000000000000000000000000000000000000000008152600401610c0090612791565b60405180910390fd5b600073ffffffffffffffffffffffffffffffffffffffff168473ffffffffffffffffffffffffffffffffffffffff161415610c79576040517f08c379a0000000000000000000000000000000000000000000000000000000008152600401610c7090612823565b60405180910390fd5b6000610c83610bbd565b9050610c938187878787876113cb565b60005b8451811015610e47576000858281518110610cb457610cb3612567565b5b602002602001015190506000858381518110610cd357610cd2612567565b5b6020026020010151905060006065600084815260200190815260200160002060008b73ffffffffffffffffffffffffffffffffffffffff1673ffffffffffffffffffffffffffffffffffffffff16815260200190815260200160002054905081811015610d75576040517f08c379a0000000000000000000000000000000000000000000000000000000008152600401610d6c906128b5565b60405180910390fd5b8181036065600085815260200190815260200160002060008c73ffffffffffffffffffffffffffffffffffffffff1673ffffffffffffffffffffffffffffffffffffffff16815260200190815260200160002081905550816065600085815260200190815260200160002060008b73ffffffffffffffffffffffffffffffffffffffff1673ffffffffffffffffffffffffffffffffffffffff1681526020019081526020016000206000828254610e2c91906126a0565b9250508190555050505080610e40906125c5565b9050610c96565b508473ffffffffffffffffffffffffffffffffffffffff168673ffffffffffffffffffffffffffffffffffffffff168273ffffffffffffffffffffffffffffffffffffffff167f4a39dc06d4c0dbc64b70af90fd698a233a518aa5d07e595d983b8c0526c8f7fb8787604051610ebe9291906128d5565b60405180910390a4610ed48187878787876113d3565b610ee28187878787876115c2565b505050505050565b600060019054906101000a900460ff16610f39576040517f08c379a0000000000000000000000000000000000000000000000000000000008152600401610f309061297e565b60405180910390fd5b610f42816117a9565b50565b8173ffffffffffffffffffffffffffffffffffffffff168373ffffffffffffffffffffffffffffffffffffffff161415610fb4576040517f08c379a0000000000000000000000000000000000000000000000000000000008152600401610fab90612a10565b60405180910390fd5b80606660008573ffffffffffffffffffffffffffffffffffffffff1673ffffffffffffffffffffffffffffffffffffffff16815260200190815260200160002060008473ffffffffffffffffffffffffffffffffffffffff1673ffffffffffffffffffffffffffffffffffffffff16815260200190815260200160002060006101000a81548160ff0219169083151502179055508173ffffffffffffffffffffffffffffffffffffffff168373ffffffffffffffffffffffffffffffffffffffff167f17307eab39ab6107e8899845ad3d59bd9653f200f220920489ca2b5937696c31836040516110a59190611a96565b60405180910390a3505050565b600073ffffffffffffffffffffffffffffffffffffffff168473ffffffffffffffffffffffffffffffffffffffff161415611122576040517f08c379a000000000000000000000000000000000000000000000000000000000815260040161111990612823565b60405180910390fd5b600061112c610bbd565b9050600061113985611351565b9050600061114685611351565b90506111568389898585896113cb565b60006065600088815260200190815260200160002060008a73ffffffffffffffffffffffffffffffffffffffff1673ffffffffffffffffffffffffffffffffffffffff168152602001908152602001600020549050858110156111ee576040517f08c379a00000000000000000000000000000000000000000000000000000000081526004016111e5906128b5565b60405180910390fd5b8581036065600089815260200190815260200160002060008b73ffffffffffffffffffffffffffffffffffffffff1673ffffffffffffffffffffffffffffffffffffffff16815260200190815260200160002081905550856065600089815260200190815260200160002060008a73ffffffffffffffffffffffffffffffffffffffff1673ffffffffffffffffffffffffffffffffffffffff16815260200190815260200160002060008282546112a591906126a0565b925050819055508773ffffffffffffffffffffffffffffffffffffffff168973ffffffffffffffffffffffffffffffffffffffff168573ffffffffffffffffffffffffffffffffffffffff167fc3d58168c5ae7397731d063d5bbf3d657854427343f4c083240f7aacaa2d0f628a8a6040516113229291906126f6565b60405180910390a4611338848a8a86868a6113d3565b611346848a8a8a8a8a6113db565b505050505050505050565b60606000600167ffffffffffffffff8111156113705761136f611c1b565b5b60405190808252806020026020018201604052801561139e5781602001602082028036833780820191505090505b50905082816000815181106113b6576113b5612567565b5b60200260200101818152505080915050919050565b505050505050565b505050505050565b6113fa8473ffffffffffffffffffffffffffffffffffffffff16611804565b156115ba578373ffffffffffffffffffffffffffffffffffffffff1663f23a6e6187878686866040518663ffffffff1660e01b8152600401611440959493929190612a85565b602060405180830381600087803b15801561145a57600080fd5b505af192505050801561148b57506040513d601f19601f820116820180604052508101906114889190612af4565b60015b61153157611497612b2e565b806308c379a014156114f457506114ac612b50565b806114b757506114f6565b806040517f08c379a00000000000000000000000000000000000000000000000000000000081526004016114eb9190611ba1565b60405180910390fd5b505b6040517f08c379a000000000000000000000000000000000000000000000000000000000815260040161152890612c58565b60405180910390fd5b63f23a6e6160e01b7bffffffffffffffffffffffffffffffffffffffffffffffffffffffff1916817bffffffffffffffffffffffffffffffffffffffffffffffffffffffff1916146115b8576040517f08c379a00000000000000000000000000000000000000000000000000000000081526004016115af90612cea565b60405180910390fd5b505b505050505050565b6115e18473ffffffffffffffffffffffffffffffffffffffff16611804565b156117a1578373ffffffffffffffffffffffffffffffffffffffff1663bc197c8187878686866040518663ffffffff1660e01b8152600401611627959493929190612d0a565b602060405180830381600087803b15801561164157600080fd5b505af192505050801561167257506040513d601f19601f8201168201806040525081019061166f9190612af4565b60015b6117185761167e612b2e565b806308c379a014156116db5750611693612b50565b8061169e57506116dd565b806040517f08c379a00000000000000000000000000000000000000000000000000000000081526004016116d29190611ba1565b60405180910390fd5b505b6040517f08c379a000000000000000000000000000000000000000000000000000000000815260040161170f90612c58565b60405180910390fd5b63bc197c8160e01b7bffffffffffffffffffffffffffffffffffffffffffffffffffffffff1916817bffffffffffffffffffffffffffffffffffffffffffffffffffffffff19161461179f576040517f08c379a000000000000000000000000000000000000000000000000000000000815260040161179690612cea565b60405180910390fd5b505b505050505050565b600060019054906101000a900460ff166117f8576040517f08c379a00000000000000000000000000000000000000000000000000000000081526004016117ef9061297e565b60405180910390fd5b61180181611827565b50565b6000808273ffffffffffffffffffffffffffffffffffffffff163b119050919050565b806067908051906020019061183d929190611841565b5050565b82805461184d90612411565b90600052602060002090601f01602090048101928261186f57600085556118b6565b82601f1061188857805160ff19168380011785556118b6565b828001600101855582156118b6579182015b828111156118b557825182559160200191906001019061189a565b5b5090506118c391906118c7565b5090565b5b808211156118e05760008160009055506001016118c8565b5090565b6000604051905090565b600080fd5b600080fd5b600073ffffffffffffffffffffffffffffffffffffffff82169050919050565b6000611923826118f8565b9050919050565b61193381611918565b811461193e57600080fd5b50565b6000813590506119508161192a565b92915050565b6000819050919050565b61196981611956565b811461197457600080fd5b50565b60008135905061198681611960565b92915050565b600080604083850312156119a3576119a26118ee565b5b60006119b185828601611941565b92505060206119c285828601611977565b9150509250929050565b6119d581611956565b82525050565b60006020820190506119f060008301846119cc565b92915050565b60007fffffffff0000000000000000000000000000000000000000000000000000000082169050919050565b611a2b816119f6565b8114611a3657600080fd5b50565b600081359050611a4881611a22565b92915050565b600060208284031215611a6457611a636118ee565b5b6000611a7284828501611a39565b91505092915050565b60008115159050919050565b611a9081611a7b565b82525050565b6000602082019050611aab6000830184611a87565b92915050565b611aba81611918565b82525050565b6000602082019050611ad56000830184611ab1565b92915050565b600060208284031215611af157611af06118ee565b5b6000611aff84828501611977565b91505092915050565b600081519050919050565b600082825260208201905092915050565b60005b83811015611b42578082015181840152602081019050611b27565b83811115611b51576000848401525b50505050565b6000601f19601f8301169050919050565b6000611b7382611b08565b611b7d8185611b13565b9350611b8d818560208601611b24565b611b9681611b57565b840191505092915050565b60006020820190508181036000830152611bbb8184611b68565b905092915050565b600080600060608486031215611bdc57611bdb6118ee565b5b6000611bea86828701611941565b9350506020611bfb86828701611977565b9250506040611c0c86828701611977565b9150509250925092565b600080fd5b7f4e487b7100000000000000000000000000000000000000000000000000000000600052604160045260246000fd5b611c5382611b57565b810181811067ffffffffffffffff82111715611c7257611c71611c1b565b5b80604052505050565b6000611c856118e4565b9050611c918282611c4a565b919050565b600067ffffffffffffffff821115611cb157611cb0611c1b565b5b602082029050602081019050919050565b600080fd5b6000611cda611cd584611c96565b611c7b565b90508083825260208201905060208402830185811115611cfd57611cfc611cc2565b5b835b81811015611d265780611d128882611977565b845260208401935050602081019050611cff565b5050509392505050565b600082601f830112611d4557611d44611c16565b5b8135611d55848260208601611cc7565b91505092915050565b600080fd5b600067ffffffffffffffff821115611d7e57611d7d611c1b565b5b611d8782611b57565b9050602081019050919050565b82818337600083830152505050565b6000611db6611db184611d63565b611c7b565b905082815260208101848484011115611dd257611dd1611d5e565b5b611ddd848285611d94565b509392505050565b600082601f830112611dfa57611df9611c16565b5b8135611e0a848260208601611da3565b91505092915050565b600080600080600060a08688031215611e2f57611e2e6118ee565b5b6000611e3d88828901611941565b9550506020611e4e88828901611941565b945050604086013567ffffffffffffffff811115611e6f57611e6e6118f3565b5b611e7b88828901611d30565b935050606086013567ffffffffffffffff811115611e9c57611e9b6118f3565b5b611ea888828901611d30565b925050608086013567ffffffffffffffff811115611ec957611ec86118f3565b5b611ed588828901611de5565b9150509295509295909350565b600067ffffffffffffffff821115611efd57611efc611c1b565b5b611f0682611b57565b9050602081019050919050565b6000611f26611f2184611ee2565b611c7b565b905082815260208101848484011115611f4257611f41611d5e565b5b611f4d848285611d94565b509392505050565b600082601f830112611f6a57611f69611c16565b5b8135611f7a848260208601611f13565b91505092915050565b600080600060608486031215611f9c57611f9b6118ee565b5b6000611faa86828701611941565b9350506020611fbb86828701611941565b925050604084013567ffffffffffffffff811115611fdc57611fdb6118f3565b5b611fe886828701611f55565b9150509250925092565b600067ffffffffffffffff82111561200d5761200c611c1b565b5b602082029050602081019050919050565b600061203161202c84611ff2565b611c7b565b9050808382526020820190506020840283018581111561205457612053611cc2565b5b835b8181101561207d57806120698882611941565b845260208401935050602081019050612056565b5050509392505050565b600082601f83011261209c5761209b611c16565b5b81356120ac84826020860161201e565b91505092915050565b600080604083850312156120cc576120cb6118ee565b5b600083013567ffffffffffffffff8111156120ea576120e96118f3565b5b6120f685828601612087565b925050602083013567ffffffffffffffff811115612117576121166118f3565b5b61212385828601611d30565b9150509250929050565b600081519050919050565b600082825260208201905092915050565b6000819050602082019050919050565b61216281611956565b82525050565b60006121748383612159565b60208301905092915050565b6000602082019050919050565b60006121988261212d565b6121a28185612138565b93506121ad83612149565b8060005b838110156121de5781516121c58882612168565b97506121d083612180565b9250506001810190506121b1565b5085935050505092915050565b60006020820190508181036000830152612205818461218d565b905092915050565b61221681611a7b565b811461222157600080fd5b50565b6000813590506122338161220d565b92915050565b600080604083850312156122505761224f6118ee565b5b600061225e85828601611941565b925050602061226f85828601612224565b9150509250929050565b600080604083850312156122905761228f6118ee565b5b600061229e85828601611941565b92505060206122af85828601611941565b9150509250929050565b600080600080600060a086880312156122d5576122d46118ee565b5b60006122e388828901611941565b95505060206122f488828901611941565b945050604061230588828901611977565b935050606061231688828901611977565b925050608086013567ffffffffffffffff811115612337576123366118f3565b5b61234388828901611de5565b9150509295509295909350565b7f455243313135353a2061646472657373207a65726f206973206e6f742061207660008201527f616c6964206f776e657200000000000000000000000000000000000000000000602082015250565b60006123ac602a83611b13565b91506123b782612350565b604082019050919050565b600060208201905081810360008301526123db8161239f565b9050919050565b7f4e487b7100000000000000000000000000000000000000000000000000000000600052602260045260246000fd5b6000600282049050600182168061242957607f821691505b6020821081141561243d5761243c6123e2565b5b50919050565b7f455243313135353a2063616c6c6572206973206e6f7420746f6b656e206f776e60008201527f6572206f7220617070726f766564000000000000000000000000000000000000602082015250565b600061249f602e83611b13565b91506124aa82612443565b604082019050919050565b600060208201905081810360008301526124ce81612492565b9050919050565b7f455243313135353a206163636f756e747320616e6420696473206c656e67746860008201527f206d69736d617463680000000000000000000000000000000000000000000000602082015250565b6000612531602983611b13565b915061253c826124d5565b604082019050919050565b6000602082019050818103600083015261256081612524565b9050919050565b7f4e487b7100000000000000000000000000000000000000000000000000000000600052603260045260246000fd5b7f4e487b7100000000000000000000000000000000000000000000000000000000600052601160045260246000fd5b60006125d082611956565b91507fffffffffffffffffffffffffffffffffffffffffffffffffffffffffffffffff82141561260357612602612596565b5b600182019050919050565b7f455243313135353a206d696e7420746f20746865207a65726f2061646472657360008201527f7300000000000000000000000000000000000000000000000000000000000000602082015250565b600061266a602183611b13565b91506126758261260e565b604082019050919050565b600060208201905081810360008301526126998161265d565b9050919050565b60006126ab82611956565b91506126b683611956565b9250827fffffffffffffffffffffffffffffffffffffffffffffffffffffffffffffffff038211156126eb576126ea612596565b5b828201905092915050565b600060408201905061270b60008301856119cc565b61271860208301846119cc565b9392505050565b7f455243313135353a2069647320616e6420616d6f756e7473206c656e6774682060008201527f6d69736d61746368000000000000000000000000000000000000000000000000602082015250565b600061277b602883611b13565b91506127868261271f565b604082019050919050565b600060208201905081810360008301526127aa8161276e565b9050919050565b7f455243313135353a207472616e7366657220746f20746865207a65726f20616460008201527f6472657373000000000000000000000000000000000000000000000000000000602082015250565b600061280d602583611b13565b9150612818826127b1565b604082019050919050565b6000602082019050818103600083015261283c81612800565b9050919050565b7f455243313135353a20696e73756666696369656e742062616c616e636520666f60008201527f72207472616e7366657200000000000000000000000000000000000000000000602082015250565b600061289f602a83611b13565b91506128aa82612843565b604082019050919050565b600060208201905081810360008301526128ce81612892565b9050919050565b600060408201905081810360008301526128ef818561218d565b90508181036020830152612903818461218d565b90509392505050565b7f496e697469616c697a61626c653a20636f6e7472616374206973206e6f74206960008201527f6e697469616c697a696e67000000000000000000000000000000000000000000602082015250565b6000612968602b83611b13565b91506129738261290c565b604082019050919050565b600060208201905081810360008301526129978161295b565b9050919050565b7f455243313135353a2073657474696e6720617070726f76616c2073746174757360008201527f20666f722073656c660000000000000000000000000000000000000000000000602082015250565b60006129fa602983611b13565b9150612a058261299e565b604082019050919050565b60006020820190508181036000830152612a29816129ed565b9050919050565b600081519050919050565b600082825260208201905092915050565b6000612a5782612a30565b612a618185612a3b565b9350612a71818560208601611b24565b612a7a81611b57565b840191505092915050565b600060a082019050612a9a6000830188611ab1565b612aa76020830187611ab1565b612ab460408301866119cc565b612ac160608301856119cc565b8181036080830152612ad38184612a4c565b90509695505050505050565b600081519050612aee81611a22565b92915050565b600060208284031215612b0a57612b096118ee565b5b6000612b1884828501612adf565b91505092915050565b60008160e01c9050919050565b600060033d1115612b4d5760046000803e612b4a600051612b21565b90505b90565b600060443d1015612b6057612be3565b612b686118e4565b60043d036004823e80513d602482011167ffffffffffffffff82111715612b90575050612be3565b808201805167ffffffffffffffff811115612bae5750505050612be3565b80602083010160043d038501811115612bcb575050505050612be3565b612bda82602001850186611c4a565b82955050505050505b90565b7f455243313135353a207472616e7366657220746f206e6f6e2d4552433131353560008201527f526563656976657220696d706c656d656e746572000000000000000000000000602082015250565b6000612c42603483611b13565b9150612c4d82612be6565b604082019050919050565b60006020820190508181036000830152612c7181612c35565b9050919050565b7f455243313135353a204552433131353552656365697665722072656a6563746560008201527f6420746f6b656e73000000000000000000000000000000000000000000000000602082015250565b6000612cd4602883611b13565b9150612cdf82612c78565b604082019050919050565b60006020820190508181036000830152612d0381612cc7565b9050919050565b600060a082019050612d1f6000830188611ab1565b612d2c6020830187611ab1565b8181036040830152612d3e818661218d565b90508181036060830152612d52818561218d565b90508181036080830152612d668184612a4c565b9050969550505050505056fea2646970667358221220a27c1908610ce8e3200b0d6fa1eab33f9054bd327b1318b03ca3487b0e32ab2c64736f6c63430008090033",
  "linkReferences": {},
  "deployedLinkReferences": {}
}