{
  "_format": "hh-sol-artifact-1",
  "contractName": "EventImplementation",
  "sourceName": "contracts/EventImplementation.sol",
  "abi": [
    {
      "inputs": [],
      "name": "CollectionImplementation__AlreadyInitialized",
      "type": "error"
    },
    {
      "inputs": [
        {
          "internalType": "address",
          "name": "caller",
          "type": "address"
        }
      ],
      "name": "Collection__OnlyCallableThroughAuctionContract",
      "type": "error"
    },
    {
      "anonymous": false,
      "inputs": [
        {
          "indexed": true,
          "internalType": "address",
          "name": "account",
          "type": "address"
        },
        {
          "indexed": true,
          "internalType": "address",
          "name": "operator",
          "type": "address"
        },
        {
          "indexed": false,
          "internalType": "bool",
          "name": "approved",
          "type": "bool"
        }
      ],
      "name": "ApprovalForAll",
      "type": "event"
    },
    {
      "anonymous": false,
      "inputs": [
        {
          "indexed": false,
          "internalType": "uint8",
          "name": "version",
          "type": "uint8"
        }
      ],
      "name": "Initialized",
      "type": "event"
    },
    {
      "anonymous": false,
      "inputs": [
        {
          "indexed": true,
          "internalType": "address",
          "name": "operator",
          "type": "address"
        },
        {
          "indexed": true,
          "internalType": "address",
          "name": "from",
          "type": "address"
        },
        {
          "indexed": true,
          "internalType": "address",
          "name": "to",
          "type": "address"
        },
        {
          "indexed": false,
          "internalType": "uint256[]",
          "name": "ids",
          "type": "uint256[]"
        },
        {
          "indexed": false,
          "internalType": "uint256[]",
          "name": "values",
          "type": "uint256[]"
        }
      ],
      "name": "TransferBatch",
      "type": "event"
    },
    {
      "anonymous": false,
      "inputs": [
        {
          "indexed": true,
          "internalType": "address",
          "name": "operator",
          "type": "address"
        },
        {
          "indexed": true,
          "internalType": "address",
          "name": "from",
          "type": "address"
        },
        {
          "indexed": true,
          "internalType": "address",
          "name": "to",
          "type": "address"
        },
        {
          "indexed": false,
          "internalType": "uint256",
          "name": "id",
          "type": "uint256"
        },
        {
          "indexed": false,
          "internalType": "uint256",
          "name": "value",
          "type": "uint256"
        }
      ],
      "name": "TransferSingle",
      "type": "event"
    },
    {
      "anonymous": false,
      "inputs": [
        {
          "indexed": false,
          "internalType": "string",
          "name": "value",
          "type": "string"
        },
        {
          "indexed": true,
          "internalType": "uint256",
          "name": "id",
          "type": "uint256"
        }
      ],
      "name": "URI",
      "type": "event"
    },
    {
      "inputs": [],
      "name": "auctionContract",
      "outputs": [
        {
          "internalType": "address",
          "name": "",
          "type": "address"
        }
      ],
      "stateMutability": "view",
      "type": "function"
    },
    {
      "inputs": [
        {
          "internalType": "address",
          "name": "account",
          "type": "address"
        },
        {
          "internalType": "uint256",
          "name": "id",
          "type": "uint256"
        }
      ],
      "name": "balanceOf",
      "outputs": [
        {
          "internalType": "uint256",
          "name": "",
          "type": "uint256"
        }
      ],
      "stateMutability": "view",
      "type": "function"
    },
    {
      "inputs": [
        {
          "internalType": "address[]",
          "name": "accounts",
          "type": "address[]"
        },
        {
          "internalType": "uint256[]",
          "name": "ids",
          "type": "uint256[]"
        }
      ],
      "name": "balanceOfBatch",
      "outputs": [
        {
          "internalType": "uint256[]",
          "name": "",
          "type": "uint256[]"
        }
      ],
      "stateMutability": "view",
      "type": "function"
    },
    {
      "inputs": [
        {
          "internalType": "address",
          "name": "_auctionContract",
          "type": "address"
        },
        {
          "internalType": "string",
          "name": "_baseMetadataURI",
          "type": "string"
        }
      ],
      "name": "initialize",
      "outputs": [],
      "stateMutability": "nonpayable",
      "type": "function"
    },
    {
      "inputs": [
        {
          "internalType": "address",
          "name": "account",
          "type": "address"
        },
        {
          "internalType": "address",
          "name": "operator",
          "type": "address"
        }
      ],
      "name": "isApprovedForAll",
      "outputs": [
        {
          "internalType": "bool",
          "name": "",
          "type": "bool"
        }
      ],
      "stateMutability": "view",
      "type": "function"
    },
    {
      "inputs": [
        {
          "internalType": "address",
          "name": "_to",
          "type": "address"
        },
        {
          "internalType": "uint256",
          "name": "_tokenId",
          "type": "uint256"
        },
        {
          "internalType": "uint256",
          "name": "_amount",
          "type": "uint256"
        }
      ],
      "name": "mint",
      "outputs": [],
      "stateMutability": "nonpayable",
      "type": "function"
    },
    {
      "inputs": [],
      "name": "owner",
      "outputs": [
        {
          "internalType": "address",
          "name": "",
          "type": "address"
        }
      ],
      "stateMutability": "view",
      "type": "function"
    },
    {
      "inputs": [
        {
          "internalType": "address",
          "name": "from",
          "type": "address"
        },
        {
          "internalType": "address",
          "name": "to",
          "type": "address"
        },
        {
          "internalType": "uint256[]",
          "name": "ids",
          "type": "uint256[]"
        },
        {
          "internalType": "uint256[]",
          "name": "amounts",
          "type": "uint256[]"
        },
        {
          "internalType": "bytes",
          "name": "data",
          "type": "bytes"
        }
      ],
      "name": "safeBatchTransferFrom",
      "outputs": [],
      "stateMutability": "nonpayable",
      "type": "function"
    },
    {
      "inputs": [
        {
          "internalType": "address",
          "name": "from",
          "type": "address"
        },
        {
          "internalType": "address",
          "name": "to",
          "type": "address"
        },
        {
          "internalType": "uint256",
          "name": "id",
          "type": "uint256"
        },
        {
          "internalType": "uint256",
          "name": "amount",
          "type": "uint256"
        },
        {
          "internalType": "bytes",
          "name": "data",
          "type": "bytes"
        }
      ],
      "name": "safeTransferFrom",
      "outputs": [],
      "stateMutability": "nonpayable",
      "type": "function"
    },
    {
      "inputs": [
        {
          "internalType": "address",
          "name": "operator",
          "type": "address"
        },
        {
          "internalType": "bool",
          "name": "approved",
          "type": "bool"
        }
      ],
      "name": "setApprovalForAll",
      "outputs": [],
      "stateMutability": "nonpayable",
      "type": "function"
    },
    {
      "inputs": [
        {
          "internalType": "bytes4",
          "name": "interfaceId",
          "type": "bytes4"
        }
      ],
      "name": "supportsInterface",
      "outputs": [
        {
          "internalType": "bool",
          "name": "",
          "type": "bool"
        }
      ],
      "stateMutability": "view",
      "type": "function"
    },
    {
      "inputs": [
        {
          "internalType": "uint256",
          "name": "",
          "type": "uint256"
        }
      ],
      "name": "uri",
      "outputs": [
        {
          "internalType": "string",
          "name": "",
          "type": "string"
        }
      ],
      "stateMutability": "view",
      "type": "function"
    }
  ],
  "bytecode": "0x608060405234801561001057600080fd5b50612d94806100206000396000f3fe608060405234801561001057600080fd5b50600436106100b35760003560e01c80634e1273f4116100715780634e1273f41461019e5780638da5cb5b146101ce578063a22cb465146101ec578063e985e9c514610208578063f242432a14610238578063f399e22e14610254576100b3565b8062fdd58e146100b857806301ffc9a7146100e85780630ab8afac146101185780630e89341c14610136578063156e29f6146101665780632eb2c2d614610182575b600080fd5b6100d260048036038101906100cd919061198b565b610270565b6040516100df91906119da565b60405180910390f35b61010260048036038101906100fd9190611a4d565b61033a565b60405161010f9190611a95565b60405180910390f35b61012061041c565b60405161012d9190611abf565b60405180910390f35b610150600480360381019061014b9190611ada565b610442565b60405161015d9190611ba0565b60405180910390f35b610180600480360381019061017b9190611bc2565b6104d6565b005b61019c60048036038101906101979190611e12565b610588565b005b6101b860048036038101906101b39190611fa4565b610629565b6040516101c591906120da565b60405180910390f35b6101d6610742565b6040516101e39190611abf565b60405180910390f35b61020660048036038101906102019190612128565b610768565b005b610222600480360381019061021d9190612168565b61077e565b60405161022f9190611a95565b60405180910390f35b610252600480360381019061024d91906121a8565b610812565b005b61026e600480360381019061026991906122e0565b6108b3565b005b60008073ffffffffffffffffffffffffffffffffffffffff168373ffffffffffffffffffffffffffffffffffffffff1614156102e1576040517f08c379a00000000000000000000000000000000000000000000000000000000081526004016102d8906123ae565b60405180910390fd5b6065600083815260200190815260200160002060008473ffffffffffffffffffffffffffffffffffffffff1673ffffffffffffffffffffffffffffffffffffffff16815260200190815260200160002054905092915050565b60007fd9b67a26000000000000000000000000000000000000000000000000000000007bffffffffffffffffffffffffffffffffffffffffffffffffffffffff1916827bffffffffffffffffffffffffffffffffffffffffffffffffffffffff1916148061040557507f0e89341c000000000000000000000000000000000000000000000000000000007bffffffffffffffffffffffffffffffffffffffffffffffffffffffff1916827bffffffffffffffffffffffffffffffffffffffffffffffffffffffff1916145b806104155750610414826109a0565b5b9050919050565b609860009054906101000a900473ffffffffffffffffffffffffffffffffffffffff1681565b606060678054610451906123fd565b80601f016020809104026020016040519081016040528092919081815260200182805461047d906123fd565b80156104ca5780601f1061049f576101008083540402835291602001916104ca565b820191906000526020600020905b8154815290600101906020018083116104ad57829003601f168201915b50505050509050919050565b609860009054906101000a900473ffffffffffffffffffffffffffffffffffffffff1673ffffffffffffffffffffffffffffffffffffffff163373ffffffffffffffffffffffffffffffffffffffff161461056857336040517fee69ffd400000000000000000000000000000000000000000000000000000000815260040161055f9190611abf565b60405180910390fd5b61058383838360405180602001604052806000815250610a0a565b505050565b610590610bbc565b73ffffffffffffffffffffffffffffffffffffffff168573ffffffffffffffffffffffffffffffffffffffff1614806105d657506105d5856105d0610bbc565b61077e565b5b610615576040517f08c379a000000000000000000000000000000000000000000000000000000000815260040161060c906124a1565b60405180910390fd5b6106228585858585610bc4565b5050505050565b6060815183511461066f576040517f08c379a000000000000000000000000000000000000000000000000000000000815260040161066690612533565b60405180910390fd5b6000835167ffffffffffffffff81111561068c5761068b611c1a565b5b6040519080825280602002602001820160405280156106ba5781602001602082028036833780820191505090505b50905060005b8451811015610737576107078582815181106106df576106de612553565b5b60200260200101518583815181106106fa576106f9612553565b5b6020026020010151610270565b82828151811061071a57610719612553565b5b60200260200101818152505080610730906125b1565b90506106c0565b508091505092915050565b609960009054906101000a900473ffffffffffffffffffffffffffffffffffffffff1681565b61077a610773610bbc565b8383610ee9565b5050565b6000606660008473ffffffffffffffffffffffffffffffffffffffff1673ffffffffffffffffffffffffffffffffffffffff16815260200190815260200160002060008373ffffffffffffffffffffffffffffffffffffffff1673ffffffffffffffffffffffffffffffffffffffff16815260200190815260200160002060009054906101000a900460ff16905092915050565b61081a610bbc565b73ffffffffffffffffffffffffffffffffffffffff168573ffffffffffffffffffffffffffffffffffffffff161480610860575061085f8561085a610bbc565b61077e565b5b61089f576040517f08c379a0000000000000000000000000000000000000000000000000000000008152600401610896906124a1565b60405180910390fd5b6108ac8585858585611056565b5050505050565b600073ffffffffffffffffffffffffffffffffffffffff16609960009054906101000a900473ffffffffffffffffffffffffffffffffffffffff1673ffffffffffffffffffffffffffffffffffffffff161461093b576040517f465250cc00000000000000000000000000000000000000000000000000000000815260040160405180910390fd5b81609860006101000a81548173ffffffffffffffffffffffffffffffffffffffff021916908373ffffffffffffffffffffffffffffffffffffffff1602179055508060979080519060200190610992929190611840565b5061099c816112f5565b5050565b60007f01ffc9a7000000000000000000000000000000000000000000000000000000007bffffffffffffffffffffffffffffffffffffffffffffffffffffffff1916827bffffffffffffffffffffffffffffffffffffffffffffffffffffffff1916149050919050565b600073ffffffffffffffffffffffffffffffffffffffff168473ffffffffffffffffffffffffffffffffffffffff161415610a7a576040517f08c379a0000000000000000000000000000000000000000000000000000000008152600401610a719061266c565b60405180910390fd5b6000610a84610bbc565b90506000610a9185611350565b90506000610a9e85611350565b9050610aaf836000898585896113ca565b846065600088815260200190815260200160002060008973ffffffffffffffffffffffffffffffffffffffff1673ffffffffffffffffffffffffffffffffffffffff1681526020019081526020016000206000828254610b0f919061268c565b925050819055508673ffffffffffffffffffffffffffffffffffffffff16600073ffffffffffffffffffffffffffffffffffffffff168473ffffffffffffffffffffffffffffffffffffffff167fc3d58168c5ae7397731d063d5bbf3d657854427343f4c083240f7aacaa2d0f628989604051610b8d9291906126e2565b60405180910390a4610ba4836000898585896113d2565b610bb3836000898989896113da565b50505050505050565b600033905090565b8151835114610c08576040517f08c379a0000000000000000000000000000000000000000000000000000000008152600401610bff9061277d565b60405180910390fd5b600073ffffffffffffffffffffffffffffffffffffffff168473ffffffffffffffffffffffffffffffffffffffff161415610c78576040517f08c379a0000000000000000000000000000000000000000000000000000000008152600401610c6f9061280f565b60405180910390fd5b6000610c82610bbc565b9050610c928187878787876113ca565b60005b8451811015610e46576000858281518110610cb357610cb2612553565b5b602002602001015190506000858381518110610cd257610cd1612553565b5b6020026020010151905060006065600084815260200190815260200160002060008b73ffffffffffffffffffffffffffffffffffffffff1673ffffffffffffffffffffffffffffffffffffffff16815260200190815260200160002054905081811015610d74576040517f08c379a0000000000000000000000000000000000000000000000000000000008152600401610d6b906128a1565b60405180910390fd5b8181036065600085815260200190815260200160002060008c73ffffffffffffffffffffffffffffffffffffffff1673ffffffffffffffffffffffffffffffffffffffff16815260200190815260200160002081905550816065600085815260200190815260200160002060008b73ffffffffffffffffffffffffffffffffffffffff1673ffffffffffffffffffffffffffffffffffffffff1681526020019081526020016000206000828254610e2b919061268c565b9250508190555050505080610e3f906125b1565b9050610c95565b508473ffffffffffffffffffffffffffffffffffffffff168673ffffffffffffffffffffffffffffffffffffffff168273ffffffffffffffffffffffffffffffffffffffff167f4a39dc06d4c0dbc64b70af90fd698a233a518aa5d07e595d983b8c0526c8f7fb8787604051610ebd9291906128c1565b60405180910390a4610ed38187878787876113d2565b610ee18187878787876115c1565b505050505050565b8173ffffffffffffffffffffffffffffffffffffffff168373ffffffffffffffffffffffffffffffffffffffff161415610f58576040517f08c379a0000000000000000000000000000000000000000000000000000000008152600401610f4f9061296a565b60405180910390fd5b80606660008573ffffffffffffffffffffffffffffffffffffffff1673ffffffffffffffffffffffffffffffffffffffff16815260200190815260200160002060008473ffffffffffffffffffffffffffffffffffffffff1673ffffffffffffffffffffffffffffffffffffffff16815260200190815260200160002060006101000a81548160ff0219169083151502179055508173ffffffffffffffffffffffffffffffffffffffff168373ffffffffffffffffffffffffffffffffffffffff167f17307eab39ab6107e8899845ad3d59bd9653f200f220920489ca2b5937696c31836040516110499190611a95565b60405180910390a3505050565b600073ffffffffffffffffffffffffffffffffffffffff168473ffffffffffffffffffffffffffffffffffffffff1614156110c6576040517f08c379a00000000000000000000000000000000000000000000000000000000081526004016110bd9061280f565b60405180910390fd5b60006110d0610bbc565b905060006110dd85611350565b905060006110ea85611350565b90506110fa8389898585896113ca565b60006065600088815260200190815260200160002060008a73ffffffffffffffffffffffffffffffffffffffff1673ffffffffffffffffffffffffffffffffffffffff16815260200190815260200160002054905085811015611192576040517f08c379a0000000000000000000000000000000000000000000000000000000008152600401611189906128a1565b60405180910390fd5b8581036065600089815260200190815260200160002060008b73ffffffffffffffffffffffffffffffffffffffff1673ffffffffffffffffffffffffffffffffffffffff16815260200190815260200160002081905550856065600089815260200190815260200160002060008a73ffffffffffffffffffffffffffffffffffffffff1673ffffffffffffffffffffffffffffffffffffffff1681526020019081526020016000206000828254611249919061268c565b925050819055508773ffffffffffffffffffffffffffffffffffffffff168973ffffffffffffffffffffffffffffffffffffffff168573ffffffffffffffffffffffffffffffffffffffff167fc3d58168c5ae7397731d063d5bbf3d657854427343f4c083240f7aacaa2d0f628a8a6040516112c69291906126e2565b60405180910390a46112dc848a8a86868a6113d2565b6112ea848a8a8a8a8a6113da565b505050505050505050565b600060019054906101000a900460ff16611344576040517f08c379a000000000000000000000000000000000000000000000000000000000815260040161133b906129fc565b60405180910390fd5b61134d816117a8565b50565b60606000600167ffffffffffffffff81111561136f5761136e611c1a565b5b60405190808252806020026020018201604052801561139d5781602001602082028036833780820191505090505b50905082816000815181106113b5576113b4612553565b5b60200260200101818152505080915050919050565b505050505050565b505050505050565b6113f98473ffffffffffffffffffffffffffffffffffffffff16611803565b156115b9578373ffffffffffffffffffffffffffffffffffffffff1663f23a6e6187878686866040518663ffffffff1660e01b815260040161143f959493929190612a71565b602060405180830381600087803b15801561145957600080fd5b505af192505050801561148a57506040513d601f19601f820116820180604052508101906114879190612ae0565b60015b61153057611496612b1a565b806308c379a014156114f357506114ab612b3c565b806114b657506114f5565b806040517f08c379a00000000000000000000000000000000000000000000000000000000081526004016114ea9190611ba0565b60405180910390fd5b505b6040517f08c379a000000000000000000000000000000000000000000000000000000000815260040161152790612c44565b60405180910390fd5b63f23a6e6160e01b7bffffffffffffffffffffffffffffffffffffffffffffffffffffffff1916817bffffffffffffffffffffffffffffffffffffffffffffffffffffffff1916146115b7576040517f08c379a00000000000000000000000000000000000000000000000000000000081526004016115ae90612cd6565b60405180910390fd5b505b505050505050565b6115e08473ffffffffffffffffffffffffffffffffffffffff16611803565b156117a0578373ffffffffffffffffffffffffffffffffffffffff1663bc197c8187878686866040518663ffffffff1660e01b8152600401611626959493929190612cf6565b602060405180830381600087803b15801561164057600080fd5b505af192505050801561167157506040513d601f19601f8201168201806040525081019061166e9190612ae0565b60015b6117175761167d612b1a565b806308c379a014156116da5750611692612b3c565b8061169d57506116dc565b806040517f08c379a00000000000000000000000000000000000000000000000000000000081526004016116d19190611ba0565b60405180910390fd5b505b6040517f08c379a000000000000000000000000000000000000000000000000000000000815260040161170e90612c44565b60405180910390fd5b63bc197c8160e01b7bffffffffffffffffffffffffffffffffffffffffffffffffffffffff1916817bffffffffffffffffffffffffffffffffffffffffffffffffffffffff19161461179e576040517f08c379a000000000000000000000000000000000000000000000000000000000815260040161179590612cd6565b60405180910390fd5b505b505050505050565b600060019054906101000a900460ff166117f7576040517f08c379a00000000000000000000000000000000000000000000000000000000081526004016117ee906129fc565b60405180910390fd5b61180081611826565b50565b6000808273ffffffffffffffffffffffffffffffffffffffff163b119050919050565b806067908051906020019061183c929190611840565b5050565b82805461184c906123fd565b90600052602060002090601f01602090048101928261186e57600085556118b5565b82601f1061188757805160ff19168380011785556118b5565b828001600101855582156118b5579182015b828111156118b4578251825591602001919060010190611899565b5b5090506118c291906118c6565b5090565b5b808211156118df5760008160009055506001016118c7565b5090565b6000604051905090565b600080fd5b600080fd5b600073ffffffffffffffffffffffffffffffffffffffff82169050919050565b6000611922826118f7565b9050919050565b61193281611917565b811461193d57600080fd5b50565b60008135905061194f81611929565b92915050565b6000819050919050565b61196881611955565b811461197357600080fd5b50565b6000813590506119858161195f565b92915050565b600080604083850312156119a2576119a16118ed565b5b60006119b085828601611940565b92505060206119c185828601611976565b9150509250929050565b6119d481611955565b82525050565b60006020820190506119ef60008301846119cb565b92915050565b60007fffffffff0000000000000000000000000000000000000000000000000000000082169050919050565b611a2a816119f5565b8114611a3557600080fd5b50565b600081359050611a4781611a21565b92915050565b600060208284031215611a6357611a626118ed565b5b6000611a7184828501611a38565b91505092915050565b60008115159050919050565b611a8f81611a7a565b82525050565b6000602082019050611aaa6000830184611a86565b92915050565b611ab981611917565b82525050565b6000602082019050611ad46000830184611ab0565b92915050565b600060208284031215611af057611aef6118ed565b5b6000611afe84828501611976565b91505092915050565b600081519050919050565b600082825260208201905092915050565b60005b83811015611b41578082015181840152602081019050611b26565b83811115611b50576000848401525b50505050565b6000601f19601f8301169050919050565b6000611b7282611b07565b611b7c8185611b12565b9350611b8c818560208601611b23565b611b9581611b56565b840191505092915050565b60006020820190508181036000830152611bba8184611b67565b905092915050565b600080600060608486031215611bdb57611bda6118ed565b5b6000611be986828701611940565b9350506020611bfa86828701611976565b9250506040611c0b86828701611976565b9150509250925092565b600080fd5b7f4e487b7100000000000000000000000000000000000000000000000000000000600052604160045260246000fd5b611c5282611b56565b810181811067ffffffffffffffff82111715611c7157611c70611c1a565b5b80604052505050565b6000611c846118e3565b9050611c908282611c49565b919050565b600067ffffffffffffffff821115611cb057611caf611c1a565b5b602082029050602081019050919050565b600080fd5b6000611cd9611cd484611c95565b611c7a565b90508083825260208201905060208402830185811115611cfc57611cfb611cc1565b5b835b81811015611d255780611d118882611976565b845260208401935050602081019050611cfe565b5050509392505050565b600082601f830112611d4457611d43611c15565b5b8135611d54848260208601611cc6565b91505092915050565b600080fd5b600067ffffffffffffffff821115611d7d57611d7c611c1a565b5b611d8682611b56565b9050602081019050919050565b82818337600083830152505050565b6000611db5611db084611d62565b611c7a565b905082815260208101848484011115611dd157611dd0611d5d565b5b611ddc848285611d93565b509392505050565b600082601f830112611df957611df8611c15565b5b8135611e09848260208601611da2565b91505092915050565b600080600080600060a08688031215611e2e57611e2d6118ed565b5b6000611e3c88828901611940565b9550506020611e4d88828901611940565b945050604086013567ffffffffffffffff811115611e6e57611e6d6118f2565b5b611e7a88828901611d2f565b935050606086013567ffffffffffffffff811115611e9b57611e9a6118f2565b5b611ea788828901611d2f565b925050608086013567ffffffffffffffff811115611ec857611ec76118f2565b5b611ed488828901611de4565b9150509295509295909350565b600067ffffffffffffffff821115611efc57611efb611c1a565b5b602082029050602081019050919050565b6000611f20611f1b84611ee1565b611c7a565b90508083825260208201905060208402830185811115611f4357611f42611cc1565b5b835b81811015611f6c5780611f588882611940565b845260208401935050602081019050611f45565b5050509392505050565b600082601f830112611f8b57611f8a611c15565b5b8135611f9b848260208601611f0d565b91505092915050565b60008060408385031215611fbb57611fba6118ed565b5b600083013567ffffffffffffffff811115611fd957611fd86118f2565b5b611fe585828601611f76565b925050602083013567ffffffffffffffff811115612006576120056118f2565b5b61201285828601611d2f565b9150509250929050565b600081519050919050565b600082825260208201905092915050565b6000819050602082019050919050565b61205181611955565b82525050565b60006120638383612048565b60208301905092915050565b6000602082019050919050565b60006120878261201c565b6120918185612027565b935061209c83612038565b8060005b838110156120cd5781516120b48882612057565b97506120bf8361206f565b9250506001810190506120a0565b5085935050505092915050565b600060208201905081810360008301526120f4818461207c565b905092915050565b61210581611a7a565b811461211057600080fd5b50565b600081359050612122816120fc565b92915050565b6000806040838503121561213f5761213e6118ed565b5b600061214d85828601611940565b925050602061215e85828601612113565b9150509250929050565b6000806040838503121561217f5761217e6118ed565b5b600061218d85828601611940565b925050602061219e85828601611940565b9150509250929050565b600080600080600060a086880312156121c4576121c36118ed565b5b60006121d288828901611940565b95505060206121e388828901611940565b94505060406121f488828901611976565b935050606061220588828901611976565b925050608086013567ffffffffffffffff811115612226576122256118f2565b5b61223288828901611de4565b9150509295509295909350565b600067ffffffffffffffff82111561225a57612259611c1a565b5b61226382611b56565b9050602081019050919050565b600061228361227e8461223f565b611c7a565b90508281526020810184848401111561229f5761229e611d5d565b5b6122aa848285611d93565b509392505050565b600082601f8301126122c7576122c6611c15565b5b81356122d7848260208601612270565b91505092915050565b600080604083850312156122f7576122f66118ed565b5b600061230585828601611940565b925050602083013567ffffffffffffffff811115612326576123256118f2565b5b612332858286016122b2565b9150509250929050565b7f455243313135353a2061646472657373207a65726f206973206e6f742061207660008201527f616c6964206f776e657200000000000000000000000000000000000000000000602082015250565b6000612398602a83611b12565b91506123a38261233c565b604082019050919050565b600060208201905081810360008301526123c78161238b565b9050919050565b7f4e487b7100000000000000000000000000000000000000000000000000000000600052602260045260246000fd5b6000600282049050600182168061241557607f821691505b60208210811415612429576124286123ce565b5b50919050565b7f455243313135353a2063616c6c6572206973206e6f7420746f6b656e206f776e60008201527f6572206f7220617070726f766564000000000000000000000000000000000000602082015250565b600061248b602e83611b12565b91506124968261242f565b604082019050919050565b600060208201905081810360008301526124ba8161247e565b9050919050565b7f455243313135353a206163636f756e747320616e6420696473206c656e67746860008201527f206d69736d617463680000000000000000000000000000000000000000000000602082015250565b600061251d602983611b12565b9150612528826124c1565b604082019050919050565b6000602082019050818103600083015261254c81612510565b9050919050565b7f4e487b7100000000000000000000000000000000000000000000000000000000600052603260045260246000fd5b7f4e487b7100000000000000000000000000000000000000000000000000000000600052601160045260246000fd5b60006125bc82611955565b91507fffffffffffffffffffffffffffffffffffffffffffffffffffffffffffffffff8214156125ef576125ee612582565b5b600182019050919050565b7f455243313135353a206d696e7420746f20746865207a65726f2061646472657360008201527f7300000000000000000000000000000000000000000000000000000000000000602082015250565b6000612656602183611b12565b9150612661826125fa565b604082019050919050565b6000602082019050818103600083015261268581612649565b9050919050565b600061269782611955565b91506126a283611955565b9250827fffffffffffffffffffffffffffffffffffffffffffffffffffffffffffffffff038211156126d7576126d6612582565b5b828201905092915050565b60006040820190506126f760008301856119cb565b61270460208301846119cb565b9392505050565b7f455243313135353a2069647320616e6420616d6f756e7473206c656e6774682060008201527f6d69736d61746368000000000000000000000000000000000000000000000000602082015250565b6000612767602883611b12565b91506127728261270b565b604082019050919050565b600060208201905081810360008301526127968161275a565b9050919050565b7f455243313135353a207472616e7366657220746f20746865207a65726f20616460008201527f6472657373000000000000000000000000000000000000000000000000000000602082015250565b60006127f9602583611b12565b91506128048261279d565b604082019050919050565b60006020820190508181036000830152612828816127ec565b9050919050565b7f455243313135353a20696e73756666696369656e742062616c616e636520666f60008201527f72207472616e7366657200000000000000000000000000000000000000000000602082015250565b600061288b602a83611b12565b91506128968261282f565b604082019050919050565b600060208201905081810360008301526128ba8161287e565b9050919050565b600060408201905081810360008301526128db818561207c565b905081810360208301526128ef818461207c565b90509392505050565b7f455243313135353a2073657474696e6720617070726f76616c2073746174757360008201527f20666f722073656c660000000000000000000000000000000000000000000000602082015250565b6000612954602983611b12565b915061295f826128f8565b604082019050919050565b6000602082019050818103600083015261298381612947565b9050919050565b7f496e697469616c697a61626c653a20636f6e7472616374206973206e6f74206960008201527f6e697469616c697a696e67000000000000000000000000000000000000000000602082015250565b60006129e6602b83611b12565b91506129f18261298a565b604082019050919050565b60006020820190508181036000830152612a15816129d9565b9050919050565b600081519050919050565b600082825260208201905092915050565b6000612a4382612a1c565b612a4d8185612a27565b9350612a5d818560208601611b23565b612a6681611b56565b840191505092915050565b600060a082019050612a866000830188611ab0565b612a936020830187611ab0565b612aa060408301866119cb565b612aad60608301856119cb565b8181036080830152612abf8184612a38565b90509695505050505050565b600081519050612ada81611a21565b92915050565b600060208284031215612af657612af56118ed565b5b6000612b0484828501612acb565b91505092915050565b60008160e01c9050919050565b600060033d1115612b395760046000803e612b36600051612b0d565b90505b90565b600060443d1015612b4c57612bcf565b612b546118e3565b60043d036004823e80513d602482011167ffffffffffffffff82111715612b7c575050612bcf565b808201805167ffffffffffffffff811115612b9a5750505050612bcf565b80602083010160043d038501811115612bb7575050505050612bcf565b612bc682602001850186611c49565b82955050505050505b90565b7f455243313135353a207472616e7366657220746f206e6f6e2d4552433131353560008201527f526563656976657220696d706c656d656e746572000000000000000000000000602082015250565b6000612c2e603483611b12565b9150612c3982612bd2565b604082019050919050565b60006020820190508181036000830152612c5d81612c21565b9050919050565b7f455243313135353a204552433131353552656365697665722072656a6563746560008201527f6420746f6b656e73000000000000000000000000000000000000000000000000602082015250565b6000612cc0602883611b12565b9150612ccb82612c64565b604082019050919050565b60006020820190508181036000830152612cef81612cb3565b9050919050565b600060a082019050612d0b6000830188611ab0565b612d186020830187611ab0565b8181036040830152612d2a818661207c565b90508181036060830152612d3e818561207c565b90508181036080830152612d528184612a38565b9050969550505050505056fea2646970667358221220a6e5dcec57fb7868a7c3c5128e3d27f4a02cb322e73d431f28f1bc3bf8af3e4d64736f6c63430008090033",
  "linkReferences": {},
  "deployedLinkReferences": {}
}