{
  "_format": "hh-sol-artifact-1",
  "contractName": "EventImplementation",
  "sourceName": "contracts/EventImplementation.sol",
  "abi": [
    {
      "inputs": [],
      "name": "CollectionImplementation__AlreadyInitialized",
      "type": "error"
    },
    {
      "inputs": [
        {
          "internalType": "address",
          "name": "caller",
          "type": "address"
        }
      ],
      "name": "Collection__OnlyCallableThroughAuctionContract",
      "type": "error"
    },
    {
      "anonymous": false,
      "inputs": [
        {
          "indexed": true,
          "internalType": "address",
          "name": "account",
          "type": "address"
        },
        {
          "indexed": true,
          "internalType": "address",
          "name": "operator",
          "type": "address"
        },
        {
          "indexed": false,
          "internalType": "bool",
          "name": "approved",
          "type": "bool"
        }
      ],
      "name": "ApprovalForAll",
      "type": "event"
    },
    {
      "anonymous": false,
      "inputs": [
        {
          "indexed": false,
          "internalType": "uint8",
          "name": "version",
          "type": "uint8"
        }
      ],
      "name": "Initialized",
      "type": "event"
    },
    {
      "anonymous": false,
      "inputs": [
        {
          "indexed": true,
          "internalType": "address",
          "name": "operator",
          "type": "address"
        },
        {
          "indexed": true,
          "internalType": "address",
          "name": "from",
          "type": "address"
        },
        {
          "indexed": true,
          "internalType": "address",
          "name": "to",
          "type": "address"
        },
        {
          "indexed": false,
          "internalType": "uint256[]",
          "name": "ids",
          "type": "uint256[]"
        },
        {
          "indexed": false,
          "internalType": "uint256[]",
          "name": "values",
          "type": "uint256[]"
        }
      ],
      "name": "TransferBatch",
      "type": "event"
    },
    {
      "anonymous": false,
      "inputs": [
        {
          "indexed": true,
          "internalType": "address",
          "name": "operator",
          "type": "address"
        },
        {
          "indexed": true,
          "internalType": "address",
          "name": "from",
          "type": "address"
        },
        {
          "indexed": true,
          "internalType": "address",
          "name": "to",
          "type": "address"
        },
        {
          "indexed": false,
          "internalType": "uint256",
          "name": "id",
          "type": "uint256"
        },
        {
          "indexed": false,
          "internalType": "uint256",
          "name": "value",
          "type": "uint256"
        }
      ],
      "name": "TransferSingle",
      "type": "event"
    },
    {
      "anonymous": false,
      "inputs": [
        {
          "indexed": false,
          "internalType": "string",
          "name": "value",
          "type": "string"
        },
        {
          "indexed": true,
          "internalType": "uint256",
          "name": "id",
          "type": "uint256"
        }
      ],
      "name": "URI",
      "type": "event"
    },
    {
      "inputs": [],
      "name": "auctionContract",
      "outputs": [
        {
          "internalType": "address",
          "name": "",
          "type": "address"
        }
      ],
      "stateMutability": "view",
      "type": "function"
    },
    {
      "inputs": [
        {
          "internalType": "address",
          "name": "account",
          "type": "address"
        },
        {
          "internalType": "uint256",
          "name": "id",
          "type": "uint256"
        }
      ],
      "name": "balanceOf",
      "outputs": [
        {
          "internalType": "uint256",
          "name": "",
          "type": "uint256"
        }
      ],
      "stateMutability": "view",
      "type": "function"
    },
    {
      "inputs": [
        {
          "internalType": "address[]",
          "name": "accounts",
          "type": "address[]"
        },
        {
          "internalType": "uint256[]",
          "name": "ids",
          "type": "uint256[]"
        }
      ],
      "name": "balanceOfBatch",
      "outputs": [
        {
          "internalType": "uint256[]",
          "name": "",
          "type": "uint256[]"
        }
      ],
      "stateMutability": "view",
      "type": "function"
    },
    {
      "inputs": [
        {
          "internalType": "address",
          "name": "_organizer",
          "type": "address"
        },
        {
          "internalType": "address",
          "name": "_auctionContract",
          "type": "address"
        },
        {
          "internalType": "string",
          "name": "_baseMetadataURI",
          "type": "string"
        }
      ],
      "name": "initialize",
      "outputs": [],
      "stateMutability": "nonpayable",
      "type": "function"
    },
    {
      "inputs": [
        {
          "internalType": "address",
          "name": "account",
          "type": "address"
        },
        {
          "internalType": "address",
          "name": "operator",
          "type": "address"
        }
      ],
      "name": "isApprovedForAll",
      "outputs": [
        {
          "internalType": "bool",
          "name": "",
          "type": "bool"
        }
      ],
      "stateMutability": "view",
      "type": "function"
    },
    {
      "inputs": [
        {
          "internalType": "address",
          "name": "_to",
          "type": "address"
        },
        {
          "internalType": "uint256",
          "name": "_tokenId",
          "type": "uint256"
        },
        {
          "internalType": "uint256",
          "name": "_amount",
          "type": "uint256"
        }
      ],
      "name": "mint",
      "outputs": [],
      "stateMutability": "nonpayable",
      "type": "function"
    },
    {
      "inputs": [],
      "name": "organizer",
      "outputs": [
        {
          "internalType": "address",
          "name": "",
          "type": "address"
        }
      ],
      "stateMutability": "view",
      "type": "function"
    },
    {
      "inputs": [
        {
          "internalType": "address",
          "name": "from",
          "type": "address"
        },
        {
          "internalType": "address",
          "name": "to",
          "type": "address"
        },
        {
          "internalType": "uint256[]",
          "name": "ids",
          "type": "uint256[]"
        },
        {
          "internalType": "uint256[]",
          "name": "amounts",
          "type": "uint256[]"
        },
        {
          "internalType": "bytes",
          "name": "data",
          "type": "bytes"
        }
      ],
      "name": "safeBatchTransferFrom",
      "outputs": [],
      "stateMutability": "nonpayable",
      "type": "function"
    },
    {
      "inputs": [
        {
          "internalType": "address",
          "name": "from",
          "type": "address"
        },
        {
          "internalType": "address",
          "name": "to",
          "type": "address"
        },
        {
          "internalType": "uint256",
          "name": "id",
          "type": "uint256"
        },
        {
          "internalType": "uint256",
          "name": "amount",
          "type": "uint256"
        },
        {
          "internalType": "bytes",
          "name": "data",
          "type": "bytes"
        }
      ],
      "name": "safeTransferFrom",
      "outputs": [],
      "stateMutability": "nonpayable",
      "type": "function"
    },
    {
      "inputs": [
        {
          "internalType": "address",
          "name": "operator",
          "type": "address"
        },
        {
          "internalType": "bool",
          "name": "approved",
          "type": "bool"
        }
      ],
      "name": "setApprovalForAll",
      "outputs": [],
      "stateMutability": "nonpayable",
      "type": "function"
    },
    {
      "inputs": [
        {
          "internalType": "bytes4",
          "name": "interfaceId",
          "type": "bytes4"
        }
      ],
      "name": "supportsInterface",
      "outputs": [
        {
          "internalType": "bool",
          "name": "",
          "type": "bool"
        }
      ],
      "stateMutability": "view",
      "type": "function"
    },
    {
      "inputs": [
        {
          "internalType": "uint256",
          "name": "",
          "type": "uint256"
        }
      ],
      "name": "uri",
      "outputs": [
        {
          "internalType": "string",
          "name": "",
          "type": "string"
        }
      ],
      "stateMutability": "view",
      "type": "function"
    }
  ],
  "bytecode": "0x608060405234801561001057600080fd5b50612dcb806100206000396000f3fe608060405234801561001057600080fd5b50600436106100b35760003560e01c80634571e3a6116100715780634571e3a61461019e5780634e1273f4146101ba57806361203265146101ea578063a22cb46514610208578063e985e9c514610224578063f242432a14610254576100b3565b8062fdd58e146100b857806301ffc9a7146100e85780630ab8afac146101185780630e89341c14610136578063156e29f6146101665780632eb2c2d614610182575b600080fd5b6100d260048036038101906100cd91906119af565b610270565b6040516100df91906119fe565b60405180910390f35b61010260048036038101906100fd9190611a71565b61033a565b60405161010f9190611ab9565b60405180910390f35b61012061041c565b60405161012d9190611ae3565b60405180910390f35b610150600480360381019061014b9190611afe565b610442565b60405161015d9190611bc4565b60405180910390f35b610180600480360381019061017b9190611be6565b6104d6565b005b61019c60048036038101906101979190611e36565b610588565b005b6101b860048036038101906101b39190611fa6565b610629565b005b6101d460048036038101906101cf91906120d8565b610758565b6040516101e1919061220e565b60405180910390f35b6101f2610871565b6040516101ff9190611ae3565b60405180910390f35b610222600480360381019061021d919061225c565b610897565b005b61023e6004803603810190610239919061229c565b6108ad565b60405161024b9190611ab9565b60405180910390f35b61026e600480360381019061026991906122dc565b610941565b005b60008073ffffffffffffffffffffffffffffffffffffffff168373ffffffffffffffffffffffffffffffffffffffff1614156102e1576040517f08c379a00000000000000000000000000000000000000000000000000000000081526004016102d8906123e5565b60405180910390fd5b6065600083815260200190815260200160002060008473ffffffffffffffffffffffffffffffffffffffff1673ffffffffffffffffffffffffffffffffffffffff16815260200190815260200160002054905092915050565b60007fd9b67a26000000000000000000000000000000000000000000000000000000007bffffffffffffffffffffffffffffffffffffffffffffffffffffffff1916827bffffffffffffffffffffffffffffffffffffffffffffffffffffffff1916148061040557507f0e89341c000000000000000000000000000000000000000000000000000000007bffffffffffffffffffffffffffffffffffffffffffffffffffffffff1916827bffffffffffffffffffffffffffffffffffffffffffffffffffffffff1916145b806104155750610414826109e2565b5b9050919050565b609860009054906101000a900473ffffffffffffffffffffffffffffffffffffffff1681565b60606067805461045190612434565b80601f016020809104026020016040519081016040528092919081815260200182805461047d90612434565b80156104ca5780601f1061049f576101008083540402835291602001916104ca565b820191906000526020600020905b8154815290600101906020018083116104ad57829003601f168201915b50505050509050919050565b609860009054906101000a900473ffffffffffffffffffffffffffffffffffffffff1673ffffffffffffffffffffffffffffffffffffffff163373ffffffffffffffffffffffffffffffffffffffff161461056857336040517fee69ffd400000000000000000000000000000000000000000000000000000000815260040161055f9190611ae3565b60405180910390fd5b61058383838360405180602001604052806000815250610a4c565b505050565b610590610bfe565b73ffffffffffffffffffffffffffffffffffffffff168573ffffffffffffffffffffffffffffffffffffffff1614806105d657506105d5856105d0610bfe565b6108ad565b5b610615576040517f08c379a000000000000000000000000000000000000000000000000000000000815260040161060c906124d8565b60405180910390fd5b6106228585858585610c06565b5050505050565b600073ffffffffffffffffffffffffffffffffffffffff16609960009054906101000a900473ffffffffffffffffffffffffffffffffffffffff1673ffffffffffffffffffffffffffffffffffffffff16146106b1576040517f465250cc00000000000000000000000000000000000000000000000000000000815260040160405180910390fd5b82609960006101000a81548173ffffffffffffffffffffffffffffffffffffffff021916908373ffffffffffffffffffffffffffffffffffffffff16021790555081609860006101000a81548173ffffffffffffffffffffffffffffffffffffffff021916908373ffffffffffffffffffffffffffffffffffffffff1602179055508060979080519060200190610749929190611864565b5061075381610f2b565b505050565b6060815183511461079e576040517f08c379a00000000000000000000000000000000000000000000000000000000081526004016107959061256a565b60405180910390fd5b6000835167ffffffffffffffff8111156107bb576107ba611c3e565b5b6040519080825280602002602001820160405280156107e95781602001602082028036833780820191505090505b50905060005b84518110156108665761083685828151811061080e5761080d61258a565b5b60200260200101518583815181106108295761082861258a565b5b6020026020010151610270565b8282815181106108495761084861258a565b5b6020026020010181815250508061085f906125e8565b90506107ef565b508091505092915050565b609960009054906101000a900473ffffffffffffffffffffffffffffffffffffffff1681565b6108a96108a2610bfe565b8383610f86565b5050565b6000606660008473ffffffffffffffffffffffffffffffffffffffff1673ffffffffffffffffffffffffffffffffffffffff16815260200190815260200160002060008373ffffffffffffffffffffffffffffffffffffffff1673ffffffffffffffffffffffffffffffffffffffff16815260200190815260200160002060009054906101000a900460ff16905092915050565b610949610bfe565b73ffffffffffffffffffffffffffffffffffffffff168573ffffffffffffffffffffffffffffffffffffffff16148061098f575061098e85610989610bfe565b6108ad565b5b6109ce576040517f08c379a00000000000000000000000000000000000000000000000000000000081526004016109c5906124d8565b60405180910390fd5b6109db85858585856110f3565b5050505050565b60007f01ffc9a7000000000000000000000000000000000000000000000000000000007bffffffffffffffffffffffffffffffffffffffffffffffffffffffff1916827bffffffffffffffffffffffffffffffffffffffffffffffffffffffff1916149050919050565b600073ffffffffffffffffffffffffffffffffffffffff168473ffffffffffffffffffffffffffffffffffffffff161415610abc576040517f08c379a0000000000000000000000000000000000000000000000000000000008152600401610ab3906126a3565b60405180910390fd5b6000610ac6610bfe565b90506000610ad385611392565b90506000610ae085611392565b9050610af18360008985858961140c565b846065600088815260200190815260200160002060008973ffffffffffffffffffffffffffffffffffffffff1673ffffffffffffffffffffffffffffffffffffffff1681526020019081526020016000206000828254610b5191906126c3565b925050819055508673ffffffffffffffffffffffffffffffffffffffff16600073ffffffffffffffffffffffffffffffffffffffff168473ffffffffffffffffffffffffffffffffffffffff167fc3d58168c5ae7397731d063d5bbf3d657854427343f4c083240f7aacaa2d0f628989604051610bcf929190612719565b60405180910390a4610be683600089858589611414565b610bf58360008989898961141c565b50505050505050565b600033905090565b8151835114610c4a576040517f08c379a0000000000000000000000000000000000000000000000000000000008152600401610c41906127b4565b60405180910390fd5b600073ffffffffffffffffffffffffffffffffffffffff168473ffffffffffffffffffffffffffffffffffffffff161415610cba576040517f08c379a0000000000000000000000000000000000000000000000000000000008152600401610cb190612846565b60405180910390fd5b6000610cc4610bfe565b9050610cd481878787878761140c565b60005b8451811015610e88576000858281518110610cf557610cf461258a565b5b602002602001015190506000858381518110610d1457610d1361258a565b5b6020026020010151905060006065600084815260200190815260200160002060008b73ffffffffffffffffffffffffffffffffffffffff1673ffffffffffffffffffffffffffffffffffffffff16815260200190815260200160002054905081811015610db6576040517f08c379a0000000000000000000000000000000000000000000000000000000008152600401610dad906128d8565b60405180910390fd5b8181036065600085815260200190815260200160002060008c73ffffffffffffffffffffffffffffffffffffffff1673ffffffffffffffffffffffffffffffffffffffff16815260200190815260200160002081905550816065600085815260200190815260200160002060008b73ffffffffffffffffffffffffffffffffffffffff1673ffffffffffffffffffffffffffffffffffffffff1681526020019081526020016000206000828254610e6d91906126c3565b9250508190555050505080610e81906125e8565b9050610cd7565b508473ffffffffffffffffffffffffffffffffffffffff168673ffffffffffffffffffffffffffffffffffffffff168273ffffffffffffffffffffffffffffffffffffffff167f4a39dc06d4c0dbc64b70af90fd698a233a518aa5d07e595d983b8c0526c8f7fb8787604051610eff9291906128f8565b60405180910390a4610f15818787878787611414565b610f238187878787876115f4565b505050505050565b600060019054906101000a900460ff16610f7a576040517f08c379a0000000000000000000000000000000000000000000000000000000008152600401610f71906129a1565b60405180910390fd5b610f83816117cc565b50565b8173ffffffffffffffffffffffffffffffffffffffff168373ffffffffffffffffffffffffffffffffffffffff161415610ff5576040517f08c379a0000000000000000000000000000000000000000000000000000000008152600401610fec90612a33565b60405180910390fd5b80606660008573ffffffffffffffffffffffffffffffffffffffff1673ffffffffffffffffffffffffffffffffffffffff16815260200190815260200160002060008473ffffffffffffffffffffffffffffffffffffffff1673ffffffffffffffffffffffffffffffffffffffff16815260200190815260200160002060006101000a81548160ff0219169083151502179055508173ffffffffffffffffffffffffffffffffffffffff168373ffffffffffffffffffffffffffffffffffffffff167f17307eab39ab6107e8899845ad3d59bd9653f200f220920489ca2b5937696c31836040516110e69190611ab9565b60405180910390a3505050565b600073ffffffffffffffffffffffffffffffffffffffff168473ffffffffffffffffffffffffffffffffffffffff161415611163576040517f08c379a000000000000000000000000000000000000000000000000000000000815260040161115a90612846565b60405180910390fd5b600061116d610bfe565b9050600061117a85611392565b9050600061118785611392565b905061119783898985858961140c565b60006065600088815260200190815260200160002060008a73ffffffffffffffffffffffffffffffffffffffff1673ffffffffffffffffffffffffffffffffffffffff1681526020019081526020016000205490508581101561122f576040517f08c379a0000000000000000000000000000000000000000000000000000000008152600401611226906128d8565b60405180910390fd5b8581036065600089815260200190815260200160002060008b73ffffffffffffffffffffffffffffffffffffffff1673ffffffffffffffffffffffffffffffffffffffff16815260200190815260200160002081905550856065600089815260200190815260200160002060008a73ffffffffffffffffffffffffffffffffffffffff1673ffffffffffffffffffffffffffffffffffffffff16815260200190815260200160002060008282546112e691906126c3565b925050819055508773ffffffffffffffffffffffffffffffffffffffff168973ffffffffffffffffffffffffffffffffffffffff168573ffffffffffffffffffffffffffffffffffffffff167fc3d58168c5ae7397731d063d5bbf3d657854427343f4c083240f7aacaa2d0f628a8a604051611363929190612719565b60405180910390a4611379848a8a86868a611414565b611387848a8a8a8a8a61141c565b505050505050505050565b60606000600167ffffffffffffffff8111156113b1576113b0611c3e565b5b6040519080825280602002602001820160405280156113df5781602001602082028036833780820191505090505b50905082816000815181106113f7576113f661258a565b5b60200260200101818152505080915050919050565b505050505050565b505050505050565b61143b8473ffffffffffffffffffffffffffffffffffffffff16611827565b156115ec578373ffffffffffffffffffffffffffffffffffffffff1663f23a6e6187878686866040518663ffffffff1660e01b8152600401611481959493929190612aa8565b6020604051808303816000875af19250505080156114bd57506040513d601f19601f820116820180604052508101906114ba9190612b17565b60015b611563576114c9612b51565b806308c379a0141561152657506114de612b73565b806114e95750611528565b806040517f08c379a000000000000000000000000000000000000000000000000000000000815260040161151d9190611bc4565b60405180910390fd5b505b6040517f08c379a000000000000000000000000000000000000000000000000000000000815260040161155a90612c7b565b60405180910390fd5b63f23a6e6160e01b7bffffffffffffffffffffffffffffffffffffffffffffffffffffffff1916817bffffffffffffffffffffffffffffffffffffffffffffffffffffffff1916146115ea576040517f08c379a00000000000000000000000000000000000000000000000000000000081526004016115e190612d0d565b60405180910390fd5b505b505050505050565b6116138473ffffffffffffffffffffffffffffffffffffffff16611827565b156117c4578373ffffffffffffffffffffffffffffffffffffffff1663bc197c8187878686866040518663ffffffff1660e01b8152600401611659959493929190612d2d565b6020604051808303816000875af192505050801561169557506040513d601f19601f820116820180604052508101906116929190612b17565b60015b61173b576116a1612b51565b806308c379a014156116fe57506116b6612b73565b806116c15750611700565b806040517f08c379a00000000000000000000000000000000000000000000000000000000081526004016116f59190611bc4565b60405180910390fd5b505b6040517f08c379a000000000000000000000000000000000000000000000000000000000815260040161173290612c7b565b60405180910390fd5b63bc197c8160e01b7bffffffffffffffffffffffffffffffffffffffffffffffffffffffff1916817bffffffffffffffffffffffffffffffffffffffffffffffffffffffff1916146117c2576040517f08c379a00000000000000000000000000000000000000000000000000000000081526004016117b990612d0d565b60405180910390fd5b505b505050505050565b600060019054906101000a900460ff1661181b576040517f08c379a0000000000000000000000000000000000000000000000000000000008152600401611812906129a1565b60405180910390fd5b6118248161184a565b50565b6000808273ffffffffffffffffffffffffffffffffffffffff163b119050919050565b8060679080519060200190611860929190611864565b5050565b82805461187090612434565b90600052602060002090601f01602090048101928261189257600085556118d9565b82601f106118ab57805160ff19168380011785556118d9565b828001600101855582156118d9579182015b828111156118d85782518255916020019190600101906118bd565b5b5090506118e691906118ea565b5090565b5b808211156119035760008160009055506001016118eb565b5090565b6000604051905090565b600080fd5b600080fd5b600073ffffffffffffffffffffffffffffffffffffffff82169050919050565b60006119468261191b565b9050919050565b6119568161193b565b811461196157600080fd5b50565b6000813590506119738161194d565b92915050565b6000819050919050565b61198c81611979565b811461199757600080fd5b50565b6000813590506119a981611983565b92915050565b600080604083850312156119c6576119c5611911565b5b60006119d485828601611964565b92505060206119e58582860161199a565b9150509250929050565b6119f881611979565b82525050565b6000602082019050611a1360008301846119ef565b92915050565b60007fffffffff0000000000000000000000000000000000000000000000000000000082169050919050565b611a4e81611a19565b8114611a5957600080fd5b50565b600081359050611a6b81611a45565b92915050565b600060208284031215611a8757611a86611911565b5b6000611a9584828501611a5c565b91505092915050565b60008115159050919050565b611ab381611a9e565b82525050565b6000602082019050611ace6000830184611aaa565b92915050565b611add8161193b565b82525050565b6000602082019050611af86000830184611ad4565b92915050565b600060208284031215611b1457611b13611911565b5b6000611b228482850161199a565b91505092915050565b600081519050919050565b600082825260208201905092915050565b60005b83811015611b65578082015181840152602081019050611b4a565b83811115611b74576000848401525b50505050565b6000601f19601f8301169050919050565b6000611b9682611b2b565b611ba08185611b36565b9350611bb0818560208601611b47565b611bb981611b7a565b840191505092915050565b60006020820190508181036000830152611bde8184611b8b565b905092915050565b600080600060608486031215611bff57611bfe611911565b5b6000611c0d86828701611964565b9350506020611c1e8682870161199a565b9250506040611c2f8682870161199a565b9150509250925092565b600080fd5b7f4e487b7100000000000000000000000000000000000000000000000000000000600052604160045260246000fd5b611c7682611b7a565b810181811067ffffffffffffffff82111715611c9557611c94611c3e565b5b80604052505050565b6000611ca8611907565b9050611cb48282611c6d565b919050565b600067ffffffffffffffff821115611cd457611cd3611c3e565b5b602082029050602081019050919050565b600080fd5b6000611cfd611cf884611cb9565b611c9e565b90508083825260208201905060208402830185811115611d2057611d1f611ce5565b5b835b81811015611d495780611d35888261199a565b845260208401935050602081019050611d22565b5050509392505050565b600082601f830112611d6857611d67611c39565b5b8135611d78848260208601611cea565b91505092915050565b600080fd5b600067ffffffffffffffff821115611da157611da0611c3e565b5b611daa82611b7a565b9050602081019050919050565b82818337600083830152505050565b6000611dd9611dd484611d86565b611c9e565b905082815260208101848484011115611df557611df4611d81565b5b611e00848285611db7565b509392505050565b600082601f830112611e1d57611e1c611c39565b5b8135611e2d848260208601611dc6565b91505092915050565b600080600080600060a08688031215611e5257611e51611911565b5b6000611e6088828901611964565b9550506020611e7188828901611964565b945050604086013567ffffffffffffffff811115611e9257611e91611916565b5b611e9e88828901611d53565b935050606086013567ffffffffffffffff811115611ebf57611ebe611916565b5b611ecb88828901611d53565b925050608086013567ffffffffffffffff811115611eec57611eeb611916565b5b611ef888828901611e08565b9150509295509295909350565b600067ffffffffffffffff821115611f2057611f1f611c3e565b5b611f2982611b7a565b9050602081019050919050565b6000611f49611f4484611f05565b611c9e565b905082815260208101848484011115611f6557611f64611d81565b5b611f70848285611db7565b509392505050565b600082601f830112611f8d57611f8c611c39565b5b8135611f9d848260208601611f36565b91505092915050565b600080600060608486031215611fbf57611fbe611911565b5b6000611fcd86828701611964565b9350506020611fde86828701611964565b925050604084013567ffffffffffffffff811115611fff57611ffe611916565b5b61200b86828701611f78565b9150509250925092565b600067ffffffffffffffff8211156120305761202f611c3e565b5b602082029050602081019050919050565b600061205461204f84612015565b611c9e565b9050808382526020820190506020840283018581111561207757612076611ce5565b5b835b818110156120a0578061208c8882611964565b845260208401935050602081019050612079565b5050509392505050565b600082601f8301126120bf576120be611c39565b5b81356120cf848260208601612041565b91505092915050565b600080604083850312156120ef576120ee611911565b5b600083013567ffffffffffffffff81111561210d5761210c611916565b5b612119858286016120aa565b925050602083013567ffffffffffffffff81111561213a57612139611916565b5b61214685828601611d53565b9150509250929050565b600081519050919050565b600082825260208201905092915050565b6000819050602082019050919050565b61218581611979565b82525050565b6000612197838361217c565b60208301905092915050565b6000602082019050919050565b60006121bb82612150565b6121c5818561215b565b93506121d08361216c565b8060005b838110156122015781516121e8888261218b565b97506121f3836121a3565b9250506001810190506121d4565b5085935050505092915050565b6000602082019050818103600083015261222881846121b0565b905092915050565b61223981611a9e565b811461224457600080fd5b50565b60008135905061225681612230565b92915050565b6000806040838503121561227357612272611911565b5b600061228185828601611964565b925050602061229285828601612247565b9150509250929050565b600080604083850312156122b3576122b2611911565b5b60006122c185828601611964565b92505060206122d285828601611964565b9150509250929050565b600080600080600060a086880312156122f8576122f7611911565b5b600061230688828901611964565b955050602061231788828901611964565b94505060406123288882890161199a565b93505060606123398882890161199a565b925050608086013567ffffffffffffffff81111561235a57612359611916565b5b61236688828901611e08565b9150509295509295909350565b7f455243313135353a2061646472657373207a65726f206973206e6f742061207660008201527f616c6964206f776e657200000000000000000000000000000000000000000000602082015250565b60006123cf602a83611b36565b91506123da82612373565b604082019050919050565b600060208201905081810360008301526123fe816123c2565b9050919050565b7f4e487b7100000000000000000000000000000000000000000000000000000000600052602260045260246000fd5b6000600282049050600182168061244c57607f821691505b602082108114156124605761245f612405565b5b50919050565b7f455243313135353a2063616c6c6572206973206e6f7420746f6b656e206f776e60008201527f6572206f7220617070726f766564000000000000000000000000000000000000602082015250565b60006124c2602e83611b36565b91506124cd82612466565b604082019050919050565b600060208201905081810360008301526124f1816124b5565b9050919050565b7f455243313135353a206163636f756e747320616e6420696473206c656e67746860008201527f206d69736d617463680000000000000000000000000000000000000000000000602082015250565b6000612554602983611b36565b915061255f826124f8565b604082019050919050565b6000602082019050818103600083015261258381612547565b9050919050565b7f4e487b7100000000000000000000000000000000000000000000000000000000600052603260045260246000fd5b7f4e487b7100000000000000000000000000000000000000000000000000000000600052601160045260246000fd5b60006125f382611979565b91507fffffffffffffffffffffffffffffffffffffffffffffffffffffffffffffffff821415612626576126256125b9565b5b600182019050919050565b7f455243313135353a206d696e7420746f20746865207a65726f2061646472657360008201527f7300000000000000000000000000000000000000000000000000000000000000602082015250565b600061268d602183611b36565b915061269882612631565b604082019050919050565b600060208201905081810360008301526126bc81612680565b9050919050565b60006126ce82611979565b91506126d983611979565b9250827fffffffffffffffffffffffffffffffffffffffffffffffffffffffffffffffff0382111561270e5761270d6125b9565b5b828201905092915050565b600060408201905061272e60008301856119ef565b61273b60208301846119ef565b9392505050565b7f455243313135353a2069647320616e6420616d6f756e7473206c656e6774682060008201527f6d69736d61746368000000000000000000000000000000000000000000000000602082015250565b600061279e602883611b36565b91506127a982612742565b604082019050919050565b600060208201905081810360008301526127cd81612791565b9050919050565b7f455243313135353a207472616e7366657220746f20746865207a65726f20616460008201527f6472657373000000000000000000000000000000000000000000000000000000602082015250565b6000612830602583611b36565b915061283b826127d4565b604082019050919050565b6000602082019050818103600083015261285f81612823565b9050919050565b7f455243313135353a20696e73756666696369656e742062616c616e636520666f60008201527f72207472616e7366657200000000000000000000000000000000000000000000602082015250565b60006128c2602a83611b36565b91506128cd82612866565b604082019050919050565b600060208201905081810360008301526128f1816128b5565b9050919050565b6000604082019050818103600083015261291281856121b0565b9050818103602083015261292681846121b0565b90509392505050565b7f496e697469616c697a61626c653a20636f6e7472616374206973206e6f74206960008201527f6e697469616c697a696e67000000000000000000000000000000000000000000602082015250565b600061298b602b83611b36565b91506129968261292f565b604082019050919050565b600060208201905081810360008301526129ba8161297e565b9050919050565b7f455243313135353a2073657474696e6720617070726f76616c2073746174757360008201527f20666f722073656c660000000000000000000000000000000000000000000000602082015250565b6000612a1d602983611b36565b9150612a28826129c1565b604082019050919050565b60006020820190508181036000830152612a4c81612a10565b9050919050565b600081519050919050565b600082825260208201905092915050565b6000612a7a82612a53565b612a848185612a5e565b9350612a94818560208601611b47565b612a9d81611b7a565b840191505092915050565b600060a082019050612abd6000830188611ad4565b612aca6020830187611ad4565b612ad760408301866119ef565b612ae460608301856119ef565b8181036080830152612af68184612a6f565b90509695505050505050565b600081519050612b1181611a45565b92915050565b600060208284031215612b2d57612b2c611911565b5b6000612b3b84828501612b02565b91505092915050565b60008160e01c9050919050565b600060033d1115612b705760046000803e612b6d600051612b44565b90505b90565b600060443d1015612b8357612c06565b612b8b611907565b60043d036004823e80513d602482011167ffffffffffffffff82111715612bb3575050612c06565b808201805167ffffffffffffffff811115612bd15750505050612c06565b80602083010160043d038501811115612bee575050505050612c06565b612bfd82602001850186611c6d565b82955050505050505b90565b7f455243313135353a207472616e7366657220746f206e6f6e2d4552433131353560008201527f526563656976657220696d706c656d656e746572000000000000000000000000602082015250565b6000612c65603483611b36565b9150612c7082612c09565b604082019050919050565b60006020820190508181036000830152612c9481612c58565b9050919050565b7f455243313135353a204552433131353552656365697665722072656a6563746560008201527f6420746f6b656e73000000000000000000000000000000000000000000000000602082015250565b6000612cf7602883611b36565b9150612d0282612c9b565b604082019050919050565b60006020820190508181036000830152612d2681612cea565b9050919050565b600060a082019050612d426000830188611ad4565b612d4f6020830187611ad4565b8181036040830152612d6181866121b0565b90508181036060830152612d7581856121b0565b90508181036080830152612d898184612a6f565b9050969550505050505056fea264697066735822122006dcbeb422ab2b769f6b8f031e7700edb01e39e04d1cb4444492e9f938f2967464736f6c634300080a0033",
  "linkReferences": {},
  "deployedLinkReferences": {}
}